:1073F800534D4D552D522DD2BBB7C5C9E4D0D4BB82
:10740800EEB6C8BCECB2E2D2C7004300BBB620D38C
:10741800AD20CAB920D3C300B1E3D0AFCABDCAB347
:10742800C6B726CBAE00B7C5C9E4D0D4BBEEB6C844
:10743800BCECB2E2D2C700B1BEB5D7B2E2C1BF0060
:10744800D2BACCE5B2E2C1BF00B9CCCCE5B2E2C158
:10745800BF00B2CECAFDC9E8D6C300C0FACAB7BCDD
:10746800C7C2BC00B2CE20CAFD20B5F720D5FB00AC
:107478003230253032782F253032782F2530327847
:1074880000253032783A253032783A253032780083
:10749800253032643A253032643A2530326400258A
:0A74A8006425303464000A1E466EAD
:106DAD006074001111111111000000FA000000783B
:106DBD0000000078006400640070050003E803E83B
:106DCD003F7AE1483F7AE14816012213150003018D
:106DDD0001FF0000000000000000000000000000A6
:106DED000000000000000000000000000000000096
:106DFD000000000000000000000000000000000086
:106E0D000000000000000000000000000000000075
:106E1D000000000000000100603200920000000040
:106E2D000000000000000000000000000000000055
:106E3D000000000000000000000000000000000045
:106E4D0000000000000000000000000000004100F4
:106E5D00890041008B004100C60042010500004140
:106E6D0001000041001000410002004100CE00C1B0
:106E7D0013C1124100C7004100CD004100D500C132
:066E8D00154200000001A7
:1087E700900041E030E0054404F08007900041E04C
:1087F70054FBF0900041E030E1044408F02290007F
:0688070041E054F7F022ED
:10880D00900041E030E2054401F08007900041E026
:10881D0054FEF0900041E030E3044402F022900059
:06882D0041E054FDF022C1
:108605009000CA7401F020FC06FFE08FF0A4F02072
:10861500FD0A7F029000CAE08FF0A4F020FE0A7FD9
:10862500039000CAE08FF0A4F020FF0A7F049000B9
:10863500CAE08FF0A4F020C50A7F059000CAE08F3C
:03864500F0A4F0AE
:01864800220F
:105E6800900041E054EFFFF0E49000CDF0EF20E621
:105E78001890023B7418F0E4A3F0A3F0D2087B401A
:105E88007A017DD8FFFE1276CB90023B74D8F0E4FD
:105E9800A3F0A3F0D2087B407A01FDFFFE1276CB77
:105EA800E4900232F0D205FBFA7D087FE0FE12771B
:105EB800747BFF7A7379F8E490023CF0A3F0D2087F
:105EC800D2097D087F10FE125835900041E030E776
:105ED800197BFF7A747912E490023CF0A3F0D2089F
:105EE800D2097D087FD8FE1258357BFF7A74791461
:105EF800E490023CF0A3F0D208D2097D3C7F48FE32
:105F08001258357BFF7A747920E490023CF0A3F0B4
:105F1800D208D2097D707F41FE1258357BFF7A7412
:105F2800792EE490023CF0A3F0D208D2097D807F5C
:105F380039FE1258357BFF7A74793FE490023CF0C1
:105F4800A3F0D208D2097D287FF8FE1258357BFFCE
:105F58007A747948E490023CF0A3F0D208D2097D23
:105F6800507FF8FE1258357BFF7A747951E490021D
:105F78003CF0A3F0D208D2097D787FF8FE1258359C
:105F88007BFF7A74795AE490023CF0A3F0D208D2ED
:105F9800097DA07FF8FE1258357BFF7A747963E497
:105FA80090023CF0A3F0D208D2097DC87FF8FE1217
:105FB800583590023574B8F0E4A3F0A3F0D2087B0A
:095FC800F0FA7D20FFFE02506892
:1087490090022DEFF024FE601014600D14601214D5
:10875900601224047011026B6F90022DE0FF027BFE
:088769003D0266951261362203
:1072600090021EEFF0ED24FC6038240360030273EB
:107270002C90021EE024FB60152404600302732C92
:10728000900041E030E402807012868B807890009C
:1072900041E030E40A12880D900041E054EFF00222
:1072A000732990021EE024FD600A14604514606397
:1072B0002403707890023B74B8F0E4A3F0A3F0D2FA
:1072C000087B407A017D20FFFE1276CB7BFF7A742B
:1072D000796CE490023CF0A3F0D208D2097D3C7FA7
:1072E00060FE12583590021EE004FF9000C4F002C8
:1072F0002927900041E030E403027AA1900041E0A8
:1073000020E60312868B900041E0540304FFD2066E
:107310000236BF900041E0FF30E60EEF30E40A1283
:0D732000880D900041E054EFF0125E6822ED
:1074B2009000CDE012286774D80075011075131181
:1074C200751D14752F1575464175554374E3507437
:1074D200ED5100007565900100E0FF1287490275C9
:1074E20065900100E0FF124AA38078900100E0FF5E
:1074F2009000CEE0FD9000FFE0FB127D9D80649045
:107502000100E0FF900041E0540304FD127260802C
:1075120052900100E0FF1287718048900100E0FF65
:10752200900041E0540304FD125FD18036900100C7
:10753200E0FF900041E0540304FDA217E433FB1284
:107542008394801F900100E0FF9000C4E0FD1230A0
:10755200038010900100E0FF900041E0540304FD1D
:097562001286F6E4900100F0220B
:10152300C201C202C203C2187B017A00793A7D0765
:101533001282CE3015069000D5E004F09000D5E07D
:10154300B4021F90023B7410F0E4A3F0A3F0D2089E
:101553007B4EFA7DC07FA4FE1276CBC215E49000C9
:10156300D5F090023974FFF0A37474F0A37478F08B
:10157300900035E0FF90023CE4F0A3EFF0900036DA
:10158300E0541FFF90023EE4F0A3EFF0900037E039
:10159300543FFF900240E4F0A3EFF07B017A00791F
:1015A30003123BBE7B017A007903E490023CF0A373
:1015B300F0D208D209FD7FF0FE125835900239743B
:1015C300FFF0A37474F0A37489F0900038E0543FE3
:1015D300FF90023CE4F0A3EFF0900039E0FF9002AB
:1015E3003EE4F0A3EFF090003AE0FF900240E4F015
:1015F300A3EFF07B017A007903123BBE7B017A00F3
:101603007903E490023CF0A3F0D208D2097D107F65
:10161300F8FE125835900041E0FF339204EF20E6C4
:10162300030218779000D1E0F8A3E0F9A3E0FAA34E
:10163300E0FB9000CBE0FEA3E0FFE4FCFDEB2FFF1B
:10164300EA3EFEED39FDEC38FC9000D11227EA901A
:101653000101E0F8A3E0F9A3E0FAA3E0FB90008C1A
:10166300E0FEA3E0FFE4FCFDEB2FFFEA3EFEED39D5
:10167300FDEC38FC9001011227EA9000D6E0F8A3B4
:10168300E0F9A3E0FAA3E0FB9000CFE0FEA3E0FFC4
:10169300E4FCFDEB2FFFEA3EFEED39FDEC38FC9058
:1016A30000D61227EA900044E004F0E0B43C19901D
:1016B3000043E004F0E4A3F0900043E0B43C09905D
:1016C3000042E004F0E4A3F090023974FFF0A37445
:1016D30074F0A37498F0900042E0FF90023CE4F0B1
:1016E300A3EFF0900043E0FF90023EE4F0A3EFF09D
:1016F300900044E0FF900240E4F0A3EFF07B017A16
:10170300007903123BBE7B017A007903E490023C2B
:10171300F0A3F0D208D2097DDC7FF8FE1258352001
:1017230004030217C7900041E030E422540C131362
:10173300543F04FFBF03047E0180027E00BF020406
:101743007F0180027F00EF4E6024D203802090004F
:1017530041E0540304FFBF03047E0180027E00BF07
:1017630002047F0180027F00EF4E6002D2039000EB
:1017730042E075F03CA4FFA3E02FFFD3900026E0E6
:101783009F900025E0940050047F0180027F003089
:1017930003047E0180027E00EF5E6028900041E03A
:1017A30030E40312880D900041E054EFF0D2029030
:1017B30000CDE06414600D900041E0540304FFD2B7
:1017C300061236BF900042E075F03CA4FFA3E02F61
:1017D300C39468E494014028900041E030E403128C
:1017E300880D900041E054EFF0D2019000CDE06409
:1017F30014600D900041E0540304FFD2061236BF7B
:10180300300454300251900041E0540304FFC206F7
:101813001236BF900041E0540304FD7F03125FD1F1
:10182300900041E0540304FD7B017F04128394C2C2
:101833008CC28E53D17FE4F58CF58AF58DF58BF54B
:10184300D2F5D312868B900041E0FE540304FFEEE1
:10185300A2E692061236BF30011A900041E054030B
:1018630004FFC2061236BF900041E0540304FD7F1B
:1018730003125FD19000CDE0FFB443047E018002E8
:101883007E00EFB414047F0180027F00EF4E7003EB
:10189300021FB512732D9000CDE064146003021C87
:1018A300FB900041E054030424FE70030219C014AA
:1018B30070030219CF147003021BFB24036003029D
:1018C3001FB590023974FFF0A37474F0A374A7F0EA
:1018D300E47B107A27F9F890004DE0FCA3E0FDA328
:1018E300E0FEA3E0FF12270C90023CEEF0A3EFF022
:1018F300E47B107A27F9F890004DE0FCA3E0FDA308
:10190300E0FEA3E0FF12270CAF0390023EEAF0A330
:10191300EFF07B017A007903123BBE900222EFF0D5
:10192300E0C454F0FFC3749C9FFF7E007B017A00E8
:101933007903E490023CF0A3F0D208D2097D8C1223
:10194300583590023974FFF0A37474F0A374A7F0B0
:10195300E47B107A27F9F8900101E0FCA3E0FDA3F2
:10196300E0FEA3E0FF12270C90023CEEF0A3EFF0A1
:10197300E47B107A27F9F8900101E0FCA3E0FDA3D2
:10198300E0FEA3E0FF12270CAF0390023EEAF0A3B0
:10199300EFF07B017A007903123BBEEFC454F0FFF2
:1019A300C374A49FFF7E007B017A007903E4900255
:1019B3003CF0A3F0D208D2097D74021FB29000213B
:1019C300E0FFA3E0900223CFF0A3EFF0900041E00B
:1019D300540304FFBF030F900023E0FFA3E0900232
:1019E30023CFF0A3EFF0900015E0FCA3E0FDA3E00C
:1019F300FEA3E0FF900085E0F8A3E0F9A3E0FAA3DB
:101A0300E0FBD31227AC501690021E1227F60000FB
:101A130000009000451227F600000000805190005E
:101A230019E0F8A3E0F9A3E0FAA3E0FB900085E056
:101A3300FCA3E0FDA3E0FEA3E0C39BFFEE9AFEED53
:101A430099FDEC98FC90021E1227EA900223E0FE17
:101A5300A3E0FBAA06E4F9F890021EE0FCA3E0FD74
:101A6300A3E0FEA3E0FF12270C9000451227EA90A3
:101A7300023974FFF0A37474F0A374A7F0E47B102D
:101A83007A27F9F8900045E0FCA3E0FDA3E0FEA36C
:101A9300E0FF12270C90023CEEF0A3EFF0E47B1082
:101AA3007A27F9F8900045E0FCA3E0FDA3E0FEA34C
:101AB300E0FF12270CAF0390023EEAF0A3EFF07BA6
:101AC300017A007903123BBE900222EFF0E0C45486
:101AD300F0FFC374B29FFF7E007B017A007903E4B9
:101AE30090023CF0A3F0D208D2097D6812583590D9
:101AF300001DE0FCA3E0FDA3E0FEA3E0FF90008E49
:101B0300E0F8A3E0F9A3E0FAA3E0FBD31227AC507B
:101B13001690021E1227F6000000009000491227BB
:101B2300F600000000805190001DE0F8A3E0F9A347
:101B3300E0FAA3E0FB90008EE0FCA3E0FDA3E0FE4F
:101B4300A3E0C39BFFEE9AFEED99FDEC98FC900297
:101B53001E1227EA900223E0FEA3E0FBAA06E4F9A3
:101B6300F890021EE0FCA3E0FDA3E0FEA3E0FF1259
:101B7300270C9000491227EA90023974FFF0A374EE
:101B830074F0A374A7F0E47B107A27F9F890004966
:101B9300E0FCA3E0FDA3E0FEA3E0FF12270C90020C
:101BA3003CEEF0A3EFF0E47B107A27F9F8900049BC
:101BB300E0FCA3E0FDA3E0FEA3E0FF12270CAF03CC
:101BC30090023EEAF0A3EFF07B017A007903123B27
:101BD300BE900222EFF0E0C454F0FFC374B29FFF43
:101BE3007E007B017A007903E490023CF0A3F0D2FB
:101BF30008D2097D9E021FB290023974FFF0A374CC
:101C030074F0A374A7F0E47B107A27F9F8900085A9
:101C1300E0FCA3E0FDA3E0FEA3E0FF12270C90028B
:101C23003CEEF0A3EFF0E47B107A27F9F8900085FF
:101C3300E0FCA3E0FDA3E0FEA3E0FF12270CAF034B
:101C430090023EEAF0A3EFF07B017A007903123BA6
:101C5300BE900222EFF0E0C454F0FFC374B29FFFC2
:101C63007E007B017A007903E490023CF0A3F0D27A
:101C730008D2097D6812583590023974FFF0A374B5
:101C830074F0A374A7F0E47B107A27F9F890008E20
:101C9300E0FCA3E0FDA3E0FEA3E0FF12270C90020B
:101CA3003CEEF0A3EFF0E47B107A27F9F890008E76
:101CB300E0FCA3E0FDA3E0FEA3E0FF12270CAF03CB
:101CC30090023EEAF0A3EFF07B017A007903123B26
:101CD300BE900222EFF0E0C454F0FFC374B29FFF42
:101CE3007E007B017A007903E490023CF0A3F0D2FA
:101CF30008D2097D9E021FB290023974FFF0A374CB
:101D030074F0A374A7F0E47B107A27F9F89001012B
:101D1300E0FCA3E0FDA3E0FEA3E0FF12270C90028A
:101D23003CEEF0A3EFF0E47B107A27F9F890010181
:101D3300E0FCA3E0FDA3E0FEA3E0FF12270CAF034A
:101D430090023EEAF0A3EFF07B017A007903123BA5
:101D5300BE7B017A007903E490023CF0A3F0D20841
:101D6300D2097D507F68FE12583590023974FFF016
:101D7300A37474F0A374A7F0E47B107A27F9F890A6
:101D830000D1E0FCA3E0FDA3E0FEA3E0FF12270CDB
:101D930090023CEEF0A3EFF0E47B107A27F9F89081
:101DA30000D1E0FCA3E0FDA3E0FEA3E0FF12270CBB
:101DB300AF0390023EEAF0A3EFF07B017A007903D0
:101DC300123BBE7B017A007903E490023CF0A3F05E
:101DD300D208D2097D647F88FE1258359002397487
:101DE300FFF0A37474F0A374A7F0E47B107A27F9CF
:101DF300F89000D6E0FCA3E0FDA3E0FEA3E0FF1211
:101E0300270C90023CEEF0A3EFF0E47B107A27F965
:101E1300F89000D6E0FCA3E0FDA3E0FEA3E0FF12F0
:101E2300270CAF0390023EEAF0A3EFF07B017A00A8
:101E33007903123BBE7B017A007903E490023CF004
:101E4300A3F0D208D2097D787F80FE125835900224
:101E53003974FFF0A37474F0A374A7F0E47B107AD1
:101E630027F9F890004DE0FCA3E0FDA3E0FEA3E01A
:101E7300FF12270C90023CEEF0A3EFF0E47B107A04
:101E830027F9F890004DE0FCA3E0FDA3E0FEA3E0FA
:101E9300FF12270CAF0390023EEAF0A3EFF07B01A1
:101EA3007A007903123BBE7B017A007903E4900246
:101EB3003CF0A3F0D208D2097D967F70FE1258350C
:101EC300900041E054030464047003021FB59002C0
:101ED3003974FFF0A37474F0A374A7F0E47B107A51
:101EE30027F9F8900085E0FCA3E0FDA3E0FEA3E062
:101EF300FF12270C90023CEEF0A3EFF0E47B107A84
:101F030027F9F8900085E0FCA3E0FDA3E0FEA3E041
:101F1300FF12270CAF0390023EEAF0A3EFF07B0120
:101F23007A007903123BBE7B017A007903E49002C5
:101F33003CF0A3F0D208D2097DAA7F90FE12583557
:101F430090023974FFF0A37474F0A374A7F0E47BD8
:101F5300107A27F9F890008EE0FCA3E0FDA3E0FEE1
:101F6300A3E0FF12270C90023CEEF0A3EFF0E47B1A
:101F7300107A27F9F890008EE0FCA3E0FDA3E0FEC1
:101F8300A3E0FF12270CAF0390023EEAF0A3EFF0A9
:101F93007B017A007903123BBE7B017A007903E46B
:101FA30090023CF0A3F0D208D2097DBE7F88FE12D6
:081FB300583530130312781DAC
:011FBB002203
:10887D00C2DEE4F5F9F5E943DA49900107749CF09D
:10888D00A37440F0900107E0FCA3E0FDECF5EA8D48
:04889D00FAD2DE220B
:10819400900041E054BFF012887DC28CC2B9C28DF8
:1081A400E58954FC4401F589438E80438904538F47
:1081B400FEE4F58CF58AD28CC28EC2BBC28DE589F1
:1081C40054CF4410F589438E40438940538FFDE4D6
:1081D400F58DF58BD28E53D17F43D12043D140F519
:1081E400D2F5D343D18075985075D78F75D6FD439A
:0D81F4008E04438E01438E10D2ACD2AF2218
:107D0800C2001281947B017A007911900234743296
:107D1800F0A3E4F0A37432F07F161280B27B017AEC
:107D2800007911E4900244F0A37432F07F161284B3
:107D380043127C711289489000C8E4F0A37406F0DD
:107D4800D201E4FBFA7D507F30FE127963E49000A3
:107D580041F0125E68C2F8900100E060031274B24C
:107D6800301803121523301B05C21B125B84200038
:107D7800E6900041E030E7DF7BFF7A747912E49007
:107D8800023CF0A3F0D208D2097D087FD8FE125831
:057D980035D20080C29D
:03003B000267D683
:1067D600C0E0C0F0C083C082C0D075D000C004C085
:0567E60005C006C0071C
:1067EB00C2DF20D8030268F8C2D8900108E0244029
:1067FB00F0900107E0349CF0E0FEA3E0F5EAEEF543
:10680B00FA900010E004F0900106E004F07006909E
:10681B000105E004F0900002E004F0C3900106E0F3
:10682B009432900105E09400405ED218E4F0A3F09E
:10683B0053D17FAFD2EFFEADD37C00E42DFFEC3E06
:10684B009000CBF0A3EFF075D20075D30043D1804D
:10685B00C28EAF8DEFFEAD8BE42DFFEC3E90008C26
:10686B00F0A3EFF0758D00758B00D28EC28CAF8CC0
:10687B00EFFEAD8AE42DFFEC3E9000CFF0A3EFF0DE
:10688B00758C00758A00D28C900002E0B40508D29A
:10689B00F8D2C9D2B6D2C8900010E06402704EF0A4
:1068AB00A2FD82FC82FE82FF82C5403D30113690F4
:1068BB000001E025E0F0900000E033F030162E12DE
:1068CB008605900100EFF0C2F8900002E4F0900012
:1068DB00CAE0B4060C900041E04480F0900100E463
:0D68EB00F0C2168008D2118004D216C2112E
:1068F800D007D006D005D004D0D0D082D083D0F035
:03690800D0E032AA
:10567300B2E220C1BF20C3A600C6E4CBFBB2E2C1A5
:10568300BFBDF8D0D0D6D02100B7B5BBD800B2E2A9
:10569300C1BFD6D00043503AD7DC3A2D2D2D00435D
:1056A300732D3133373A2D2D2D00492D3133313AB6
:1056B3002D2D2D0043504D3AD7DC3A2D2D2D00B220
:1056C300E220C1BF20D6D000D6D0D6B900CFEAC7DA
:1056D300E900424B473A25642530346400563A25A5
:1056E300646D6C004D3A253034646720563A256466
:1056F3006D6C0043732D3133373A00BEABB6C83AF5
:105703002D2D2500492D3133313A00CDEA20B3C97F
:1057130000B1A3B4E600D6D8B2E200543A00CAA757
:1057230020B0DC202100B2E2C1BFCAA7B0DC210057
:10573300B1BE20B5D720B2E220C1BF00BFAACABC08
:10574300B2E2C1BF003120C7EBBDABD7BCB1B8BA21
:10575300C3B5C4B4BFBEBBCBAEB5B9C8EBC8DDC619
:10576300F700C4DA2E003220B0B4BFAACABCBCFC16
:10577300C6F4B6AFB1BEB5D7B2E2C1BF2E0020CCDE
:10578300E520D1F920C6B720D0C520CFA200CAB1E9
:10579300BCE4B9FDB6CC210000000000000000000D
:1057A3000000B1BEB5D7B9FDB4F32100000000007D
:1057B300000000000000D0A3D7BCB2E2C1BFB4CE4A
:1057C300CAFDB9FDC9D921000000585858585820BE
:1057D3004300000058585858582043504D0058581B
:1057E300582042712F4C00005858582042712F4CBA
:1057F30000005858582042712F4B670058585820C2
:1058030042712F4B67005858582043504D000000F9
:105813005858582043504D000000B1BE20B5D70062
:10582300D2BA20CCE500B9CC20CCE500D0A320D758
:02583300BC00B7
:10868B00E4F5D2F5D3F58CF58AF58DF58B9000D109
:10869B001227F6000000009000D61227F60000000B
:1086AB00009001011227F600000000E4900042F058
:0C86BB00A3F0A3F0900041E04440F02246
:107AA10090023B74B8F0E4A3F0A3F0D2087B407AD3
:107AB100017D20FFFE1276CB7BFF7A567973E4902D
:107AC100023CF0A3F0D208D2097D3C7F50FE12584F
:107AD100357BFF7A56797CE490023CF0A3F0D20822
:107AE100D2097D807F3CFE1258357BFF7A56798C16
:107AF100E490023CF0A3F0D208D2097DC87F087E51
:107B0100011258357BFF7A567991E490023CF0A33B
:107B1100F0D208D2097D787F087E01125835900293
:107B21003574B8F0E4A3F0A3F0D2087BF0FA7D201D
:0C7B3100FFFE1250689000CD7411F0228D
:10877100EF24FB60172402701E900041E030E403F7
:1087810012880D900041E054EFF08004900041E028
:08879100540304FF1287492282
:106FA400900227EFF09000CD7443F090023B747888
:106FB400F0E4A3F0A3F0D2087B407A017D50FFFEF9
:106FC4001276CB7BFF7A56798CE490023CF0A3F0E6
:106FD400D208D2097DC87F087E0112583590023547
:106FE40074B8F0E4A3F0A3F0D2087BF0FA7D20FF9C
:106FF400FE1250687BFF7A567998E490023CF0A325
:10700400F0D208D2097D507F38FE1258357BFF7AC2
:107014005679A2E490023CF0A3F0D208D2097D6430
:107024007F50FE1258357BFF7A5679ADE490023CCE
:10703400F0A3F0D208D2097D787F50FE1258357B38
:10704400FF7A5679B7E490023CF0A3F0D208D20953
:107054007D967F38FE125835900227E06404603232
:107064007BFF7A5679A2E490023CF0A3F0D208D2D6
:10707400097DAA7F58FE1258357BFF7A5679ADE414
:1070840090023CF0A3F0D208D2097DBE7F58FE12D4
:037094005835224A
:0A36B500900041E0540304FFD20628
:0536BF0090022FEFF066
:1036C400200603023A9E43D1809000CD7414F0C2C8
:1036D4001290023B74B8F0E4A3F0A3F0D2087B404C
:1036E4007A017D20FFFE1276CB7BFF7A5679C2E405
:1036F40090023CF0A3F0D208D2097D3C7F6CFE120C
:1037040058357BFF7A5679CBE490023CF0A3F0D293
:1037140008D2097D787F087E011258357BFF7A56DE
:1037240079D0E490023CF0A3F0D208D2097D507F16
:10373400087E011258357BFF7A56798CE490023C5E
:10374400F0A3F0D208D2097DC87F087E0112583553
:1037540090023974FFF0A37456F0A374D5F0E47B9F
:10376400107A27F9F8900015E0FCA3E0FDA3E0FE31
:10377400A3E0FF12270C90023CEEF0A3EFF0E47BF1
:10378400107A27F9F8900015E0FCA3E0FDA3E0FE11
:10379400A3E0FF12270CAF0390023EEAF0A3EFF080
:1037A4007B017A007903123BBE7B017A007903E442
:1037B40090023CF0A3F0D208D2097DDCFFFE12583F
:1037C40035D20790022FE024FE6028146062147042
:1037D40003023886240360030238847BFF7A567917
:1037E40091E490023CF0A3F0D208D2097DDC7F2062
:1037F40002387E90023974FFF0A37456F0A374E08B
:10380400F0900021E0FFA3E090023CCFF0A3EFF0A2
:103814007B017A007903123BBE7B017A007903E4D1
:1038240090023CF0A3F0D208D2097DDC7F82804A6A
:1038340090023974FFF0A37456F0A374E7F090007B
:1038440023E0FFA3E090023CCFF0A3EFF09000212F
:10385400E0FFA3E090023ECFF0A3EFF07B017A00FB
:1038640079DA123BBE7B017A0079DAE490023CF00B
:10387400A3F0D208D2097DDC7F60FE1258358002A5
:10388400C20730072590022FE075F006A42417F92B
:10389400745835F0FA7BFFE490023CF0A3F0D208B0
:1038A400D2097D3C7F3CFE12583590022FE0FF6424
:1038B40001704CEF1425E075F00AA424CDF9745777
:1038C40035F0FA7BFFE490023CF0A3F0D208D20971
:1038D4007D747F54FE12583590022FE01425E07554
:1038E400F00AA424D7F9745735F0FA7BFFE4900268
:1038F4003CF0A3F0D208D2097D8C7F4C023A979019
:10390400022FE01425E075F00AA424CDF97457358C
:10391400F0FA7BFFE490023CF0A3F0D208D2097DD8
:10392400687F74FE12583590022FE01425E075F07C
:103934000AA424D7F9745735F0FA7BFFE490023CCB
:10394400F0A3F0D208D2097D9E7F74FE1258357B15
:10395400FF7A5679F6E490023CF0A3F0D208D2093B
:103964007D567F24FE1258357BFF7A5679FEE4900B
:10397400023CF0A3F0D208D2097D787F28FE1258C9
:103984003590023974FFF0A37456F0A374D5F0E4B3
:103994007B107A27F9F8900019E0FCA3E0FDA3E07E
:1039A400FEA3E0FF12270C90023CEEF0A3EFF0E43C
:1039B4007B107A27F9F8900019E0FCA3E0FDA3E05E
:1039C400FEA3E0FF12270CAF0390023EEAF0A3EF40
:1039D400F07B017A0079DA123BBE7B017A0079DA56
:1039E400E490023CF0A3F0D208D2097D787F78FEFF
:1039F4001258357BFF7A577907E490023CF0A3F024
:103A0400D208D2097D907F2CFE1258357BFF7A565E
:103A140079FEE490023CF0A3F0D208D2097DB47F91
:103A240028FE12583590023974FFF0A37456F0A39F
:103A340074D5F0E47B107A27F9F890001DE0FCA31C
:103A4400E0FDA3E0FEA3E0FF12270C90023CEEF0A1
:103A5400A3EFF0E47B107A27F9F890001DE0FCA3B3
:103A6400E0FDA3E0FEA3E0FF12270CAF0390023EAB
:103A7400EAF0A3EFF07B017A0079DA123BBE7B0116
:103A84007A0079DAE490023CF0A3F0D208D2097DFE
:103A9400B47F78FE125835023B299000CD7415F09E
:103AA4007BFF7A57790EE490023CF0A3F0D208D25F
:103AB400097D3C7F9CFE1258357BFF7A5679D0E411
:103AC40090023CF0A3F0D208D2097D507F087E0119
:103AD4001258357BFF7A577914E490023CF0A3F036
:103AE400D208D2097DA07F087E011258357BFF7A67
:103AF400577919E490023CF0A3F0D208D2097D78FA
:103B04007F087E0112583590022FE0B4011790020D
:103B14003B7410F0E4A3F0A3F0D2087B50FA7DDCF0
:103B2400FFFE1276CB7BFF7A57791EE490023CF0BD
:103B3400A3F0D208D2097DDC7FE8FE12583590024A
:103B44003574B8F0E4A3F0A3F0D2087BF0FA7D203A
:053B5400FFFE025068B5
:055FD100900225EDF037
:105FD600EF24FD601624FE700302611024036003A3
:105FE600026135900225E0FF026FA4900041E05463
:105FF600BFF0A3E075F03CA4FFA3E02FFFD3900011
:1060060026E09F900025E0940050030260FCC21732
:10601600E4900226F09000CD7415F090023B74785F
:10602600F0E4A3F0A3F0D2087B407A017D50FFFE96
:106036001276CB900226E075F014A42491F97457D9
:1060460035F0FA7BFFE490023CF0A3F0D208D209C7
:106056007D907F50FE1258357BFF7A577921E49068
:10606600023CF0A3F0D208D2097D607F60FE125890
:10607600357BFF7A577919E490023CF0A3F0D208F9
:10608600D2097D787F087E011258357BFF7A5679D2
:106096008CE490023CF0A3F0D208D2097DC87F08B8
:1060A6007E011258357BFF7A5679D0E490023CF097
:1060B600A3F0D208D2097D507F087E011258359090
:1060C6000225E0B401197BFF7A577929E490023C56
:1060D600F0A3F0D208D2097DDC7F20FE125835905D
:1060E600023574B8F0E4A3F0A3F0D2087BF0FA7D91
:1060F60020FFFE025068900041E0FE540304FFEECC
:10610600A2E692061236BFD21722900041E020E6A0
:10611600047E0180027E00900225E0FFB404047D27
:0F6126000180027D00ED4E6003028749125E6822
:016135002247
:10839400900225EDF0A3EBF0EF24FD60121460379A
:1083A40014604224037046900225E0FF026FA41279
:1083B400868B90023B7418F0E4A3F0A3F0D2087B00
:1083C400407A017DD8FFFE1276CB900041E0540341
:1083D40004FFD2060236BF900226E0601090022508
:0E83E400E0FF028575900225E0FF1287492216
:1086F600EF24FB7024AF05D2061236BF900041E08E
:1087060020E6169000CD7414F0121523900041E077
:0A871600540304FD7F03125FD1221B
:106B6F00900041E030E61430E607540304FFBF0104
:106B7F000A900041E020E403026C959000CD741060
:106B8F00F0900041E0FF20E41830E60E5403046457
:106B9F00016007E04410F01287E7900041E054FCD9
:106BAF00F090023B74B8F0E4A3F0A3F0D2087B405E
:106BBF007A017D20FFFE1276CB900041E020E6188F
:106BCF0090023B7418F0E4A3F0A3F0D2087B407A54
:106BDF00017DD8FFFE1276CB7BFF7A577933E49095
:106BEF00023CF0A3F0D208D2097D3C7F48FE125838
:106BFF00357BFF7A57793FE490023CF0A3F0D2083F
:106C0F00D2097D287FF8FE1258357BFF7A56798C92
:106C1F00E490023CF0A3F0D208D2097DC87F087E31
:106C2F00011258357BFF7A577948E490023CF0A364
:106C3F00F0D208D2097D707F08FE1258357BFF7A9B
:106C4F00577965E490023CF0A3F0D208D2097D8217
:106C5F007F18FE1258357BFF7A577969E490023C12
:106C6F00F0A3F0D208D2097D947F08FE1258359018
:106C7F00023574B8F0E4A3F0A3F0D2087BF0FA7DEC
:0A6C8F0020FFFE0250681236B52205
:107B3D0090022EEFF0900041E030E61530E60B5448
:107B4D000304FF90022EE0B50707900041E030E4FA
:107B5D0077900041E020E43730E615540304FF90A0
:107B6D00022EE06F600A900041E04410F01287E7AA
:107B7D0090022EE0FD900041B40208E054FD440156
:107B8D00F08006E054FE4402F0ED149000C4F09035
:107B9D00023B74B8F0E4A3F0A3F0D2087B407A0165
:107BAD007D20FFFE1276CB7BFF7A577981E4900220
:107BBD003CF0A3F0D208D2097D3C7F46FE12583529
:0C7BCD009000C4E0FF0229271236B52208
:10732D00900042E0FF7E007C0E7D101225C3AC065E
:10733D00AD07A3E075F03CA42DFFEC35F0FEA3E006
:10734D007C002FFFEC3E900225F0A3EFF0E47F3C94
:10735D00FEFD900101E0F8A3E0F9A3E0FAA3E0FB44
:10736D00122681C006C007900225E0FEA3E0FBAA0D
:10737D0006E4F9F8D007D00612270C90004D12271D
:10738D00EAE47F3CFEFDFC9000D6E0F8A3E0F9A313
:10739D00E0FAA3E0FB122681C006C007900225E0AB
:1073AD00FEA3E0FBAA06E4F9F8D007D00612270CDD
:1073BD0090008E1227EAE47F3CFEFDFC9000D1E0A8
:1073CD00F8A3E0F9A3E0FAA3E0FB122681C006C002
:1073DD0007900225E0FEA3E0FBAA06E4F9F8D0072A
:0B73ED00D00612270C9000850227EA52
:10654500D2BA00CCE5BBFD3A006D6C002530346451
:1065550000B9CC00D6CAC1BF3A0067002530346403
:1065650025632530346400B2E220C1BF00B2E2C128
:10657500BFCAB1BCE43A00B2E2C1BFBEABB6C83ACD
:1065850000B1A8BEAFE3D0D6B53A00B7D6D6D30092
:10659500250042712F4C0042712F4B670025303486
:1065A50064256325303264256325303464256325ED
:1065B50030346400CFB520CDB30043732D3133376C
:1065C5003A0020492D3133313A00CAB12020BCE4CC
:1065D5003A20002020202048563A20002020204143
:1065E5004D503A2000252E32662563252E3266252C
:1065F50063253032782F253032782F2530327825B3
:1066050063253032783A2530327825632530346475
:10661500256325303464002B0023002D00B7B5BB5E
:10662500D800C8B7C8CF00256600256400257800C6
:10663500D0DEB8C4B3C9B9A62100B2E2C1BFB2CE9B
:10664500CAFD00CFB5CDB3B2CECAFD00B2E2C1BF1F
:10665500D6D000D2C7C6F7D0A3D7BC00B2CE20CAC9
:10666500FD20C9E820D6C320D1A120D4F100B0B4C3
:10667500CFC2D3D2B2E0B0B4BCFCBDF8C8EBCFE01A
:1066850000D3A6B2CECAFDB5F7D5FBD2B3C3E6009B
:108201009000CD7441F0900089E024DAF582E434E5
:1082110000F583E0900003F0E4A3F09000C5E0FFD7
:108221007E009000C6E0FD7B017A0079DAE49002DD
:108231003CF0A3F0D208D20912583590008AE0FF31
:108241009000C5E02FFF7E0090008BE0FD9000C6FE
:10825100E02DFD7B017A007903E490023CF0A3F06C
:07826100C208C209025835F2
:1029270090022FEFF0E4900089F090008BF0900078
:102937008AF0900041E020E61890023B7418F0E41A
:10294700A3F0A3F0D2087B407A017DD8FFFE127670
:10295700CB90022FE024FE7003022A0014700302BA
:102967002B2B147003022CD124036003022F6D7BE1
:10297700FF7A657945E490023CF0A3F0D208D209CA
:102987007D3C7F30FE1258357BFF7A657948E490AD
:10299700023CF0A3F0D208D2097D707F40FE1258A6
:1029A700357BFF7A65794EE490023CF0A3F0D208BC
:1029B700D2097D707F88FE125835D3900022E094AB
:1029C70009900021E0940040157B017A0079159069
:1029D70002447436F0A3740EF07F161284439002FB
:1029E7003974FFF0A37465F0A37451F0900021E0EF
:1029F700FFA3E090023C022AF07BFF7A657956E458
:102A070090023CF0A3F0D208D2097D3C7F30FE1241
:102A170058357BFF7A657959E490023CF0A3F0D2F0
:102A270008D2097D707F40FE1258357BFF7A6579A1
:102A370048E490023CF0A3F0D208D2097D847F409D
:102A4700FE1258357BFF7A65795FE490023CF0A36C
:102A5700F0D208D2097D707F88FE1258357BFF7A45
:102A670065794EE490023CF0A3F0D208D2097D8448
:102A77007F88FE125835D3900024E09409900023F4
:102A8700E0940040157B017A007915900244743672
:102A9700F0A3740EF07F16128443D3900022E094C3
:102AA7000F900021E0942740157B017A007921904F
:102AB70002447444F0A37402F07F16128443900218
:102AC7003974FFF0A37465F0A37461F0900023E0FC
:102AD700FFA3E090023CCFF0A3EFF0A3740DF090BA
:102AE7000021E0FFA3E090023FCFF0A3EFF07B01CE
:102AF7007A0079DA123BBE90000FEFF07B017A0083
:102B070079DAE490023CF0A3F0D208D2097D707F15
:102B170068FE1258359000C57468F09000C674704E
:102B2700F0022F6D7BFF7A65796CE490023CF0A38D
:102B3700F0D208D2097D3C7F30FE1258357BFF7AF0
:102B4700657972E490023CF0A3F0D208D2097D6067
:102B57007F30FE1258357BFF7A65797CE490023C22
:102B6700F0A3F0D208D2097D747F30FE1258357B6E
:102B7700FF7A657986E490023CF0A3F0D208D20987
:102B87007D887F30FE1258357BFF7A657990E49017
:102B9700023CF0A3F0D208D2097D607FACFE125848
:102BA700357BFF7A657995E490023CF0A3F0D20873
:102BB700D2097D747FA4FE1258357BFF7A65799719
:102BC700E490023CF0A3F0D208D2097D887FB4FEDE
:102BD7001258357BFF7A65799CE490023CF0A3F0AC
:102BE700D208D2097D9C7FB4FE125835D3900026B7
:102BF700E0940F900025E0942740157B017A007937
:102C0700259002447446F0A37402F07F16128443A1
:102C1700900027E0FF7463C39F50157B017A00790A
:102C2700279002447448F0A37401F07F161284437E
:102C3700D390002AE0940F900029E0942740157B59
:102C4700017A007929900244744AF0A37402F07F54
:102C570016128443D390002CE0940F90002BE0943D
:102C67002740157B017A00792B900244744CF0A31E
:102C77007402F07F1612844390023974FFF0A37434
:102C870065F0A374A2F0900025E0FFA3E090023C5A
:102C9700CFF0A3EFF0A3740DF0900027E0FF9002B0
:102CA7003FE4F0A3EFF0A3740DF0900029E0FFA339
:102CB700E0900242CFF0A3EFF0A3740DF090002B49
:102CC700E0FFA3E0900245022F357BFF7A6579B9D3
:102CD700E490023CF0A3F0D208D2097D3C7F30FE9D
:102CE7001258357BFF7A6579BFE490023CF0A3F078
:102CF700D208D2097D607F38FE1258357BFF7A658E
:102D070079C7E490023CF0A3F0D208D2097D747F22
:102D170038FE1258357BFF7A6579CFE490023CF094
:102D2700A3F0D208D2097D887F38FE1258357BFF81
:102D37007A6579D8E490023CF0A3F0D208D2097DF5
:102D4700B07F38FE1258357BFF7A6579E1E490024F
:102D57003CF0A3F0D208D2097DC47F38FE12583563
:102D670090002DE0FCA3E0FDA3E0FEA3E0FFE4FB61
:102D7700FAF9F8122154600840067F01C007800461
:102D87007F00C00790002DE0FCA3E0FDA3E0FEA3B9
:102D9700E0FFE4FBFA7980783F12215450047E016A
:102DA70080027E00D0E04E60157B017A00792D907D
:102DB7000244744EF0A37404F07F1612844390000B
:102DC70031E0FCA3E0FDA3E0FEA3E0FFE4FBFAF99A
:102DD700F8122154600840067F01C00780047F0075
:102DE700C007900031E0FCA3E0FDA3E0FEA3E0FFF5
:102DF700E4FBFA7980783F12215450047E01800267
:102E07007E00D0E04E60157B017A00793190024454
:102E17007452F0A37404F07F1612844390003BE0D1
:102E2700FEA3E0FFC3942CEE940150047D018002C1
:102E37007D00D3EF9484EE940340047F0180027FEA
:102E470000EF4D60157B017A00793B900244745C7A
:102E5700F0A37402F07F16128443D390003EE094EF
:102E67000F90003DE0942740157B017A00793D9053
:102E77000244745EF0A37402F07F1612844390023A
:102E87003974FFF0A37465F0A374EAF090002DE0A5
:102E9700FCA3E0FDA3E0FEA3E0FF90023C1227EABB
:102EA700900240740DF0900031E0FCA3E0FDA3E038
:102EB700FEA3E0FF9002411227EA900245740DF04D
:102EC700900035E0FF900246E4F0A3EFF090003663
:102ED700E0541FFF900248E4F0A3EFF0900037E0C2
:102EE700543FFF90024AE4F0A3EFF0A3740DF09073
:102EF7000038E0543FFF90024DE4F0A3EFF090005C
:102F070039E0547FFF90024FE4F0A3EFF0A3740D74
:102F1700F090003BE0FFA3E0900252CFF0A3EFF068
:102F2700A3740DF090003DE0FFA3E0900255CFF0B1
:102F3700A3EFF07B017A0079DA123BBE90000FEF26
:102F4700F07B017A0079DAE490023CF0A3F0D20832
:102F5700D2097D607F84FE1258359000C57484F0D5
:102F67009000C67460F07BFF7A66791CE4900239A2
:102F7700F0A3F0D2067D287F147E01126A497BFFF9
:102F87007A66791EE4900239F0A3F0D2067D507F6D
:102F9700147E01126A497BFF7A667920E490023930
:102FA700F0A3F0D2067D787F147E01126A497BFF79
:102FB7007A667922E490023CF0A3F0D208D2097D28
:102FC700C87F087E011258357BFF7A667927E4901F
:102FD700023CF0A3F0D208D2097DA07F087E01123F
:102FE700583590023574B8F0E4A3F0A3F0D2087B0B
:0C2FF700F0FA7D20FFFE125068028201FB
:0530030090021EEDF03B
:10300800EF24FE70030230921460491470030231F9
:103018004614700302367B240460030236B4900021
:1030280089E0FF24DAF582E43400F583E004F074E3
:10303800DA2FF582E43400F583E0FF7439C39F503A
:1030480046900089E024DAF582E43400F583743090
:10305800F0023143900089E0FF24DAF582E434007D
:10306800F583E014F074DA2FF582E43400F583E098
:10307800FF7430D39F4010900089E024DAF582E491
:103088003400F5837439F0023143900089E004F08C
:1030980090008AE02408F090000FE0FF900089E09B
:1030A800C39F400AE4F090008AF090008BF09000F3
:1030B80089E024DAF582E43400F583E0FFB42F04D4
:1030C8007E0180027E00EFB40D047F0180027F0044
:1030D800EF4EFF900089E024DAF582E43400F583AE
:1030E800E0FEB42E047D0180027D00ED4FFFEEB4BA
:1030F8003A047E0180027E00EE4F603F900089E036
:1031080024DAF582E43400F583E0B40D2190008BD5
:10311800E02414F090021EE09074AD93FF90008BB1
:10312800E0C39F4002E4F0E490008AF0800790003A
:103138008AE02408F0900089E004F0028201E4901B
:103148000223F090021EE024FE6013147003023282
:1031580084147003023284240360030236B490009E
:1031680041E030E40302328112868B90021EE09027
:103178000228B4020D7401F0A37400F0A37423F0C4
:10318800800B7401F0A37400F0A37421F0E49002A2
:103198001FF0A3F090000FE0FF90021FE0FEC39F16
:1031A800400302322A74DA2EF582E43400F583E013
:1031B800B40D4490023074FFF0A37465F0A3745109
:1031C800F0900228E0F9A3E0FAA3E0900233C9F0F6
:1031D800A3EAF0A3E9F07B017A0079031247D290C1
:1031E8000229E475F00212260B90022074FFF09079
:1031F8000223E004F0801E90021FE024DAF582E446
:103208003400F583E0FF900220E02403F582E434E3
:1032180000F583EFF090021FE004F0A3E004F00251
:10322800319C90023074FFF0A37465F0A37451F0E0
:10323800900228E0F9A3E0FAA3E0900233C9F0A3D2
:10324800EAF0A3E9F07B017A0079031247D29002F1
:1032580023E004F07B017A0079239002347410F0A3
:10326800A3E4F0A37408F07F161280B2900041E046
:10327800540304FFD2060236BF027AA190021EE070
:10328800900228B4030D7401F0A37400F0A3742510
:10329800F0800B7401F0A37400F0A3742DF0E49097
:1032A800021FF0A3F090000FE0FF90021FE0FEC3A2
:1032B8009F400302354C74DA2EF582E43400F5831E
:1032C800E0FFB42F047E0180027E00EFB40D047F7E
:1032D8000180027F00EF4EFF90021FE024DAF582A2
:1032E800E43400F583E0B43A047E0180027E00EE07
:1032F8004F7003023521900228E0FBA3E0FAA3E017
:10330800F9EB8A8389826401700A742D65827004DE
:103318007400658370047F0180027F00900228E0BA
:10332800FBA3E0FAA3E0F9EB8A8389826401700ABF
:103338007431658270047400658370047E018002B4
:103348007E00EE4F6054900220E0FFC394085014B2
:1033580074032FF582E43400F583E4F0900220E052
:1033680004F080E290023074FFF0A37466F0A37456
:103378002CF0900228E0F9A3E0FAA3E0900233C908
:10338800F0A3EAF0A3E9F07B017A0079031247D2AF
:10339800900229E475F004023510900228E0FBA39E
:1033A800E0FAA3E0F9EB8A8389826401700A742544
:1033B80065827004740065836040900228E0FBA376
:1033C800E0FAA3E0F9EB8A8389826401700A742920
:1033D80065827004740065836020900228E0FBA376
:1033E800E0FAA3E0F9EB8A8389826401700A743BEE
:1033F80065827004740065837054900220E0FFC3F6
:103408009408501474032FF582E43400F583E4F033
:10341800900220E004F080E290023074FFF0A37480
:1034280065F0A37451F0900228E0F9A3E0FAA3E054
:10343800900233C9F0A3EAF0A3E9F07B017A00799E
:10344800031247D2900229E475F002023510900267
:1034580020E0FFC39408501474032FF582E434006D
:10346800F583E4F0900220E004F080E290021EE090
:10347800900230B4030C74FFF0A37466F0A3742FA9
:10348800800A74FFF0A37466F0A37432F0A3740189
:10349800F0A37402F0A3742BF07B017A0079031275
:1034A80047D290022BA3E0FF900228E0FBA3E0FAAA
:1034B800A3E0F9EF1225B1900228E0FBA3E0FAA3FC
:1034C800E0F9EB8A8389826401700A743A65827034
:1034D80004740065836020900228E0FBA3E0FAA34F
:1034E800E0F9EB8A8389826401700A742765827027
:1034F8000474006583700A900229E475F0011226AD
:103508000B900229E475F00112260B90022074FF3B
:10351800F0900223E004F0801E90021FE024DAF508
:1035280082E43400F583E0FF900220E02403F58272
:10353800E43400F583EFF090021FE004F0A3E00408
:10354800F00232AD900223E004F090023074FFF0F4
:10355800A37465F0A37451F0900228E0F9A3E0FA8F
:10356800A3E0900233C9F0A3EAF0A3E9F07B017A63
:103578000079031247D290021EE0B403139002218F
:103588007414F0A37408F09002247404F002363224
:10359800900036E0D3941140037412F0900037E0A5
:1035A800D3943040037431F0900038E0D394224033
:1035B800037423F0900039E0D3945840037459F011
:1035C8007B017A0079397D061284DF90003BE0FCAC
:1035D800A3E0FDE41221C6A804A905AA06AB077F4B
:1035E800667E967D9C7C44121FBF7BE57AD0799AD3
:1035F800783F1220B71221FF900109EEF0A3EFF0F7
:103608007B017A0179097F007E041263EF7B017ADE
:1036180000793D7F007E04126299900221741CF0AB
:10362800A37412F09002247409F0900225E0FBA321
:10363800E0FAA3E0F9900221E0900234F09002222F
:10364800E0FF900235E4F0A3EFF07F161280B27B22
:10365800FF7A667935E490023CF0A3F0D208D209EB
:103668007DC07FA4FE12583590021EE0FF12292764
:10367800D2152290021EE024FE600A14602914600C
:103688002624037027900041E0FF70047E01800229
:103698007E00EE20E607EF30E40312880D9000412B
:0C36A800E054EFF0025E687F04128749D6
:0136B40022F3
:106695009000CD7410F0900041E0FF30E60E5403F9
:1066A5000464046007E04410F01287E7900041E0BD
:1066B5004403F090023B74B8F0E4A3F0A3F0D208D1
:1066C5007B407A017D20FFFE1276CB900041E07081
:1066D500047F0180027F00EF30E61890023B7418BA
:1066E500F0E4A3F0A3F0D2087B407A017DD8FFFE49
:1066F5001276CB90023574B8F0E4A3F0A3F0D2087B
:106705007BF0FA7D20FFFE1250687BFF7A66793FA9
:10671500E4900234F0A3F0D2067D507FF8FE126CAF
:10672500997BFF7A667948E4900234F0A3F0D206AB
:106735007D787FF8FE126C99900041E030E61A20D2
:10674500E4177BFF7A667951E4900234F0A3F0D226
:10675500067DA07F047E0180147BFF7A667958E46C
:10676500900234F0A3F0D2067DA07FF8FE126C995A
:106775007BFF7A667922E490023CF0A3F0D208D23E
:10678500097DC87F087E011258357BFF7A667961DD
:10679500E490023CF0A3F0D208D2097D3C7F30FEA4
:1067A5001258357BFF7A667973E4900234F0A3F0D2
:1067B500D2067D707F10FE126C997BFF7A66798612
:1067C500E4900234F0A3F0D2067D887F10FE026CBF
:0167D500992A
:107620002532642F253264002532642025303264EF
:107630002F253032782F253032782020202020202E
:10764000202020253032783A253032780043504DC2
:107650003A25642530346400543A253032643A25A2
:107660003032643A253032640043732D3133373A77
:107670002564253034646442672F4B6700492D31FF
:1076800033373A2564253034646442672F4B6700F2
:10769000C0FA20CAB720BCC720C2BC00B7B5BBD84F
:1076A000003C5F003D3E00B5BCB3F600C9BEB3FD73
:1076B000002300B1A3B4E6CAA7B0DC2100C8B7C854
:0B76C000CF0020C9BEB3FD203F20001A
:046E93004102700048
:0B7FC2009000FFE0FF9000CEE014FDF7
:107FCD0090022EEFF0A3EDF07B017A00793FE49063
:107FDD000244F0A37402F0E4FF128443900239745A
:107FED00FFF0A37476F0A37420F090022FE025E04B
:107FFD00FF90022EE02F04FF90023CE4F0A3EFF07F
:10800D0090003FE0FFA3E090023ECFF0A3EFF07BA6
:10801D00017A007903123BBE7B017A007903E4906B
:10802D00023CF0A3F0D208D2097D287FC8FE025889
:01803D00350D
:0B59E000900237EBF0A3EAF0A3E9F01F
:1059EB00E490023EF0EF1425E0FF90023AE0FBA3B7
:1059FB00E0FAA3E0F9EF1225B17B017A007951E4CB
:105A0B00900244F0A37408F0E4FF12844390005119
:105A1B00E0FF90003FE4F0A3EFF0900057803C9044
:105A2B00023EE0FF7B017A0079589002447407F044
:105A3B00A37402F012844390023AE0FBA3E0FAA3B2
:105A4B00E0F9122549FF900059E0FEEFC39E50028A
:105A5B008010C3EF9E1225B1900058E090023EF0EB
:105A6B0080BD900058E090023FF090023EE0FF7B3B
:105A7B00017A02793D9002447409F0A37401F0128B
:105A8B00844390023DE075F019A42424F090023772
:105A9B00E0FBA3E0FAA3E0F9E41225B1900237E0B2
:105AAB00FBA3E0FAA3E0F9122549FF64027003029D
:105ABB005B8390023AE0FBA3E0FAA3E0F9122549DD
:105ACB007076EF75F019A42451F9740035F0FA7B58
:105ADB000190023DE024E8900244F0A37419F09089
:105AEB00023EE0FF128443900237E0FBA3E0FAA3EF
:105AFB00E0F912254975F019A42469F582E4340004
:105B0B00F583E090023DF0740112258F90023DE089
:105B1B00F4705790023FE0FFF4605D7B017A0279ED
:105B2B003D9002447409F0A37401F0128443900277
:105B3B003FE090023EF0803290023AE0FBA3E0FAA5
:105B4B00A3E0F974FF12258F90023EE0FF7B017AF0
:105B5B0000795190023DE0900244F0A37401F012E1
:105B6B008443900051E090023DF090023DE075F0CF
:085B7B0019A42424F0025AA72A
:015B830022FF
:055CFE0035F0FA7B0106
:0B5D0300900236EBF0A3EAF0A3E9F0F9
:105D0E00A37405F0A3E0F8A3E0F9A3E0FAA3E0FB87
:105D1E00C001C002C003900236E0FBA3E0FAA3E08C
:105D2E00F9122549FFD003D002D001EB4FFFEAFE56
:105D3E00E9FDE8FC90023A1227EA90023AE0FCA351
:105D4E00E0FDA3E0FEA3E0FF78081227BD90023A23
:105D5E001227EA900237E475F00112260B90023AF0
:105D6E00E0F8A3E0F9A3E0FAA3E0FBC001C002C093
:105D7E0003900236E0FBA3E0FAA3E0F9122549FFF7
:105D8E00D003D002D001EB4FFFEAFEE9FDE8FC9014
:105D9E00023A1227EA90023AE0FCA3E0FDA3E0FEED
:105DAE00A3E0FF78081227BD90023A1227EA90026C
:105DBE0037E475F00112260B90023AE0F8A3E0F9F1
:105DCE00A3E0FAA3E0FBC001C002C003900236E0DC
:105DDE00FBA3E0FAA3E0F9122549FFD003D002D0CD
:105DEE0001EB4FFFEAFEE9FDE8FC90023A1227EACA
:105DFE0090023AE0FCA3E0FDA3E0FEA3E0FF7808EA
:105E0E001227BD90023A1227EA900237E475F0018C
:105E1E0012260B90023AE0F8A3E0F9A3E0FAA3E011
:105E2E00FBC001C002C003900236E0FBA3E0FAA360
:105E3E00E0F9122549FFD003D002D001EB4FFFEA63
:105E4E00FEE9FDE8FC90023A1227EA90023AE0FCE5
:095E5E00A3E0FDA3E0FEA3E0FFB8
:015E67002218
:0543E4009000CEE0FF97
:0543E90090022EEFF030
:1043EE00E4900234F07B0190023A04F0A37402F0E0
:1043FE00A37433F07A0279351259E090023B74704F
:10440E00F0E4A3F0A3F0D2087BC8FA7D607F10FE23
:10441E001276CB900234E0FFA3E06F7003024748A0
:10442E0090023974FFF0A37476F0A37428F0900212
:10443E002EE01425E0FF900234E0FE2F04FD9002E2
:10444E003CE4F0A3EDF0EE75F019A42451F582E4EE
:10445E003400F583E0FF90023EE4F0A3EFF090020B
:10446E0034E0FF75F019A42452F582E43400F5838C
:10447E00E0FD900240E4F0A3EDF0EF75F019A424F6
:10448E0053F582E43400F583E0FF900242E4F0A39A
:10449E00EFF0900234E0FF75F019A42454F582E495
:1044AE003400F583E0FD900244E4F0A3EDF0EF75E7
:1044BE00F019A42455F582E43400F583E0FF900250
:1044CE0046E4F0A3EFF07B017A0079DA123BBE905E
:1044DE000234E0C4333354C02450FD7B017A00799A
:1044EE00DAE490023CF0A3F0D208D2097F10FE125B
:1044FE005835900234E075F019A42461F974001255
:10450E005CFE90022F1227EA90023974FFF0A3741A
:10451E0076F0A3744DF0E47B107A27F9F890022F11
:10452E00E0FCA3E0FDA3E0FEA3E0FF12270C900247
:10453E003CEEF0A3EFF0E47B107A27F9F890022F0F
:10454E00E0FCA3E0FDA3E0FEA3E0FF12270CAF0307
:10455E0090023EEAF0A3EFF07B017A0079DA123B8B
:10456E00BE900234E0C4333354C02460FD7B017A24
:10457E000079DAE490023CF0A3F0D208D2097F2849
:10458E00FE12583590023974FFF0A37476F0A374BE
:10459E0058F0900234E0FF75F019A42456F582E429
:1045AE003400F583E0FD90023CE4F0A3EDF0EF75EE
:1045BE00F019A42457F582E43400F583E0FF90024D
:1045CE003EE4F0A3EFF0900234E075F019A4245805
:1045DE00F582E43400F583E0FF900240E4F0A3EFAF
:1045EE00F07B017A0079DA123BBE900234E0C433DC
:1045FE003354C02460FD7B017A0079DAE490023CEA
:10460E00F0A3F0D208D2097F88FE125835900234FA
:10461E00E075F019A42459F97400125CFE90022F73
:10462E001227EA90023974FFF0A37476F0A374692E
:10463E00F0E47B107A27F9F890022FE0FCA3E0FD5E
:10464E00A3E0FEA3E0FF12270C90023CEEF0A3EFD6
:10465E00F0E47B107A27F9F890022FE0FCA3E0FD3E
:10466E00A3E0FEA3E0FF12270CAF0390023EEAF098
:10467E00A3EFF07B017A0079DA123BBE900234E0B0
:10468E00C4333354C02470FD7B017A0079DAE49090
:10469E00023CF0A3F0D208D2097F28FE12583590C2
:1046AE000234E075F019A4245DF97400125CFE90DA
:1046BE00022F1227EA90023974FFF0A37476F0A34A
:1046CE00747DF0E47B107A27F9F890022FE0FCA3BA
:1046DE00E0FDA3E0FEA3E0FF12270C90023CEEF0FB
:1046EE00A3EFF0E47B107A27F9F890022FE0FCA3F9
:1046FE00E0FDA3E0FEA3E0FF12270CAF0390023E05
:10470E00EAF0A3EFF07B017A0079DA123BBE900259
:10471E0034E0C4333354C02480FD7B017A0079DA4F
:10472E00E490023CF0A3F0D208D2097F28FE125882
:0A473E0035900234E004F00244213B
:01474800224E
:106136009000CDE070099000FFF09000CE04F07B57
:10614600017A00793FE4900244F0A37402F0E4FF80
:10615600128443C21490003FE0FEA3E0FF4E700499
:106166007D0180027D00EFF44E70047F0180027F86
:1061760000EF4D6002D21490023B74B8F0E4A3F035
:10618600A3F0D2087B407A017D20FFFE1276CB7BFE
:10619600FF7A767990E490023CF0A3F0D208D20917
:1061A6007D327F48FE1258357BFF7A76799CE490E3
:1061B600023CF0A3F0D208D2097DC87F087E011206
:1061C600583530140302627B7BFF7A7679A1E4901E
:1061D6000239F0A3F0D2067D287F147E01126A49A7
:1061E6007BFF7A7679A4E4900239F0A3F0D2067D9B
:1061F600507F147E01126A497BFF7A7679A7E49074
:10620600023CF0A3F0D208D2097DA07F087E0112DD
:1062160058357BFF7A7679ACE490023CF0A3F0D255
:1062260008D2097D787F087E011258359000FFE07C
:10623600C4333354C02450FD7BFF7A7679B1E490A1
:10624600023CF0A3F0D208D2097F08FE125835129C
:1062560043E4127FC29000FFE0C4333354C024509D
:10626600FDE4900233F0A3F0C206D2077B40FA7F2A
:10627600E9FE127BD990023574B8F0E4A3F0A3F0DE
:10628600D2087BF0FA7D20FFFE1250689000CD7494
:0362960050F022A3
:103FDC00C206EF24FE605114604E1470030243B706
:103FEC00240360030243E190004DE0FCA3E0FDA339
:103FFC00E0FEA3E0FF9000151227EA900085E0FC9C
:10400C00A3E0FDA3E0FEA3E0FF9000191227EA90C5
:10401C00008EE0FCA3E0FDA3E0FEA3E0FF90001DFA
:10402C001227EAD2060243E17B017A00793FE49041
:10403C000244F0A37402F0E4FF1284437B017A0083
:10404C007951E4900244F0A37407F0E4FF12844326
:10405C0090003FE07002A3E0702E900051F0A3F0AE
:10406C00A304F0E4A3F0A3F0A3F0A3F0A374FFF077
:10407C00E4A3F0A3F0A304F0E4A3F090022AF0A3CD
:10408C00F0A3F0A3F00242B290003FE0FFA3E09057
:10409C00022ECFF0A3EFF0900057803690022AA3A7
:1040AC00E0FF7B017A0079589002447407F0A37406
:1040BC0002F0128443900058E0F46022900059E022
:1040CC00FFC390022FE09FF090022EE09400F0903E
:1040DC000058E0FF90022AE4F0A3EFF080BE9002BB
:1040EC00297402F0900059E0640B60030241B29015
:1040FC000228F0900228E0FF64166039EF5407FDA7
:10410C0074017E00A805088005C333CE33CED8F9E0
:10411C00FF900229E02451F582E43400F583E0FBA2
:10412C00EF5B6011BD0706900229E004F0900228B5
:10413C00E004F080BE900228E0FF64167003024396
:10414C00E1900229E02451F582E43400F583C08328
:10415C00C082E0FEEF5407FF7401A807088002C379
:10416C0033D8FC4ED082D083F090022AA3E0FF7BA0
:10417C00017A0279289002347407F0A3E4F0A304C6
:10418C00F01280B290005874FFF0E4A3F0A3F0A3F7
:10419C0004F0E4A3F090022CF0A3F0900228E0FFCE
:1041AC0090022A0242AD90022AA3E0FF7B017A0022
:1041BC00795A9002447409F0A37403F0128443906A
:1041CC00005A804090022CE0FEA3E0FF7C007D1999
:1041DC001225C3EF2424FFE43EFE90022CF0A3EF43
:1041EC00F0FD90022AA3E0FF7B017A00796A90022D
:1041FC0044EDF0A37401F012844390006AE0F46083
:10420C000F90006AE0FF90022CE4F0A3EFF080B472
:10421C00E4900228F0A3740AF0900228E05407FFFF
:10422C0074017E00A807088005C333CE33CED8F9BD
:10423C00FF900229E02451F582E43400F583E0FD7F
:10424C00EF5D6010900228E004F0E0B408CBA3E02E
:10425C0004F080C590022AA3E0FF7B017A02792842
:10426C00A3A3E0900234F0A3E4F0A304F01280B214
:10427C00900229E02451F582E43400F583C083C018
:10428C0082E0FF900228E0FE5407FD7401A80508A7
:10429C008002C333D8FC4FD082D083F0EEFF900263
:1042AC002CE4F0A3EFF07B017A007936900270E0F9
:1042BC0090006AF090027004F09002287401F09063
:1042CC000228E0FFC39405501F122549FE746A2F83
:1042DC00F582E43400F583EEF0740129F9E43AFA3E
:1042EC00900228E004F080D77B017A00794290029A
:1042FC00287405F0900228E0FFC39414501F122577
:10430C0049FE746A2FF582E43400F583EEF07401F3
:10431C0029F9E43AFA900228E004F080D790007F63
:10432C0074FFF0900059E004F0900052E0B4FF06E6
:10433C00900051E004F0900052E004F090022CE068
:10434C00FEA3E0FF7C007D191225C3EF240CFFE4D3
:10435C003E90022CF0A3EFF07B017A007951E490AF
:10436C000234F0A3F0A37407F0E4FF1280B29002C1
:10437C002AA3E0FF7B017A0079589002347407F08D
:10438C00A3E4F0A37405F01280B290022AA3E0FF1C
:10439C007B017A00796AA3A3E0900234F0A3E4F0E5
:1043AC00A37419F01280B2D206802A900085E0FC2A
:1043BC00A3E0FDA3E0FEA3E0FFE41221C1A804A941
:1043CC0005AA06AB07E4FFFE7D7A7C451220B79068
:0743DC00002D1227EAA206E2
:0143E30022B7
:05857500900227EFF069
:10857A00123FDC9205300508900227E0FF02874986
:10858A0090023B7410F0E4A3F0A3F0D2087B20FA27
:10859A007DA07F087E011276CB7BFF7A7679B3E4E1
:1085AA0090023CF0A3F0D208D2097DC47F64FE1287
:0285BA00583532
:0185BC00229C
:10528D0090022774FFF0E4A3F0A374FFF0EF142550
:10529D00E02D04FF900223E4F0A3EFF07B017A00F0
:1052AD007951E4900244F0A37407F0E4FF128443B3
:1052BD009000578048900228E0FF7B017A007958D2
:1052CD009002447407F0A37402F0128443900059C5
:1052DD00E0F9FF900223E0FCA3E0FDD39FEC9400E6
:1052ED0050028020E9FFC3ED9FFEEC940090022355
:1052FD00F0A3CEF0900228E0A3F0900058E09002C9
:10530D0028F080B1900228E0FF7B017A00795A9055
:10531D0002447409F0A37403F0128443900059E021
:10532D0064017073900057E0FF900228E0900058E0
:10533D00B50707E0900057F08023E0900228F0A316
:10534D00E0FF7B017A0079589002447407F0A37452
:10535D0005F0128443900228E0900058F090022846
:10536D00E0FF131313541F2453F582E43400F58327
:10537D00C083C082E0FEEF5407FF7401A8070880C8
:10538D0002C333D8FCF45ED082D083F0900229E0C2
:10539D00900228F002545690005A8046900226E062
:1053AD0075F019A42424900225F0FE900228E0FF48
:1053BD007B017A00796A900244EEF0A37401F01239
:1053CD008443900224E024FFF0900223E034FFF0A8
:1053DD00E07002A3E06012900225E0900227F090A9
:1053ED00006AE0900226F080B3900227E0FEB4FF41
:1053FD000A90006AE090005AF08019900228E0FFB0
:10540D007B017A00796A900234EEF0A3E4F0A304F4
:10541D00F01280B2900059E014F0900226E0FF13D4
:10542D001313541F245BF582E43400F583C083C04D
:10543D0082E0FEEF5407FF7401A807088002C33312
:10544D00D8FCF45ED082D083F0900052E0700690CC
:10545D000051E014F0900052E014F07B017A0079D5
:10546D0051E4900234F0A3F0A37407F0E4FF12802E
:10547D00B2900228E0FF7B017A00795890023474D3
:0C548D0007F0A3E4F0A37405F00280B265
:107D9D00EF24FB7003027E2624026003027E2B90EB
:107DAD0000CD7450F0AF05AE03AD0612528D7B01C0
:107DBD007A00793FE4900244F0A37402F0E4FF12DC
:107DCD0084439000CEE01425E0FF9000FFE0042FE7
:107DDD00FFD3900040E09F7480F890003FE06480F6
:107DED00985036E0FAA3E0FB24FFFFEA34FFFE7C57
:107DFD00007D021225D59000FFEDF07C007D02AFD5
:107E0D0003AE021225D59000CEEFF09000FFE0708A
:0F7E1D00089000CEE004F080007F051287492214
:104AA300EF24FE7003024BCE147003024D1D24FE4F
:104AB3007003024D8B24046003024D8E30140302F5
:104AC3004D8E9000FFE0FF6003024B76EFC433335B
:104AD30054C02450FD90023B7410F0E4A3F0A3F003
:104AE300D2087B08FA7F08FE1276CB9000FFE0C461
:104AF300333354C02450FD90023B7440F0E4A3F0E0
:104B0300A3F0D2087B08FA7FE8FE1276CB9000CEA2
:104B1300E0FF7401C39F404A90003FE0FAA3E0FB2B
:104B230024FFFFEA34FFFE7C007D021225D59000AE
:104B3300FFEDF0D3EB9402EA64809480403B900055
:104B43003FE0FEA3E0FF7C007D021225D59000CE5E
:104B5300EFF09000FFE0640160149000CEE004F0F9
:104B6300800C9000CEE014F09000FF7401F012432B
:104B7300E480069000FFE014F0127FC29000FFE093
:104B8300FF64016043EF04C4333354C02450FD90E9
:104B9300023B7410F0E4A3F0A3F0D2087B08FA7F81
:104BA30008FE1276CB9000FFE004C4333354C024D4
:104BB30050FD90023B7440F0E4A3F0A3F0D2087BD5
:104BC30008FA7FE8FE1276CB024CDA301403024D6A
:104BD3008E9000CEE01425E0FF9000FFE0FE2F044E
:104BE300FDD3900040E09D7480F890003FE0648026
:104BF3009850047F0180027F00EEB401047E01809F
:104C0300027E00EF4E607A9000FFE0C4333354C05D
:104C13002450FD90023B7410F0E4A3F0A3F0D208FB
:104C23007B08FA7F08FE1276CB9000FFE0C4333393
:104C330054C02450FD90023B7440F0E4A3F0A3F071
:104C4300D2087B08FA7FE8FE1276CB9000CEE01400
:104C530025E0FF9000FFE02F04FFD3900040E09F8A
:104C63007480F890003FE06480989000CE50057403
:104C730001F08003E004F01243E4E49000FFF080CD
:104C8300069000FFE004F0127FC29000FFE0FFE413
:104C9300C39F5043EF14C4333354C02450FD9002D8
:104CA3003B7410F0E4A3F0A3F0D2087B08FA7F086A
:104CB300FE1276CB9000FFE014C4333354C024506B
:104CC300FD90023B7440F0E4A3F0A3F0D2087B080C
:104CD300FA7FE8FE1276CB9000FFE0C4333354C072
:104CE3002450FD7BFF7A7679B1E490023CF0A3F087
:104CF300D208D2097F08FE1258359000FFE0C43372
:104D03003354C02450FDE4900233F0A3F0C206D222
:104D1300077B40FA7FE8FE027BD920146E9000CD1A
:104D23007451F090023B743CF0E4A3F0A3F0D2087A
:104D33007B40FA7D287FF8FE1276CB7BFF7A76796B
:104D4300BDE490023CF0A3F0D208D2097D787F083D
:104D53007E011258357BFF7A76799CE490023CF011
:104D6300A3F0D208D2097DC87F087E011258357B93
:104D7300FF7A7679C2E490023CF0A3F0C208C2093C
:0C4D83007D807F58FE025835125E6822C9
:0A8961002573B2E2C1BF00543A00D2
:106E9700C11AC11B410136004101350041010B00F8
:046EA700410138006D
:0E7EB800900217EBF0A3EAF0A3E9F0A3EDF0BF
:107EC60074FFA3F0A3F0E4A3F090021AE0FF90027F
:107ED6001DE0C39F5058900217E0FBA3E475F00124
:107EE600122621A9F0FA122549FF90021BE0F0A301
:107EF600E06FF0E4FD90021BE0FEA3E0FF5401FCFE
:107F0600EEC313FEEF13FF90021BEEF0A3EFF0AFEC
:107F160004EFB4010C90021BE064A0F0A3E064013E
:107F2600F00DEDB408CF90021DE004F0809B9002A6
:067F36001BE0FEA3E0FFCA
:017F3C002222
:0E7F3D00900225EBF0A3EAF0A3E9F0A3EDF02B
:107F4B0074FFA3F0A3F0E4A3F0900228E0FF9002EB
:107F5B002BE0C39F5058900225E0FBA3E475F00182
:107F6B00122621A9F0FA122549FF900229E0F0A36D
:107F7B00E06FF0E4FD900229E0FEA3E0FF5401FC6A
:107F8B00EEC313FEEF13FF900229EEF0A3EFF0AF59
:107F9B0004EFB4010C900229E064A0F0A3E06401AB
:107FAB00F00DEDB408CF90022BE004F0809B900213
:067FBB0029E0FEA3E0FF37
:017FC100229D
:10781D00900118E07E007B012411F9EE3400FA90FE
:10782D000137E024064480900112F0E4900114F039
:10783D00FF740D2FF582E43401F583E0FE90011401
:10784D00E02EF00FEFB407E97F0C900137E0240C28
:10785D00FEEFC39E501A122549FE740D2FF582E4DA
:10786D003401F583EEF0740129F9E43AFA0F80DA68
:10787D007B017A017915900137E02404FD127F3DDB
:10788D00900137E0FC241AF582E43401F583EFF022
:10789D00EEFF74192CF582E43401F583EFF0E490DA
:1078AD000135F0900137E0240E9001B3F090010DF9
:0378BD00E0F5995A
:0178C00022A5
:1088F200C219C21A90013674FFF0E4900135F0906B
:0789020001B304F0C29C2246
:105B8400C29CC219E4900136F0C21A900118E07E5A
:105B9400002411F9EE3400FA90021E7401F0A3EA15
:105BA400F0A3E9F0201D0512781D804390022174B2
:105BB4000CF09001B2E0240CFF900221E0FEC39FA0
:105BC400502D740D2EF582E43401F583E0FF90022C
:105BD4001EE0FBA3E0FAA3E0F9EF1225B190021F47
:105BE400E475F00112260B900221E004F080C390CA
:105BF4000115E0334003025CF8900028E024CF70E4
:105C040003025CCF147003025CED2421B405004050
:105C140003025CF8905C2675F003A4C58325F0C5E7
:105C24008373025C35025CA0025CA4025CA8025C83
:105C3400B190023974FFF0A37489F0A37461F090F9
:105C44000041E0540375F005A4241DF9745835F09F
:105C5400FA90023C74FFF0A3EAF0A3E9F07B017A26
:105C6400007903123BBE7BFF7A897968E490023C99
:105C7400F0A3F0D208D2097DDC7FE8FE1258357B10
:105C8400017A007903E490023CF0A3F0D208D2092F
:105C94007DDCFFFE12583512868B8058C213805467
:105CA400D2138050900041E054BFF08047900041EF
:105CB400E0540304FF123FDC9201900041E0300104
:105CC400054420F0802E54DFF08029900083E0FF0B
:105CD40090023A7401F0A37402F0A37422F07B01E1
:105CE4007A0279211259E0800B900083E0FFA3E04F
:095CF400FD12528D301D02D29CFC
:015CFD002284
:106EAC009002167441F0E599640260062019030201
:106EBC006FA3D219900136E0FF240DF582E4340162
:106ECC00F583E599F0740D2FF582E43401F583E038
:106EDC00B4031DE4900215F0FF740D2FF582E43419
:106EEC0001F583E0FE900215E02EF00FEFB407E9F8
:106EFC00900136E0B40712900215E0FF900114E007
:106F0C006F60061288F2759941900136E0FF6409B2
:106F1C00703E740D2FF582E43401F583E0FF90018F
:106F2C0015E0FE540F8FF0A49001B2F0EE5470FFF8
:106F3C00BF300CC21DE0900137F0E49001B2F0BFFD
:106F4C006002D21D9001B2E0240D90010BF0D21A18
:106F5C00900136E0FF90010BE0D39F50047F01803D
:106F6C00027F00301A047E0180027E00EF5E6021F9
:106F7C007B017A0179159001B2E02406FD127EB8EE
:106F8C00EF4E7004D21B80091288F2900216E0F5C5
:076F9C0099900136E004F0BA
:016FA30022CB
:03002300028268EE
:10826800C0E0C0F0C083C082C0D075D000C000C0DC
:1082780001C002C003C004C005C006C0073098058D
:10828800C298126EAC309923C299900135E004F07F
:10829800E0FF9001B3E0D39F5004D29C800D740D91
:1082A8002FF582E43401F583E0F599D007D006D0A4
:1082B80005D004D003D002D001D000D0D0D082D0D5
:0682C80083D0F0D0E0328B
:0B78C1009001B4EBF0A3EAF0A3E9F0A3
:1078CC00E4900214F07B019001DF04F0A37401F04A
:1078DC00A374B7F09001B4E0F9A3E0FAA3E090022E
:1078EC0066C9F0A3EAF0A3E9F09001DFE0F9A3E0A8
:1078FC00FAA3E0900269C9F0A3EAF0A3E9F07A01D7
:10790C0079E212852B900214E024E2F582E4340132
:10791C00F583E0603F900214E0FF04F074E22FF571
:10792C0082E43401F583E0FF9001B1E0FE04F074D1
:10793C00392EF582E43401F583EFF09001B1E07556
:10794C00F07884AFF0EFF090010CE0B507B7900140
:06795C00B1E014F0D29925
:017962002202
:04892D00D2CB7F0A20
:0A893100AE071FEE60030080F7227E
:10000300D207D2CA7F01128931D2CBA2CA92077F0B
:0C00130001128931C2CB200702D322C3A6
:01001F0022BE
:1088BE0030CB047F0180027F0030CA047E0180022B
:0A88CE007E00EE5F6002C322D32299
:10891D00D2CA0012892DC2CA7F0A128931C2CB2256
:0D893B00C2CA0012892DD2CA7F0A028931FA
:108833007D07E4FC7F0A128931D2CBEC25E0FC7F73
:108843000A12893130CA010CC2CBED700280031DBC
:0488530080E2AF040C
:0188570022FE
:0C864900E0FBA3E0FAA3E0F9122549FFD2
:02865500AD076F
:108657007C0774017E00A804088005C333CE33CE9F
:10866700D8F9FFEDFBEF5B6004D2CA8002C2CA7F74
:108677000512893112892DC2CBEC700280031C8050
:04868700D102000319
:1085BD00900247EFF0A3EBF0A3EAF0A3E9F01288E5
:1085CD00BE40FB12891D7FA2128655900247E0FF27
:1085DD0012865590024BE0FF12865512891D7FA31E
:1085ED00128655128833900248E0FBA3E0FAA3E00F
:0885FD00F9EF1225B102893BE0
:0E844300900240EFF0A3EBF0A3EAF0A3E9F003
:10845100E4900246F0900240E0FFA3E0FBA3E0FAC3
:10846100A3E0F9A3E090024BF01285BD900246E033
:1084710004F0900242E475F00112260B900244E0F0
:1084810004F0900246E0FF900245E0B507C702897B
:018491003BAF
:0E833300900239EFF0A3EBF0A3EAF0A3E9F01B
:10834100E490023EF01288BE40FB12891D7FA2120A
:108351008655900239E0FF12865590023DE0FF12EA
:10836100865590023A12864912893BE490023EF00A
:1083710090023EE0FFC3941450187B017A02793FCA
:1083810090024BEFF0E4FF1285BD90023EE004F055
:0283910080DE8C
:0183930022C7
:0E80B200900230EFF0A3EBF0A3EAF0A3E9F0A8
:1080C000E4900237F0A3F0900230E0FFA3E0FBA3BE
:1080D000E0FAA3E0F9A3E090023DF01283339002AE
:1080E00038E004F07006900237E004F0900232E4C9
:1080F00075F00112260B900234E0B4FF06900230B6
:10810000E004F07F14128931900234E004F0900210
:1081100037E0FEA3E0FF900235E0B506AAA3E0B584
:0581200007A502893BE8
:0E84DF0090022DEBF0A3EAF0A3E9F0A3EDF07C
:1084ED00E4A3F01288BE40FB12891D7FD012865581
:1084FD007F018010900230E0FF14F0EF601DE0B4BA
:10850D000307E4FF12865580EB90022D12864990E9
:0E851D00022E74FFF5F012260B80D902893B66
:0E82CE00900225EBF0A3EAF0A3E9F0A3EDF097
:1082DC00E4A3F01288BE40FB12891D7FD012865594
:1082EC00900229E0FF12865512891D7FD112865506
:1082FC00E0B40305128833801C128833900225E009
:10830C00FBA3E0FAA3E0F9EF1225B190022674FF6B
:10831C00F5F012260B900229E004F0E0FF90022801
:07832C00E0B507B402893B34
:0D8948005392EE5391EE53B27F53B17F2254
:0862990090022DEEF0A3EFF0DE
:1062A100E4A3F0A3F0EF8EF012288D62CC0000621F
:1062B100D5040062E8080062EF100062F61800637E
:1062C100001C00630B20000000631AE490022FF011
:1062D100A3F08045122637FFE5F0540344049002F1
:1062E1002FF0A3EFF0803290022F740880169002F5
:1062F1002F7410800F1226375406FE7418801390E5
:10630100022F741CF0A3E4F0800F1226375401FE13
:10631100742090022FF0A3CEF0D2C300D2CC003073
:10632100EEFDC2C300C2CC00E4FD90022FE0FEA34B
:10633100E0FFEE30E704D2C08002C2C000D2C30049
:10634100C2C300EF25E0FFEE3390022FF0A3EFF080
:106351000DEDB410D5D2CC0020EEFD30EEFD900253
:106361002DE0FEA3E0FF7003EE64086008EF700308
:10637100EE641C7036E490022FF0A3F0C2CC00FD55
:10638100900230E025E0F090022FE033F0D2C3001C
:1063910030C10CA3E004F0700690022FE004F0007D
:1063A100C2C3000DEDB410D8D2CC0090022DE0B4E0
:1063B1000818A3E0B40013A3E05403FEA3E0FF9088
:1063C100022FEEF0A3EFF0FF801D90022DE0B41C30
:1063D1001CA3E0B400177E00900230E05406FF9049
:0D63E100022FEEF0A3EFF0EE8FF012266217
:0163EE00228C
:0863EF0090022DEEF0A3EFF087
:1063F700E4A3F0A3F0EF8EF012288D64220000646E
:106407002B0400643E080064451000644C180064C7
:10641700561C006461200000006470E490022FF0B5
:10642700A3F08045122637FFE5F054034404900299
:106437002FF0A3EFF0803290022F7408801690029D
:106447002F7410800F1226375406FE74188013908D
:10645700022F741CF0A3E4F0800F1226375401FEBC
:10646700742090022FF0A3CEF0D29500D292003084
:10647700ECFDC29500C29200E4FD90022FE0FEA35E
:10648700E0FFEE30E704D2938002C29300D295007A
:10649700C29500EF25E0FFEE3390022FF0A3EFF057
:1064A7000DEDB410D5D2920020ECFD30ECFD90023A
:1064B7002DE0FEA3E0FF7003EE64086008EF7003B1
:1064C700EE641C7036E490022FF0A3F0C29200FD38
:1064D700900230E025E0F090022FE033F0D29500F3
:1064E70030940CA3E004F0700690022FE004F00053
:1064F700C295000DEDB410D8D2920090022DE0B4F1
:106507000818A3E0B40013A3E05403FEA3E0FF9030
:10651700022FEEF0A3EFF0FF801D90022DE0B41CD8
:106527001CA3E0B400177E00900230E05406FF90F1
:0D653700022FEEF0A3EFF0EE8FF0122662BF
:016544002234
:10003E007B007D00D2BBB0B4B0DCB1A3B1A8B1B827
:10004E00B1BEB1D5B1E3B2BBB2CEB2E0B2E2B3C98A
:10005E00B3D8B3F6B3FDB4BFB4CEB4E6B5B9B5BC40
:10006E00B5C4B5D7B5E7B5F7B6AFB6C8B6CCB7B564
:10007E00B7C5B8C4B8FCB9A6B9A9B9CCB9D8B9FD39
:10008E00BAC3BAF3BBBBBBD8BBEEBBF2BBFDBCC79E
:10009E00BCE4BCECBCFCBDABBDBBBDF8BEABBEAFE7
:1000AE00BEBBBFAAC0FAC1BFC1F7C2BCC3A6C3E6DE
:1000BE00C4DAC5E4C6B7C6E4C6F4C6F7C7EBC8B71C
:1000CE00C8CFC8DDC8EBC9BEC9E4C9E8CAA7CAB162
:1000DE00CAB3CAB7CAB9CABCCABDCACACAFDCBAEB0
:1000EE00CBFBCCA8CCE5CDB3CFB5CFC2CFE0D0A162
:1000FE00D0A3D0AFD0D0D0D4D0DED2B3D2BAD2C764
:10010E00D3A6D3C3D3D2D3DAD4CBD5FBD6B5D6B9F7
:10011E00D6C3D6CAD6D0D6D8D7BCD7E3E3D0BBB6D3
:10012E00CDEACFA2D0C5D1A1D1F9D3ADD4F1B7D6F6
:10013E00D6D3C7E9CFEAD7DC0000000000000FF8E5
:10014E0000800080008000800080008000800080A1
:10015E0000800FF80000000010401020102013FE49
:10016E00FA02144410401BFE3088D088110810D0BB
:10017E00102010505088230400407C40444054808E
:10018E0054FE5508568854885488545054501020A4
:10019E00285024884504820208000BF80A08120829
:1001AE00120833F83040504097FC10E011501248BE
:1001BE001444184210401040100011FC1104110498
:1001CE00FD141108110015FC19443144D1281128D1
:1001DE001110112851442182040004000FF0182040
:1001EE00644003801C70E00E1FF0111011101FF000
:1001FE00111011101FF0101001000100010001007C
:10020E007FFC0380054005400920111021084FE4B2
:10021E008102010001000100200017FC000440844F
:10022E0040845FF4408441844284448448845084F2
:10023E004284410440144008100017FE104027FC71
:10024E002444644467FCA444244427FC22402140F7
:10025E002080214022302C0E00007FFC0080008088
:10026E00010001000340052009101108210441047A
:10027E0081000100010001000200044008201FF06F
:10028E0002007FFC082010902308CC460180061047
:10029E00182000C007007800100417C4144424541A
:1002AE00255465546554A5542554255425542104CC
:1002BE002284224424142808000427C4144414540D
:1002CE00855445544554155415542554E55421046C
:1002DE0022842244241408080050004800403FFEA7
:1002EE002040204020443E4422442228222822122C
:1002FE002A32444A40868102004020401240125861
:10030E00826842C853481E4812482248E258224288
:10031E002202220221FE0000010001002108210814
:10032E00210821083FF801080100010041044104A1
:10033E00410441047FFC00040040784048A0511065
:10034E00520865F6504048404FFC48406A505248AB
:10035E00444448444140408010401040204023FC1B
:10036E004840FA48124822484248FBF840480040AC
:10037E001842E042403E000000804080208020FC79
:10038E00010409080A4014401040E0A020A02110EA
:10039E00211022082404080204000400FFFE0800B5
:1003AE00080013F810103020504097FE10401040F7
:1003BE001040104011401080100410041FC422146D
:1003CE002214649467D4A114211427D42114211467
:1003DE0021C42E042414200800003FF02010201009
:1003EE003FF0200420041FFC00200020FFFE082008
:1003FE000420042000A000401040104020407E7CCD
:10040E0042844284430442447E24422442044204F1
:10041E0042047E0442280010010000803FFE2000AE
:10042E00203C27C024402440244027FE24202420A2
:10043E002412450A464684220100010001003FF8BD
:10044E002108210821083FF82108210821083FF83A
:10045E00210A0102010200FE000047FC244424444C
:10046E0005F40444E44427FC240425E425242D2427
:10047E0035E4240404140808004000407C40004089
:10048E0001FC0044FE4420442044208448844484DB
:10049E00FD04450402280410010000803FFE2220C6
:1004AE0022203FFC2220222023E020002FF02410C7
:1004BE00422041C08630380E200021FE3C00500004
:1004CE0090FC10841084FE8410FC100010842844CC
:1004DE002448440041FE80000008203C13C0120056
:1004EE00020003FCF20412881250122012501488DB
:1004FE001504280047FE0000204010400040FE80FA
:10050E0020FE21083E88248824882450245024204C
:10051E00445054888904020200400040FC8004FECE
:10052E000508050806887C884088405040504420C5
:10053E0058506088410402020000FFFE01000100D5
:10054E003FF8210821083FF8210821083FF8110043
:10055E000A00060019C0E03E004000400040FE4088
:10056E0011FC1044104410441044108410841E8456
:10057E00F104410402280410091009100910111089
:10058E0013FC311031105110911017FE1000111084
:10059E00110812081404180400007FFC41044104E1
:1005AE005FF4410441044FE44824482448244FE4B6
:1005BE00482440047FFC400410100810082000005E
:1005CE003FF8010001000100FFFE010002800280E1
:1005DE00044008203018C00600102010101017FE1E
:1005EE0000100010F21011101110101010101050F9
:1005FE001020280047FE0000100010FC1004100808
:10060E00FC102420242025FE242048202820102001
:10061E002820442084A00040001000F81F00100085
:10062E0010001FFE10001000100017F81408240808
:10063E002408440887F804081080108010F8110868
:10064E00FA1015FC112419243124D12417FE105050
:10065E00105010885104260200003FF82008200890
:10066E0027C82448244824482448244827C820085A
:10067E0020083FF8200800000010207813C010401A
:10068E00804047FE40401040104023F8E208220808
:10069E002208220823F80208004800440040FFFE0A
:1006AE00004000403E442244224422283E280012AC
:1006BE000732784A2086030204000E0078FC088474
:1006CE000884FF84088418841CFC2A842A00484865
:1006DE0088440884088209020000200011F81008DE
:1006EE0000080008F00811F811081100110011009F
:1006FE001502190210FE0000200013FC1004400425
:10070E0047C444444444444447C444444444444495
:10071E0047C44004401440081040104010A010A0E0
:10072E00FD10120835F63800548850489248115082
:10073E001110102017FE1000201020103B7C2114E9
:10074E0041FE7A14A27C2710F97C251025FE22107A
:10075E002A10350028FE0000088008F809084A1003
:10076E0028A0284008900B1018102BFEC810091056
:10077E000890081008500820020001000100FFFE3A
:10078E0000001010100820244824044002800100AC
:10079E0002800C403030C00E00902090109013FC60
:1007AE0000900090F09017FE109010901110111004
:1007BE001210280047FE00001020102095FE542035
:1007CE0058FC1020FDFE300038FC548454FC9084FC
:1007DE0010FC1084109410882420FF20247E7EC4E8
:1007EE0082287A104A287AC60500FFFE00003FF8DC
:1007FE0000003FF820083FF80100410023F02410CC
:10080E00002017FC104410442FFE2044E04427FC27
:10081E00204420402140008000007FFC082008205A
:10082E00082008200820FFFE0820082008200820A5
:10083E00102010202020402000003FFE20002080AD
:10084E00208020802FFC2084208421042104220477
:10085E00220444044828901000001FF010101FF0CE
:10086E001010FFFE00001FF011101FF011101FF0EE
:10087E0001001FF001007FFC0080204017FE108059
:10088E008110420847FC100410002248E24822481A
:10089E002248224A244A084600003FF00010001069
:1008AE001FF000100010FFFE0100210811900560DE
:1008BE0009203118C506020010201010101010006B
:1008CE001BFE5480508050809080108010801080CD
:1008DE001080108010FE10000000FFFE02000200CB
:1008EE0004003FF82448244827C82448244827C831
:1008FE00244824483FF820080100010001007FFC35
:10090E004104410441044284424444244814501496
:10091E0040044004401440080000FE0028F8280857
:10092E00FE08AA08AA08AAF8AE88C2808280FE80B5
:10093E0082828282FE7E820000001FF01010101054
:10094E00101010101FF0000000007C7C4444444442
:10095E00444444447C7C4444082008207FFC082006
:10096E0008200FE0082008200FE008200820FFFED6
:10097E000000082010102008010000801FFC100449
:10098E00100410041FFC10001000100017FC2404AB
:10099E002404440487FC040400003E7C22442244C8
:1009AE003E7C01200110FFFE02800C603018C00654
:1009BE003E7C224422443E7C0040404027FC2040A6
:1009CE0003F80040E7FE200023F8220823F822084F
:1009DE002BF832082228021000400040FC7C1084C4
:1009EE00110822FE3C92649264FEA492249224FE8C
:1009FE003C922512210A0204004020401040104073
:100A0E0000400040F040104010A010A010A01510A3
:100A1E001910120804040802020001007FFE4002B1
:100A2E00882411102288044008203018DFF6101098
:100A3E00101010101FF01010040002000100010031
:100A4E000100028002800280044004400820082039
:100A5E00101020104008800600027BC24A424A4A0B
:100A6E004A4A4A4A4A4AFFEA4A4A4A4A4A4A4A4A83
:100A7E004A425A42854A0884080810083E0822084D
:100A8E003EFE22083E0822082248FE2806280A08B2
:100A9E00120822084A280410000021F0111011102B
:100AAE000110020EF40013F811081110109014A08A
:100ABE00184010A003180C060100110011001100BF
:100ACE003FF8210041000100FFFE02800440044077
:100ADE00082010102008C006000800087C084408F2
:100AEE0045FE440844087C08448844484448440869
:100AFE007C084408002800100100028004400A20EF
:100B0E003118DFF610101FF010101FF010081190A2
:100B1E0010601210140818040100010001003FF8C3
:100B2E002108210821083FF82108010011000900C1
:100B3E00060005801870E00E104010401FFE204089
:100B4E00204067FC6444A44427FC204022402140FE
:100B5E002080214022302C0E10201020102010401A
:100B6E00FC48248425FE2482240048FC288410841A
:100B7E002884448480FC00840048004400440040E3
:100B8E00FFFE004000403E4008400840082008227A
:100B9E000F12780A20060002007823C01040104081
:100BAE0007FE0040F04013F812081208120813F85E
:100BBE001208280047FE0000082049202A20083E7F
:100BCE00FF442A44494488A41028FE2822104210CB
:100BDE00642818283444C282010001000100010873
:100BEE0001087D9005A0094009401120111021082F
:100BFE004106810005000200084008400A401258D4
:100C0E00126832C833485E4892481248125812424F
:100C1E001202120211FE100002000200040008204F
:100C2E00101020087FFC200400001FF01010101080
:100C3E00101010101FF0101008400840084010400F
:100C4E0017FC304030E050E091501150124815F42E
:100C5E00184210401040104010401020202023FE5B
:100C6E004840F888110423FE4092F890409000907E
:100C7E001912E112420E040000F83F000400082091
