:1073FD00534D4D552D522DD2BBB7C5C9E4D0D4BB7D
:10740D00EEB6C8BCECB2E2D2C7004300BBB620D387
:10741D00AD20CAB920D3C300B1E3D0AFCABDCAB342
:10742D00C6B726CBAE00B7C5C9E4D0D4BBEEB6C83F
:10743D00BCECB2E2D2C700B1BEB5D7B2E2C1BF005B
:10744D00D2BACCE5B2E2C1BF00B9CCCCE5B2E2C153
:10745D00BF00B2CECAFDC9E8D6C300C0FACAB7BCD8
:10746D00C7C2BC00B2CE20CAFD20B5F720D5FB00A7
:10747D003230253032782F253032782F2530327842
:10748D0000253032783A253032783A25303278007E
:10749D00253032643A253032643A25303264002585
:0A74AD006425303464000A1E466EA8
:106DB2006074001111111111000000FA0000007836
:106DC20000000078006400640070050003E803E836
:106DD2003F7AE1483F7AE148160122131500030188
:106DE20001FF0000000000000000000000000000A1
:106DF2000000000000000000000000000000000091
:106E02000000000000000000000000000000000080
:106E12000000000000000000000000000000000070
:106E2200000000000000010060320092000000003B
:106E32000000000000000000000000000000000050
:106E42000000000000000000000000000000000040
:106E520000000000000000000000000000004100EF
:106E6200890041008B004100C6004201050000413B
:106E720001000041001000410002004100CE00C1AB
:106E820013C1124100C7004100CD004100D500C12D
:066E9200154200000001A2
:1087EA00900041E030E0054404F08007900041E049
:1087FA0054FBF0900041E030E1044408F02290007C
:06880A0041E054F7F022EA
:10881000900041E030E2054401F08007900041E023
:1088200054FEF0900041E030E3044402F022900056
:0688300041E054FDF022BE
:108608009000CA7401F020FC06FFE08FF0A4F0206F
:10861800FD0A7F029000CAE08FF0A4F020FE0A7FD6
:10862800039000CAE08FF0A4F020FF0A7F049000B6
:10863800CAE08FF0A4F020C50A7F059000CAE08F39
:03864800F0A4F0AB
:01864B00220C
:105E6D00900041E054EFFFF0E49000CDF0EF20E61C
:105E7D001890023B7418F0E4A3F0A3F0D2087B4015
:105E8D007A017DD8FFFE1276D090023B74D8F0E4F3
:105E9D00A3F0A3F0D2087B407A01FDFFFE1276D06D
:105EAD00E4900232F0D205FBFA7D087FE0FE127716
:105EBD00797BFF7A7379FDE490023CF0A3F0D20870
:105ECD00D2097D087F10FE12583A900041E030E76C
:105EDD00197BFF7A747917E490023CF0A3F0D20895
:105EED00D2097D087FD8FE12583A7BFF7A74791952
:105EFD00E490023CF0A3F0D208D2097D3C7F48FE2D
:105F0D0012583A7BFF7A747925E490023CF0A3F0A5
:105F1D00D208D2097D707F41FE12583A7BFF7A7408
:105F2D007933E490023CF0A3F0D208D2097D807F52
:105F3D0039FE12583A7BFF7A747944E490023CF0B2
:105F4D00A3F0D208D2097D287FF8FE12583A7BFFC4
:105F5D007A74794DE490023CF0A3F0D208D2097D19
:105F6D00507FF8FE12583A7BFF7A747956E490020E
:105F7D003CF0A3F0D208D2097D787FF8FE12583A92
:105F8D007BFF7A74795FE490023CF0A3F0D208D2E3
:105F9D00097DA07FF8FE12583A7BFF7A747968E488
:105FAD0090023CF0A3F0D208D2097DC87FF8FE1212
:105FBD00583A90023574B8F0E4A3F0A3F0D2087B00
:095FCD00F0FA7D20FFFE02506D88
:10874C0090022DEFF024FE601014600D14601214D2
:10875C00601224047011026B7490022DE0FF027BF6
:08876C004202669A12613B22F1
:1072650090021EEFF0ED24FC6038240360030273E6
:107275003190021EE024FB60152404600302733183
:10728500900041E030E402807012868E8078900094
:1072950041E030E40A128810900041E054EFF0021A
:1072A500732E90021EE024FD600A1460451460638D
:1072B5002403707890023B74B8F0E4A3F0A3F0D2F5
:1072C500087B407A017D20FFFE1276D07BFF7A7421
:1072D5007971E490023CF0A3F0D208D2097D3C7F9D
:1072E50060FE12583A90021EE004FF9000C4F002BE
:1072F5002927900041E030E403027AA6900041E09E
:1073050020E60312868E900041E0540304FFD20666
:107315000236C4900041E0FF30E60EEF30E40A1279
:0D7325008810900041E054EFF0125E6D22E0
:1074B7009000CDE012286774DD007506107518116D
:1074C700752214753415754B41755A4374E8507419
:1074D700F2510000756A900100E0FF12874C0275B7
:1074E7006A900100E0FF124AA88078900100E0FF4F
:1074F7009000CEE0FD9000FFE0FB127DA08064903D
:107507000100E0FF900041E0540304FD1272658022
:1075170052900100E0FF1287748048900100E0FF5D
:10752700900041E0540304FD125FD68036900100BD
:10753700E0FF900041E0540304FDA217E433FB127F
:107547008397801F900100E0FF9000C4E0FD123098
:10755700038010900100E0FF900041E0540304FD18
:097567001286F9E4900100F02203
:10152300C201C202C203C2187B017A00793A7D0765
:101533001282D13015069000D5E004F09000D5E07A
:10154300B4021F90023B7410F0E4A3F0A3F0D2089E
:101553007B4EFA7DC07FA4FE1276D0C215E49000C4
:10156300D5F090023974FFF0A37474F0A3747DF086
:10157300900035E0FF90023CE4F0A3EFF0900036DA
:10158300E0541FFF90023EE4F0A3EFF0900037E039
:10159300543FFF900240E4F0A3EFF07B017A00791F
:1015A30003123BC37B017A007903E490023CF0A36E
:1015B300F0D208D209FD7FF0FE12583A9002397436
:1015C300FFF0A37474F0A3748EF0900038E0543FDE
:1015D300FF90023CE4F0A3EFF0900039E0FF9002AB
:1015E3003EE4F0A3EFF090003AE0FF900240E4F015
:1015F300A3EFF07B017A007903123BC37B017A00EE
:101603007903E490023CF0A3F0D208D2097D107F65
:10161300F8FE12583A900041E0FF339204EF20E6BF
:10162300030218779000D1E0F8A3E0F9A3E0FAA34E
:10163300E0FB9000CBE0FEA3E0FFE4FCFDEB2FFF1B
:10164300EA3EFEED39FDEC38FC9000D11227EA901A
:101653000101E0F8A3E0F9A3E0FAA3E0FB90008C1A
:10166300E0FEA3E0FFE4FCFDEB2FFFEA3EFEED39D5
:10167300FDEC38FC9001011227EA9000D6E0F8A3B4
:10168300E0F9A3E0FAA3E0FB9000CFE0FEA3E0FFC4
:10169300E4FCFDEB2FFFEA3EFEED39FDEC38FC9058
:1016A30000D61227EA900044E004F0E0B43C19901D
:1016B3000043E004F0E4A3F0900043E0B43C09905D
:1016C3000042E004F0E4A3F090023974FFF0A37445
:1016D30074F0A3749DF0900042E0FF90023CE4F0AC
:1016E300A3EFF0900043E0FF90023EE4F0A3EFF09D
:1016F300900044E0FF900240E4F0A3EFF07B017A16
:10170300007903123BC37B017A007903E490023C26
:10171300F0A3F0D208D2097DDC7FF8FE12583A20FC
:1017230004030217C7900041E030E422540C131362
:10173300543F04FFBF03047E0180027E00BF020406
:101743007F0180027F00EF4E6024D203802090004F
:1017530041E0540304FFBF03047E0180027E00BF07
:1017630002047F0180027F00EF4E6002D2039000EB
:1017730042E075F03CA4FFA3E02FFFD3900026E0E6
:101783009F900025E0940050047F0180027F003089
:1017930003047E0180027E00EF5E6028900041E03A
:1017A30030E403128810900041E054EFF0D202902D
:1017B30000CDE06414600D900041E0540304FFD2B7
:1017C300061236C4900042E075F03CA4FFA3E02F5C
:1017D300C39468E494014028900041E030E403128C
:1017E3008810900041E054EFF0D2019000CDE06406
:1017F30014600D900041E0540304FFD2061236C476
:10180300300454300251900041E0540304FFC206F7
:101813001236C4900041E0540304FD7F03125FD6E7
:10182300900041E0540304FD7B017F04128397C2BF
:101833008CC28E53D17FE4F58CF58AF58DF58BF54B
:10184300D2F5D312868E900041E0FE540304FFEEDE
:10185300A2E692061236C430011A900041E0540306
:1018630004FFC2061236C4900041E0540304FD7F16
:1018730003125FD69000CDE0FFB443047E018002E3
:101883007E00EFB414047F0180027F00EF4E7003EB
:10189300021FB51273329000CDE064146003021C82
:1018A300FB900041E054030424FE70030219C014AA
:1018B30070030219CF147003021BFB24036003029D
:1018C3001FB590023974FFF0A37474F0A374ACF0E5
:1018D300E47B107A27F9F890004DE0FCA3E0FDA328
:1018E300E0FEA3E0FF12270C90023CEEF0A3EFF022
:1018F300E47B107A27F9F890004DE0FCA3E0FDA308
:10190300E0FEA3E0FF12270CAF0390023EEAF0A330
:10191300EFF07B017A007903123BC3900222EFF0D0
:10192300E0C454F0FFC3749C9FFF7E007B017A00E8
:101933007903E490023CF0A3F0D208D2097D8C1223
:10194300583A90023974FFF0A37474F0A374ACF0A6
:10195300E47B107A27F9F8900101E0FCA3E0FDA3F2
:10196300E0FEA3E0FF12270C90023CEEF0A3EFF0A1
:10197300E47B107A27F9F8900101E0FCA3E0FDA3D2
:10198300E0FEA3E0FF12270CAF0390023EEAF0A3B0
:10199300EFF07B017A007903123BC3EFC454F0FFED
:1019A300C374A49FFF7E007B017A007903E4900255
:1019B3003CF0A3F0D208D2097D74021FB29000213B
:1019C300E0FFA3E0900223CFF0A3EFF0900041E00B
:1019D300540304FFBF030F900023E0FFA3E0900232
:1019E30023CFF0A3EFF0900015E0FCA3E0FDA3E00C
:1019F300FEA3E0FF900085E0F8A3E0F9A3E0FAA3DB
:101A0300E0FBD31227AC501690021E1227F60000FB
:101A130000009000451227F600000000805190005E
:101A230019E0F8A3E0F9A3E0FAA3E0FB900085E056
:101A3300FCA3E0FDA3E0FEA3E0C39BFFEE9AFEED53
:101A430099FDEC98FC90021E1227EA900223E0FE17
:101A5300A3E0FBAA06E4F9F890021EE0FCA3E0FD74
:101A6300A3E0FEA3E0FF12270C9000451227EA90A3
:101A7300023974FFF0A37474F0A374ACF0E47B1028
:101A83007A27F9F8900045E0FCA3E0FDA3E0FEA36C
:101A9300E0FF12270C90023CEEF0A3EFF0E47B1082
:101AA3007A27F9F8900045E0FCA3E0FDA3E0FEA34C
:101AB300E0FF12270CAF0390023EEAF0A3EFF07BA6
:101AC300017A007903123BC3900222EFF0E0C45481
:101AD300F0FFC374B29FFF7E007B017A007903E4B9
:101AE30090023CF0A3F0D208D2097D6812583A90D4
:101AF300001DE0FCA3E0FDA3E0FEA3E0FF90008E49
:101B0300E0F8A3E0F9A3E0FAA3E0FBD31227AC507B
:101B13001690021E1227F6000000009000491227BB
:101B2300F600000000805190001DE0F8A3E0F9A347
:101B3300E0FAA3E0FB90008EE0FCA3E0FDA3E0FE4F
:101B4300A3E0C39BFFEE9AFEED99FDEC98FC900297
:101B53001E1227EA900223E0FEA3E0FBAA06E4F9A3
:101B6300F890021EE0FCA3E0FDA3E0FEA3E0FF1259
:101B7300270C9000491227EA90023974FFF0A374EE
:101B830074F0A374ACF0E47B107A27F9F890004961
:101B9300E0FCA3E0FDA3E0FEA3E0FF12270C90020C
:101BA3003CEEF0A3EFF0E47B107A27F9F8900049BC
:101BB300E0FCA3E0FDA3E0FEA3E0FF12270CAF03CC
:101BC30090023EEAF0A3EFF07B017A007903123B27
:101BD300C3900222EFF0E0C454F0FFC374B29FFF3E
:101BE3007E007B017A007903E490023CF0A3F0D2FB
:101BF30008D2097D9E021FB290023974FFF0A374CC
:101C030074F0A374ACF0E47B107A27F9F8900085A4
:101C1300E0FCA3E0FDA3E0FEA3E0FF12270C90028B
:101C23003CEEF0A3EFF0E47B107A27F9F8900085FF
:101C3300E0FCA3E0FDA3E0FEA3E0FF12270CAF034B
:101C430090023EEAF0A3EFF07B017A007903123BA6
:101C5300C3900222EFF0E0C454F0FFC374B29FFFBD
:101C63007E007B017A007903E490023CF0A3F0D27A
:101C730008D2097D6812583A90023974FFF0A374B0
:101C830074F0A374ACF0E47B107A27F9F890008E1B
:101C9300E0FCA3E0FDA3E0FEA3E0FF12270C90020B
:101CA3003CEEF0A3EFF0E47B107A27F9F890008E76
:101CB300E0FCA3E0FDA3E0FEA3E0FF12270CAF03CB
:101CC30090023EEAF0A3EFF07B017A007903123B26
:101CD300C3900222EFF0E0C454F0FFC374B29FFF3D
:101CE3007E007B017A007903E490023CF0A3F0D2FA
:101CF30008D2097D9E021FB290023974FFF0A374CB
:101D030074F0A374ACF0E47B107A27F9F890010126
:101D1300E0FCA3E0FDA3E0FEA3E0FF12270C90028A
:101D23003CEEF0A3EFF0E47B107A27F9F890010181
:101D3300E0FCA3E0FDA3E0FEA3E0FF12270CAF034A
:101D430090023EEAF0A3EFF07B017A007903123BA5
:101D5300C37B017A007903E490023CF0A3F0D2083C
:101D6300D2097D507F68FE12583A90023974FFF011
:101D7300A37474F0A374ACF0E47B107A27F9F890A1
:101D830000D1E0FCA3E0FDA3E0FEA3E0FF12270CDB
:101D930090023CEEF0A3EFF0E47B107A27F9F89081
:101DA30000D1E0FCA3E0FDA3E0FEA3E0FF12270CBB
:101DB300AF0390023EEAF0A3EFF07B017A007903D0
:101DC300123BC37B017A007903E490023CF0A3F059
:101DD300D208D2097D647F88FE12583A9002397482
:101DE300FFF0A37474F0A374ACF0E47B107A27F9CA
:101DF300F89000D6E0FCA3E0FDA3E0FEA3E0FF1211
:101E0300270C90023CEEF0A3EFF0E47B107A27F965
:101E1300F89000D6E0FCA3E0FDA3E0FEA3E0FF12F0
:101E2300270CAF0390023EEAF0A3EFF07B017A00A8
:101E33007903123BC37B017A007903E490023CF0FF
:101E4300A3F0D208D2097D787F80FE12583A90021F
:101E53003974FFF0A37474F0A374ACF0E47B107ACC
:101E630027F9F890004DE0FCA3E0FDA3E0FEA3E01A
:101E7300FF12270C90023CEEF0A3EFF0E47B107A04
:101E830027F9F890004DE0FCA3E0FDA3E0FEA3E0FA
:101E9300FF12270CAF0390023EEAF0A3EFF07B01A1
:101EA3007A007903123BC37B017A007903E4900241
:101EB3003CF0A3F0D208D2097D967F70FE12583A07
:101EC300900041E054030464047003021FB59002C0
:101ED3003974FFF0A37474F0A374ACF0E47B107A4C
:101EE30027F9F8900085E0FCA3E0FDA3E0FEA3E062
:101EF300FF12270C90023CEEF0A3EFF0E47B107A84
:101F030027F9F8900085E0FCA3E0FDA3E0FEA3E041
:101F1300FF12270CAF0390023EEAF0A3EFF07B0120
:101F23007A007903123BC37B017A007903E49002C0
:101F33003CF0A3F0D208D2097DAA7F90FE12583A52
:101F430090023974FFF0A37474F0A374ACF0E47BD3
:101F5300107A27F9F890008EE0FCA3E0FDA3E0FEE1
:101F6300A3E0FF12270C90023CEEF0A3EFF0E47B1A
:101F7300107A27F9F890008EE0FCA3E0FDA3E0FEC1
:101F8300A3E0FF12270CAF0390023EEAF0A3EFF0A9
:101F93007B017A007903123BC37B017A007903E466
:101FA30090023CF0A3F0D208D2097DBE7F88FE12D6
:081FB300583A301303127822A2
:011FBB002203
:10888000C2DEE4F5F9F5E943DA49900107749CF09A
:10889000A37440F0900107E0FCA3E0FDECF5EA8D45
:0488A000FAD2DE2208
:10819700900041E054BFF0128880C28CC2B9C28DF2
:1081A700E58954FC4401F589438E80438904538F44
:1081B700FEE4F58CF58AD28CC28EC2BBC28DE589EE
:1081C70054CF4410F589438E40438940538FFDE4D3
:1081D700F58DF58BD28E53D17F43D12043D140F516
:1081E700D2F5D343D18075985075D78F75D6FD4397
:0D81F7008E04438E01438E10D2ACD2AF2215
:107D0D00C2001281977B017A00791190023474328E
:107D1D00F0A3E4F0A37432F07F161280B57B017AE4
:107D2D00007911E4900244F0A37432F07F161284AE
:107D3D0046127C7612894B9000C8E4F0A37406F0CD
:107D4D00D201E4FBFA7D507F30FE127968E4900099
:107D5D0041F0125E6D900100E060031274B73018AF
:107D6D0003121523301B05C21B125B892000E69000
:107D7D000041E030E7DF7BFF7A747917E490023C35
:107D8D00F0A3F0D208D2097D087FD8FE12583AD25E
:037D9D000080C2A1
:03003B000267DB7E
:1067DB00C0E0C0F0C083C082C0D075D000C004C080
:0567EB0005C006C00717
:1067F000C2DF20D8030268FDC2D8900108E024401F
:10680000F0900107E0349CF0E0FEA3E0F5EAEEF53D
:10681000FA900010E004F0900106E004F070069099
:106820000105E004F0900002E004F0C3900106E0EE
:106830009432900105E09400405ED218E4F0A3F099
:1068400053D17FAFD2EFFEADD37C00E42DFFEC3E01
:106850009000CBF0A3EFF075D20075D30043D18048
:10686000C28EAF8DEFFEAD8BE42DFFEC3E90008C21
:10687000F0A3EFF0758D00758B00D28EC28CAF8CBB
:10688000EFFEAD8AE42DFFEC3E9000CFF0A3EFF0D9
:10689000758C00758A00D28C900002E0B40508D295
:1068A000F8D2C9D2B6D2C8900010E06402704EF09F
:1068B000A2FD82FC82FE82FF82C5403D30113690EF
:1068C0000001E025E0F0900000E033F030162E12D9
:1068D0008608900100EFF0C2F8900002E4F090000A
:1068E000CAE0B4060C900041E04480F0900100E45E
:0D68F000F0C2168008D2118004D216C21129
:1068FD00D007D006D005D004D0D0D082D083D0F030
:03690D00D0E032A5
:10567800B2E220C1BF20C3A600C6E4CBFBB2E2C1A0
:10568800BFBDF8D0D0D6D02100B7B5BBD800B2E2A4
:10569800C1BFD6D00043503AD7DC3A2D2D2D004358
:1056A800732D3133373A2D2D2D00492D3133313AB1
:1056B8002D2D2D0043504D3AD7DC3A2D2D2D00B21B
:1056C800E220C1BF20D6D000D6D0D6B900CFEAC7D5
:1056D800E900424B473A25642530346400563A25A0
:1056E800646D6C004D3A253034646720563A256461
:1056F8006D6C0043732D3133373A00BEABB6C83AF0
:105708002D2D2500492D3133313A00CDEA20B3C97A
:1057180000B1A3B4E600D6D8B2E200543A00CAA752
:1057280020B0DC202100B2E2C1BFCAA7B0DC210052
:10573800B1BE20B5D720B2E220C1BF00BFAACABC03
:10574800B2E2C1BF003120C7EBBDABD7BCB1B8BA1C
:10575800C3B5C4B4BFBEBBCBAEB5B9C8EBC8DDC614
:10576800F700C4DA2E003220B0B4BFAACABCBCFC11
:10577800C6F4B6AFB1BEB5D7B2E2C1BF2E0020CCD9
:10578800E520D1F920C6B720D0C520CFA200CAB1E4
:10579800BCE4B9FDB6CC2100000000000000000008
:1057A8000000B1BEB5D7B9FDB4F321000000000078
:1057B800000000000000D0A3D7BCB2E2C1BFB4CE45
:1057C800CAFDB9FDC9D921000000585858585820B9
:1057D8004300000058585858582043504D00585816
:1057E800582042712F4C00005858582042712F4CB5
:1057F80000005858582042712F4B670058585820BD
:1058080042712F4B67005858582043504D000000F4
:105818005858582043504D000000B1BE20B5D7005D
:10582800D2BA20CCE500B9CC20CCE500D0A320D753
:02583800BC00B2
:10868E00E4F5D2F5D3F58CF58AF58DF58B9000D106
:10869E001227F6000000009000D61227F600000008
:1086AE00009001011227F600000000E4900042F055
:0C86BE00A3F0A3F0900041E04440F02243
:107AA60090023B74B8F0E4A3F0A3F0D2087B407ACE
:107AB600017D20FFFE1276D07BFF7A567978E4901E
:107AC600023CF0A3F0D208D2097D3C7F50FE12584A
:107AD6003A7BFF7A567981E490023CF0A3F0D20813
:107AE600D2097D807F3CFE12583A7BFF7A56799107
:107AF600E490023CF0A3F0D208D2097DC87F087E4C
:107B06000112583A7BFF7A567996E490023CF0A32C
:107B1600F0D208D2097D787F087E0112583A900289
:107B26003574B8F0E4A3F0A3F0D2087BF0FA7D2018
:0C7B3600FFFE12506D9000CD7411F02283
:10877400EF24FB60172402701E900041E030E403F4
:10878400128810900041E054EFF08004900041E022
:08879400540304FF12874C227C
:106FA900900227EFF09000CD7443F090023B747883
:106FB900F0E4A3F0A3F0D2087B407A017D50FFFEF4
:106FC9001276D07BFF7A567991E490023CF0A3F0D7
:106FD900D208D2097DC87F087E0112583A9002353D
:106FE90074B8F0E4A3F0A3F0D2087BF0FA7D20FF97
:106FF900FE12506D7BFF7A56799DE490023CF0A316
:10700900F0D208D2097D507F38FE12583A7BFF7AB8
:107019005679A7E490023CF0A3F0D208D2097D6426
:107029007F50FE12583A7BFF7A5679B2E490023CBF
:10703900F0A3F0D208D2097D787F50FE12583A7B2E
:10704900FF7A5679BCE490023CF0A3F0D208D20949
:107059007D967F38FE12583A900227E06404603228
:107069007BFF7A5679A7E490023CF0A3F0D208D2CC
:10707900097DAA7F58FE12583A7BFF7A5679B2E405
:1070890090023CF0A3F0D208D2097DBE7F58FE12CF
:03709900583A2240
:0A36BA00900041E0540304FFD20623
:0536C40090022FEFF061
:1036C900200603023AA343D1809000CD7414F0C2BE
:1036D9001290023B74B8F0E4A3F0A3F0D2087B4047
:1036E9007A017D20FFFE1276D07BFF7A5679C7E4F6
:1036F90090023CF0A3F0D208D2097D3C7F6CFE1207
:10370900583A7BFF7A5679D0E490023CF0A3F0D284
:1037190008D2097D787F087E0112583A7BFF7A56D4
:1037290079D5E490023CF0A3F0D208D2097D507F0C
:10373900087E0112583A7BFF7A567991E490023C4F
:10374900F0A3F0D208D2097DC87F087E0112583A49
:1037590090023974FFF0A37456F0A374DAF0E47B95
:10376900107A27F9F8900015E0FCA3E0FDA3E0FE2C
:10377900A3E0FF12270C90023CEEF0A3EFF0E47BEC
:10378900107A27F9F8900015E0FCA3E0FDA3E0FE0C
:10379900A3E0FF12270CAF0390023EEAF0A3EFF07B
:1037A9007B017A007903123BC37B017A007903E438
:1037B90090023CF0A3F0D208D2097DDCFFFE12583A
:1037C9003AD20790022FE024FE6028146062147038
:1037D9000302388B240360030238897BFF7A567908
:1037E90096E490023CF0A3F0D208D2097DDC7F2058
:1037F90002388390023974FFF0A37456F0A374E57C
:10380900F0900021E0FFA3E090023CCFF0A3EFF09D
:103819007B017A007903123BC37B017A007903E4C7
:1038290090023CF0A3F0D208D2097DDC7F82804A65
:1038390090023974FFF0A37456F0A374ECF0900071
:1038490023E0FFA3E090023CCFF0A3EFF09000212A
:10385900E0FFA3E090023ECFF0A3EFF07B017A00F6
:1038690079DA123BC37B017A0079DAE490023CF001
:10387900A3F0D208D2097DDC7F60FE12583A80029B
:10388900C20730072590022FE075F006A4241CF921
:10389900745835F0FA7BFFE490023CF0A3F0D208AB
:1038A900D2097D3C7F3CFE12583A90022FE0FF641A
:1038B90001704CEF1425E075F00AA424D2F974576D
:1038C90035F0FA7BFFE490023CF0A3F0D208D2096C
:1038D9007D747F54FE12583A90022FE01425E0754A
:1038E900F00AA424DCF9745735F0FA7BFFE490025E
:1038F9003CF0A3F0D208D2097D8C7F4C023A9C900F
:10390900022FE01425E075F00AA424D2F974573582
:10391900F0FA7BFFE490023CF0A3F0D208D2097DD3
:10392900687F74FE12583A90022FE01425E075F072
:103939000AA424DCF9745735F0FA7BFFE490023CC1
:10394900F0A3F0D208D2097D9E7F74FE12583A7B0B
:10395900FF7A5679FBE490023CF0A3F0D208D20931
:103969007D567F24FE12583A7BFF7A577903E490FB
:10397900023CF0A3F0D208D2097D787F28FE1258C4
:103989003A90023974FFF0A37456F0A374DAF0E4A4
:103999007B107A27F9F8900019E0FCA3E0FDA3E079
:1039A900FEA3E0FF12270C90023CEEF0A3EFF0E437
:1039B9007B107A27F9F8900019E0FCA3E0FDA3E059
:1039C900FEA3E0FF12270CAF0390023EEAF0A3EF3B
:1039D900F07B017A0079DA123BC37B017A0079DA4C
:1039E900E490023CF0A3F0D208D2097D787F78FEFA
:1039F90012583A7BFF7A57790CE490023CF0A3F015
:103A0900D208D2097D907F2CFE12583A7BFF7A5753
:103A19007903E490023CF0A3F0D208D2097DB47F87
:103A290028FE12583A90023974FFF0A37456F0A395
:103A390074DAF0E47B107A27F9F890001DE0FCA312
:103A4900E0FDA3E0FEA3E0FF12270C90023CEEF09C
:103A5900A3EFF0E47B107A27F9F890001DE0FCA3AE
:103A6900E0FDA3E0FEA3E0FF12270CAF0390023EA6
:103A7900EAF0A3EFF07B017A0079DA123BC37B010C
:103A89007A0079DAE490023CF0A3F0D208D2097DF9
:103A9900B47F78FE12583A023B2E9000CD7415F08F
:103AA9007BFF7A577913E490023CF0A3F0D208D255
:103AB900097D3C7F9CFE12583A7BFF7A5679D5E402
:103AC90090023CF0A3F0D208D2097D507F087E0114
:103AD90012583A7BFF7A577919E490023CF0A3F027
:103AE900D208D2097DA07F087E0112583A7BFF7A5D
:103AF90057791EE490023CF0A3F0D208D2097D78F0
:103B09007F087E0112583A90022FE0B40117900203
:103B19003B7410F0E4A3F0A3F0D2087B50FA7DDCEB
:103B2900FFFE1276D07BFF7A577923E490023CF0AE
:103B3900A3F0D208D2097DDC7FE8FE12583A900240
:103B49003574B8F0E4A3F0A3F0D2087BF0FA7D2035
:053B5900FFFE02506DAB
:055FD600900225EDF032
:105FDB00EF24FD601624FE70030261152403600399
:105FEB0002613A900225E0FF026FA9900041E05454
:105FFB00BFF0A3E075F03CA4FFA3E02FFFD390000C
:10600B0026E09F900025E094005003026101C21727
:10601B00E4900226F09000CD7415F090023B74785A
:10602B00F0E4A3F0A3F0D2087B407A017D50FFFE91
:10603B001276D0900226E075F014A42496F97457CA
:10604B0035F0FA7BFFE490023CF0A3F0D208D209C2
:10605B007D907F50FE12583A7BFF7A577926E49059
:10606B00023CF0A3F0D208D2097D607F60FE12588B
:10607B003A7BFF7A57791EE490023CF0A3F0D208EA
:10608B00D2097D787F087E0112583A7BFF7A5679C8
:10609B0091E490023CF0A3F0D208D2097DC87F08AE
:1060AB007E0112583A7BFF7A5679D5E490023CF088
:1060BB00A3F0D208D2097D507F087E0112583A9086
:1060CB000225E0B401197BFF7A57792EE490023C4C
:1060DB00F0A3F0D208D2097DDC7F20FE12583A9053
:1060EB00023574B8F0E4A3F0A3F0D2087BF0FA7D8C
:1060FB0020FFFE02506D900041E0FE540304FFEEC2
:10610B00A2E692061236C4D21722900041E020E696
:10611B00047E0180027E00900225E0FFB404047D22
:0F612B000180027D00ED4E600302874C125E6D15
:01613A002242
:10839700900225EDF0A3EBF0EF24FD601214603797
:1083A70014604224037046900225E0FF026FA91271
:1083B700868E90023B7418F0E4A3F0A3F0D2087BFA
:1083C700407A017DD8FFFE1276D0900041E0540339
:1083D70004FFD2060236C4900226E0601090022500
:0E83E700E0FF028578900225E0FF12874C220D
:1086F900EF24FB7024AF05D2061236C4900041E086
:1087090020E6169000CD7414F0121523900041E074
:0A871900540304FD7F03125FD62213
:106B7400900041E030E61430E607540304FFBF01FF
:106B84000A900041E020E403026C9A9000CD741056
:106B9400F0900041E0FF20E41830E60E5403046452
:106BA400016007E04410F01287EA900041E054FCD1
:106BB400F090023B74B8F0E4A3F0A3F0D2087B4059
:106BC4007A017D20FFFE1276D0900041E020E61885
:106BD40090023B7418F0E4A3F0A3F0D2087B407A4F
:106BE400017DD8FFFE1276D07BFF7A577938E49086
:106BF400023CF0A3F0D208D2097D3C7F48FE125833
:106C04003A7BFF7A577944E490023CF0A3F0D2082F
:106C1400D2097D287FF8FE12583A7BFF7A56799183
:106C2400E490023CF0A3F0D208D2097DC87F087E2C
:106C34000112583A7BFF7A57794DE490023CF0A355
:106C4400F0D208D2097D707F08FE12583A7BFF7A91
:106C540057796AE490023CF0A3F0D208D2097D820D
:106C64007F18FE12583A7BFF7A57796EE490023C03
:106C7400F0A3F0D208D2097D947F08FE12583A900E
:106C8400023574B8F0E4A3F0A3F0D2087BF0FA7DE7
:0A6C940020FFFE02506D1236BA22F6
:107B420090022EEFF0900041E030E61530E60B5443
:107B52000304FF90022EE0B50707900041E030E4F5
:107B620077900041E020E43730E615540304FF909B
:107B7200022EE06F600A900041E04410F01287EAA2
:107B820090022EE0FD900041B40208E054FD440151
:107B9200F08006E054FE4402F0ED149000C4F09030
:107BA200023B74B8F0E4A3F0A3F0D2087B407A0160
:107BB2007D20FFFE1276D07BFF7A577986E4900211
:107BC2003CF0A3F0D208D2097D3C7F46FE12583A1F
:0C7BD2009000C4E0FF0229271236BA22FE
:10733200900042E0FF7E007C0E7D101225C3AC0659
:10734200AD07A3E075F03CA42DFFEC35F0FEA3E001
:107352007C002FFFEC3E900225F0A3EFF0E47F3C8F
:10736200FEFD900101E0F8A3E0F9A3E0FAA3E0FB3F
:10737200122681C006C007900225E0FEA3E0FBAA08
:1073820006E4F9F8D007D00612270C90004D122718
:10739200EAE47F3CFEFDFC9000D6E0F8A3E0F9A30E
:1073A200E0FAA3E0FB122681C006C007900225E0A6
:1073B200FEA3E0FBAA06E4F9F8D007D00612270CD8
:1073C20090008E1227EAE47F3CFEFDFC9000D1E0A3
:1073D200F8A3E0F9A3E0FAA3E0FB122681C006C0FD
:1073E20007900225E0FEA3E0FBAA06E4F9F8D00725
:0B73F200D00612270C9000850227EA4D
:10654A00D2BA00CCE5BBFD3A006D6C00253034644C
:10655A0000B9CC00D6CAC1BF3A00670025303464FE
:10656A0025632530346400B2E220C1BF00B2E2C123
:10657A00BFCAB1BCE43A00B2E2C1BFBEABB6C83AC8
:10658A0000B1A8BEAFE3D0D6B53A00B7D6D6D3008D
:10659A00250042712F4C0042712F4B670025303481
:1065AA0064256325303264256325303464256325E8
:1065BA0030346400CFB520CDB30043732D31333767
:1065CA003A0020492D3133313A00CAB12020BCE4C7
:1065DA003A20002020202048563A2000202020413E
:1065EA004D503A2000252E32662563252E32662527
:1065FA0063253032782F253032782F2530327825AE
:10660A0063253032783A2530327825632530346470
:10661A00256325303464002B0023002D00B7B5BB59
:10662A00D800C8B7C8CF00256600256400257800C1
:10663A00D0DEB8C4B3C9B9A62100B2E2C1BFB2CE96
:10664A00CAFD00CFB5CDB3B2CECAFD00B2E2C1BF1A
:10665A00D6D000D2C7C6F7D0A3D7BC00B2CE20CAC4
:10666A00FD20C9E820D6C320D1A120D4F100B0B4BE
:10667A00CFC2D3D2B2E0B0B4BCFCBDF8C8EBCFE015
:10668A0000D3A6B2CECAFDB5F7D5FBD2B3C3E60096
:108204009000CD7441F0900089E024DAF582E434E2
:1082140000F583E0900003F0E4A3F09000C5E0FFD4
:108224007E009000C6E0FD7B017A0079DAE49002DA
:108234003CF0A3F0D208D20912583A90008AE0FF29
:108244009000C5E02FFF7E0090008BE0FD9000C6FB
:10825400E02DFD7B017A007903E490023CF0A3F069
:07826400C208C20902583AEA
:1029270090022FEFF0E4900089F090008BF0900078
:102937008AF0900041E020E61890023B7418F0E41A
:10294700A3F0A3F0D2087B407A017DD8FFFE127670
:10295700D090022FE024FE7003022A0014700302B5
:102967002B2B147003022CD124036003022F6D7BE1
:10297700FF7A65794AE490023CF0A3F0D208D209C5
:102987007D3C7F30FE12583A7BFF7A65794DE490A3
:10299700023CF0A3F0D208D2097D707F40FE1258A6
:1029A7003A7BFF7A657953E490023CF0A3F0D208B2
:1029B700D2097D707F88FE12583AD3900022E094A6
:1029C7000F900021E0942740157B017A007915903C
:1029D70002447436F0A3740EF07F161284469002F8
:1029E7003974FFF0A37465F0A37456F0900021E0EA
:1029F700FFA3E090023C022AF07BFF7A65795BE453
:102A070090023CF0A3F0D208D2097D3C7F30FE1241
:102A1700583A7BFF7A65795EE490023CF0A3F0D2E6
:102A270008D2097D707F40FE12583A7BFF7A65799C
:102A37004DE490023CF0A3F0D208D2097D847F4098
:102A4700FE12583A7BFF7A657964E490023CF0A362
:102A5700F0D208D2097D707F88FE12583A7BFF7A40
:102A6700657953E490023CF0A3F0D208D2097D8443
:102A77007F88FE12583AD3900024E0940F900023E9
:102A8700E0942740157B017A00791590024474364B
:102A9700F0A3740EF07F16128446D3900022E094C0
:102AA7000F900021E0942740157B017A007921904F
:102AB70002447444F0A37402F07F16128446900215
:102AC7003974FFF0A37465F0A37466F0900023E0F7
:102AD700FFA3E090023CCFF0A3EFF0A3740DF090BA
:102AE7000021E0FFA3E090023FCFF0A3EFF07B01CE
:102AF7007A0079DA123BC390000FEFF07B017A007E
:102B070079DAE490023CF0A3F0D208D2097D707F15
:102B170068FE12583A9000C57468F09000C6747049
:102B2700F0022F6D7BFF7A657971E490023CF0A388
:102B3700F0D208D2097D3C7F30FE12583A7BFF7AEB
:102B4700657977E490023CF0A3F0D208D2097D6062
:102B57007F30FE12583A7BFF7A657981E490023C18
:102B6700F0A3F0D208D2097D747F30FE12583A7B69
:102B7700FF7A65798BE490023CF0A3F0D208D20982
:102B87007D887F30FE12583A7BFF7A657995E4900D
:102B9700023CF0A3F0D208D2097D607FACFE125848
:102BA7003A7BFF7A65799AE490023CF0A3F0D20869
:102BB700D2097D747FA4FE12583A7BFF7A65799C0F
:102BC700E490023CF0A3F0D208D2097D887FB4FEDE
:102BD70012583A7BFF7A6579A1E490023CF0A3F0A2
:102BE700D208D2097D9C7FB4FE12583AD3900026B2
:102BF700E0940F900025E0942740157B017A007937
:102C0700259002447446F0A37402F07F161284469E
:102C1700900027E0FF7463C39F50157B017A00790A
:102C2700279002447448F0A37401F07F161284467B
:102C3700D390002AE0940F900029E0942740157B59
:102C4700017A007929900244744AF0A37402F07F54
:102C570016128446D390002CE0940F90002BE0943A
:102C67002740157B017A00792B900244744CF0A31E
:102C77007402F07F1612844690023974FFF0A37431
:102C870065F0A374A7F0900025E0FFA3E090023C55
:102C9700CFF0A3EFF0A3740DF0900027E0FF9002B0
:102CA7003FE4F0A3EFF0A3740DF0900029E0FFA339
:102CB700E0900242CFF0A3EFF0A3740DF090002B49
:102CC700E0FFA3E0900245022F357BFF7A6579BECE
:102CD700E490023CF0A3F0D208D2097D3C7F30FE9D
:102CE70012583A7BFF7A6579C4E490023CF0A3F06E
:102CF700D208D2097D607F38FE12583A7BFF7A6589
:102D070079CCE490023CF0A3F0D208D2097D747F1D
:102D170038FE12583A7BFF7A6579D4E490023CF08A
:102D2700A3F0D208D2097D887F38FE12583A7BFF7C
:102D37007A6579DDE490023CF0A3F0D208D2097DF0
:102D4700B07F38FE12583A7BFF7A6579E6E4900245
:102D57003CF0A3F0D208D2097DC47F38FE12583A5E
:102D670090002DE0FCA3E0FDA3E0FEA3E0FFE4FB61
:102D7700FAF9F8122154600840067F01C007800461
:102D87007F00C00790002DE0FCA3E0FDA3E0FEA3B9
:102D9700E0FFE4FBFA7980783F12215450047E016A
:102DA70080027E00D0E04E60157B017A00792D907D
:102DB7000244744EF0A37404F07F16128446900008
:102DC70031E0FCA3E0FDA3E0FEA3E0FFE4FBFAF99A
:102DD700F8122154600840067F01C00780047F0075
:102DE700C007900031E0FCA3E0FDA3E0FEA3E0FFF5
:102DF700E4FBFA7980783F12215450047E01800267
:102E07007E00D0E04E60157B017A00793190024454
:102E17007452F0A37404F07F1612844690003BE0CE
:102E2700FEA3E0FFC3942CEE940150047D018002C1
:102E37007D00D3EF9484EE940340047F0180027FEA
:102E470000EF4D60157B017A00793B900244745C7A
:102E5700F0A37402F07F16128446D390003EE094EC
:102E67000F90003DE0942740157B017A00793D9053
:102E77000244745EF0A37402F07F16128446900237
:102E87003974FFF0A37465F0A374EFF090002DE0A0
:102E9700FCA3E0FDA3E0FEA3E0FF90023C1227EABB
:102EA700900240740DF0900031E0FCA3E0FDA3E038
:102EB700FEA3E0FF9002411227EA900245740DF04D
:102EC700900035E0FF900246E4F0A3EFF090003663
:102ED700E0541FFF900248E4F0A3EFF0900037E0C2
:102EE700543FFF90024AE4F0A3EFF0A3740DF09073
:102EF7000038E0543FFF90024DE4F0A3EFF090005C
:102F070039E0547FFF90024FE4F0A3EFF0A3740D74
:102F1700F090003BE0FFA3E0900252CFF0A3EFF068
:102F2700A3740DF090003DE0FFA3E0900255CFF0B1
:102F3700A3EFF07B017A0079DA123BC390000FEF21
:102F4700F07B017A0079DAE490023CF0A3F0D20832
:102F5700D2097D607F84FE12583A9000C57484F0D0
:102F67009000C67460F07BFF7A667921E49002399D
:102F7700F0A3F0D2067D287F147E01126A4E7BFFF4
:102F87007A667923E4900239F0A3F0D2067D507F68
:102F9700147E01126A4E7BFF7A667925E490023926
:102FA700F0A3F0D2067D787F147E01126A4E7BFF74
:102FB7007A667927E490023CF0A3F0D208D2097D23
:102FC700C87F087E0112583A7BFF7A66792CE49015
:102FD700023CF0A3F0D208D2097DA07F087E01123F
:102FE700583A90023574B8F0E4A3F0A3F0D2087B06
:0C2FF700F0FA7D20FFFE12506D028204F3
:0530030090021EEDF03B
:10300800EF24FE70030230921460491470030231F9
:1030180046147003023680240460030236B9900017
:1030280089E0FF24DAF582E43400F583E004F074E3
:10303800DA2FF582E43400F583E0FF7439C39F503A
:1030480046900089E024DAF582E43400F583743090
:10305800F0023143900089E0FF24DAF582E434007D
:10306800F583E014F074DA2FF582E43400F583E098
:10307800FF7430D39F4010900089E024DAF582E491
:103088003400F5837439F0023143900089E004F08C
:1030980090008AE02408F090000FE0FF900089E09B
:1030A800C39F400AE4F090008AF090008BF09000F3
:1030B80089E024DAF582E43400F583E0FFB42F04D4
:1030C8007E0180027E00EFB40D047F0180027F0044
:1030D800EF4EFF900089E024DAF582E43400F583AE
:1030E800E0FEB42E047D0180027D00ED4FFFEEB4BA
:1030F8003A047E0180027E00EE4F603F900089E036
:1031080024DAF582E43400F583E0B40D2190008BD5
:10311800E02414F090021EE09074B293FF90008BAC
:10312800E0C39F4002E4F0E490008AF0800790003A
:103138008AE02408F0900089E004F0028204E49018
:103148000223F090021EE024FE6013147003023282
:1031580074147003023274240360030236B99000B9
:1031680041E030E40302327112868E90021EE09034
:1031780002287401F0A37400F0A37421F0E4900213
:103188001FF0A3F090000FE0FF90021FE0FEC39F26
:10319800400302321A74DA2EF582E43400F583E033
:1031A800B40D4490023074FFF0A37465F0A3745614
:1031B800F0900228E0F9A3E0FAA3E0900233C9F006
:1031C800A3EAF0A3E9F07B017A0079031247D790CC
:1031D8000229E475F00212260B90022074FFF09089
:1031E8000223E004F0801E90021FE024DAF582E456
:1031F8003400F583E0FF900220E02403F582E434F4
:1032080000F583EFF090021FE004F0A3E004F00261
:10321800318C90023074FFF0A37465F0A37456F0FB
:10322800900228E0F9A3E0FAA3E0900233C9F0A3E2
:10323800EAF0A3E9F07B017A0079031247D79002FC
:1032480023E004F07B017A0079219002347410F0B5
:10325800A3E4F0A37404F07F161280B5900041E057
:10326800540304FFD2060236C4027AA690021EE076
:10327800900228B4030D7401F0A37400F0A3742520
:10328800F0800B7401F0A37400F0A3742DF0900289
:1032980028E0F9A3E0FAA3E0900225C9F0A3EAF038
:1032A800A3E9F0E490021FF0A3F090000FE0FF9074
:1032B800021FE0FEC39F400302355174DA2EF582E7
:1032C800E43400F583E0FFB42F047E0180027E0021
:1032D800EFB40D047F0180027F00EF4EFF90021FC4
:1032E800E024DAF582E43400F583E0B43A047E01A0
:1032F80080027E00EE4F7003023526900228E0FB24
:10330800A3E0FAA3E0F9EB8A8389826401700A7466
:103318002D658270047400658370047F0180027FCC
:1033280000900228E0FBA3E0FAA3E0F9EB8A838986
:10333800826401700A743165827004740065837058
:10334800047E0180027E00EE4F6054900220E0FF70
:10335800C39408501474032FF582E43400F583E411
:10336800F0900220E004F080E290023074FFF0A3B5
:103378007466F0A37431F0900228E0F9A3E0FAA390
:10338800E0900233C9F0A3EAF0A3E9F07B017A00E8
:1033980079031247D7900229E475F0040235159095
:1033A8000228E0FBA3E0FAA3E0F9EB8A83898264B0
:1033B80001700A742565827004740065836040900A
:1033C8000228E0FBA3E0FAA3E0F9EB8A8389826490
:1033D80001700A7429658270047400658360209006
:1033E8000228E0FBA3E0FAA3E0F9EB8A8389826470
:1033F80001700A743B658270047400658370549090
:103408000220E0FFC39408501474032FF582E434BB
:1034180000F583E4F0900220E004F080E2900230AE
:1034280074FFF0A37465F0A37456F0900228E0F9D5
:10343800A3E0FAA3E0900233C9F0A3EAF0A3E9F00D
:103448007B017A0079031247D7900229E475F002CC
:10345800023515900220E0FFC39408501474032F1E
:10346800F582E43400F583E4F0900220E004F08073
:10347800E290021EE0900230B4030C74FFF0A374D3
:1034880066F0A37434800A74FFF0A37466F0A37422
:1034980037F0A37401F0A37402F0A3742BF07B013E
:1034A8007A0079031247D790022BA3E0FF900228F5
:1034B800E0FBA3E0FAA3E0F9EF1225B1900228E0BF
:1034C800FBA3E0FAA3E0F9EB8A8389826401700A1E
:1034D800743965827004740065836020900228E066
:1034E800FBA3E0FAA3E0F9EB8A8389826401700AFE
:1034F80074276582700474006583700A900229E459
:1035080075F00112260B900229E475F00112260BC2
:1035180090022074FFF0900223E004F0801E9002D5
:103528001FE024DAF582E43400F583E0FF900220FE
:10353800E02403F582E43400F583EFF090021FE005
:1035480004F0A3E004F00232B2900223E004F09009
:10355800023074FFF0A37465F0A37456F09002284B
:10356800E0F9A3E0FAA3E0900233C9F0A3EAF0A3DC
:10357800E9F07B017A0079031247D790021EE0B484
:1035880003139002217414F0A37408F090022474B9
:1035980004F0023637900036E0D3941140037412D9
:1035A800F0900037E0D3943040037431F090003845
:1035B800E0D3942240037423F0900039E0D3945868
:1035C80040037459F07B017A0079397D061284E250
:1035D80090003BE0FCA3E0FDE41221C6A804A90585
:1035E800AA06AB077F667E967D9C7C44121FBF7B34
:1035F800E57AD0799A783F1220B71221FF90010915
:10360800EEF0A3EFF07B017A0179097F007E0412C6
:1036180063F47B017A00793D7F007E0412629E90FC
:103628000221741CF0A37412F09002247409F09023
:103638000225E0FBA3E0FAA3E0F9900221E0900262
:1036480034F0900222E0FF900235E4F0A3EFF07F1F
:10365800161280B57BFF7A66793AE490023CF0A3B3
:10366800F0D208D2097DC07FA4FE12583A90021EFB
:10367800E0FF122927D2152290021EE024FE600ADC
:1036880014602914602624037027900041E0FF701D
:10369800047E0180027E00EE20E607EF30E403128C
:1036A8008810900041E054EFF0025E6D7F041287AD
:0136B8004CC5
:0136B90022EE
:10669A009000CD7410F0900041E0FF30E60E5403F4
:1066AA000464046007E04410F01287EA900041E0B5
:1066BA004403F090023B74B8F0E4A3F0A3F0D208CC
:1066CA007B407A017D20FFFE1276D0900041E07077
:1066DA00047F0180027F00EF30E61890023B7418B5
:1066EA00F0E4A3F0A3F0D2087B407A017DD8FFFE44
:1066FA001276D090023574B8F0E4A3F0A3F0D20871
:10670A007BF0FA7D20FFFE12506D7BFF7A6679449A
:10671A00E4900234F0A3F0D2067D507FF8FE126CAA
:10672A009E7BFF7A66794DE4900234F0A3F0D2069C
:10673A007D787FF8FE126C9E900041E030E61A20C8
:10674A00E4177BFF7A667956E4900234F0A3F0D21C
:10675A00067DA07F047E0180147BFF7A66795DE462
:10676A00900234F0A3F0D2067DA07FF8FE126C9E50
:10677A007BFF7A667927E490023CF0A3F0D208D234
:10678A00097DC87F087E0112583A7BFF7A667966CE
:10679A00E490023CF0A3F0D208D2097D3C7F30FE9F
:1067AA0012583A7BFF7A667978E4900234F0A3F0C3
:1067BA00D2067D707F10FE126C9E7BFF7A66798B03
:1067CA00E4900234F0A3F0D2067D887F10FE026CBA
:0167DA009E20
:107625002532642F253264002532642025303264EA
:107635002F253032782F2530327820202020202029
:10764500202020253032783A253032780043504DBD
:107655003A25642530346400543A253032643A259D
:107665003032643A253032640043732D3133373A72
:107675002564253034646442672F4B6700492D31FA
:1076850033373A2564253034646442672F4B6700ED
:10769500C0FA20CAB720BCC720C2BC00B7B5BBD84A
:1076A500003C5F003D3E00B5BCB3F600C9BEB3FD6E
:1076B500002300B1A3B4E6CAA7B0DC2100C8B7C84F
:0B76C500CF0020C9BEB3FD203F200015
:046E98004102700043
:0B7FC5009000FFE0FF9000CEE014FDF4
:107FD00090022EEFF0A3EDF07B017A00793FE49060
:107FE0000244F0A37402F0E4FF1284469002397454
:107FF000FFF0A37476F0A37425F090022FE025E043
:10800000FF90022EE02F04FF90023CE4F0A3EFF07B
:1080100090003FE0FFA3E090023ECFF0A3EFF07BA3
:10802000017A007903123BC37B017A007903E49063
:10803000023CF0A3F0D208D2097D287FC8FE025886
:018040003A05
:0B59E500900237EBF0A3EAF0A3E9F01A
:1059F000E490023EF0EF1425E0FF90023AE0FBA3B2
:105A0000E0FAA3E0F9EF1225B17B017A007951E4C5
:105A1000900244F0A37408F0E4FF12844690005111
:105A2000E0FF90003FE4F0A3EFF0900057803C903F
:105A3000023EE0FF7B017A0079589002447407F03F
:105A4000A37402F012844690023AE0FBA3E0FAA3AA
:105A5000E0F9122549FF900059E0FEEFC39E500285
:105A60008010C3EF9E1225B1900058E090023EF0E6
:105A700080BD900058E090023FF090023EE0FF7B36
:105A8000017A02793D9002447409F0A37401F01286
:105A9000844690023DE075F019A42424F09002376A
:105AA000E0FBA3E0FAA3E0F9E41225B1900237E0AD
:105AB000FBA3E0FAA3E0F9122549FF640270030298
:105AC0005B8890023AE0FBA3E0FAA3E0F9122549D3
:105AD0007076EF75F019A42451F9740035F0FA7B53
:105AE0000190023DE024E8900244F0A37419F09084
:105AF000023EE0FF128446900237E0FBA3E0FAA3E7
:105B0000E0F912254975F019A42469F582E43400FE
:105B1000F583E090023DF0740112258F90023DE084
:105B2000F4705790023FE0FFF4605D7B017A0279E8
:105B30003D9002447409F0A37401F012844690026F
:105B40003FE090023EF0803290023AE0FBA3E0FAA0
:105B5000A3E0F974FF12258F90023EE0FF7B017AEB
:105B600000795190023DE0900244F0A37401F012DC
:105B70008446900051E090023DF090023DE075F0C7
:085B800019A42424F0025AAC20
:015B880022FA
:055D030035F0FA7B0100
:0B5D0800900236EBF0A3EAF0A3E9F0F4
:105D1300A37405F0A3E0F8A3E0F9A3E0FAA3E0FB82
:105D2300C001C002C003900236E0FBA3E0FAA3E087
:105D3300F9122549FFD003D002D001EB4FFFEAFE51
:105D4300E9FDE8FC90023A1227EA90023AE0FCA34C
:105D5300E0FDA3E0FEA3E0FF78081227BD90023A1E
:105D63001227EA900237E475F00112260B90023AEB
:105D7300E0F8A3E0F9A3E0FAA3E0FBC001C002C08E
:105D830003900236E0FBA3E0FAA3E0F9122549FFF2
:105D9300D003D002D001EB4FFFEAFEE9FDE8FC900F
:105DA300023A1227EA90023AE0FCA3E0FDA3E0FEE8
:105DB300A3E0FF78081227BD90023A1227EA900267
:105DC30037E475F00112260B90023AE0F8A3E0F9EC
:105DD300A3E0FAA3E0FBC001C002C003900236E0D7
:105DE300FBA3E0FAA3E0F9122549FFD003D002D0C8
:105DF30001EB4FFFEAFEE9FDE8FC90023A1227EAC5
:105E030090023AE0FCA3E0FDA3E0FEA3E0FF7808E4
:105E13001227BD90023A1227EA900237E475F00187
:105E230012260B90023AE0F8A3E0F9A3E0FAA3E00C
:105E3300FBC001C002C003900236E0FBA3E0FAA35B
:105E4300E0F9122549FFD003D002D001EB4FFFEA5E
:105E5300FEE9FDE8FC90023A1227EA90023AE0FCE0
:095E6300A3E0FDA3E0FEA3E0FFB3
:015E6C002213
:0543E9009000CEE0FF92
:0543EE0090022EEFF02B
:1043F300E4900234F07B0190023A04F0A37402F0DB
:10440300A37433F07A0279351259E590023B747044
:10441300F0E4A3F0A3F0D2087BC8FA7D607F10FE1E
:104423001276D0900234E0FFA3E06F700302474D91
:1044330090023974FFF0A37476F0A3742DF0900208
:104443002EE01425E0FF900234E0FE2F04FD9002DD
:104453003CE4F0A3EDF0EE75F019A42451F582E4E9
:104463003400F583E0FF90023EE4F0A3EFF0900206
:1044730034E0FF75F019A42452F582E43400F58387
:10448300E0FD900240E4F0A3EDF0EF75F019A424F1
:1044930053F582E43400F583E0FF900242E4F0A395
:1044A300EFF0900234E0FF75F019A42454F582E490
:1044B3003400F583E0FD900244E4F0A3EDF0EF75E2
:1044C300F019A42455F582E43400F583E0FF90024B
:1044D30046E4F0A3EFF07B017A0079DA123BC39054
:1044E3000234E0C4333354C02450FD7B017A007995
:1044F300DAE490023CF0A3F0D208D2097F10FE1256
:10450300583A900234E075F019A42461F97400124A
:104513005D0390022F1227EA90023974FFF0A3740F
:1045230076F0A37452F0E47B107A27F9F890022F07
:10453300E0FCA3E0FDA3E0FEA3E0FF12270C900242
:104543003CEEF0A3EFF0E47B107A27F9F890022F0A
:10455300E0FCA3E0FDA3E0FEA3E0FF12270CAF0302
:1045630090023EEAF0A3EFF07B017A0079DA123B86
:10457300C3900234E0C4333354C02460FD7B017A1A
:104583000079DAE490023CF0A3F0D208D2097F2844
:10459300FE12583A90023974FFF0A37476F0A374B4
:1045A3005DF0900234E0FF75F019A42456F582E41F
:1045B3003400F583E0FD90023CE4F0A3EDF0EF75E9
:1045C300F019A42457F582E43400F583E0FF900248
:1045D3003EE4F0A3EFF0900234E075F019A4245800
:1045E300F582E43400F583E0FF900240E4F0A3EFAA
:1045F300F07B017A0079DA123BC3900234E0C433D2
:104603003354C02460FD7B017A0079DAE490023CE4
:10461300F0A3F0D208D2097F88FE12583A900234F0
:10462300E075F019A42459F97400125D0390022F68
:104633001227EA90023974FFF0A37476F0A3746E24
:10464300F0E47B107A27F9F890022FE0FCA3E0FD59
:10465300A3E0FEA3E0FF12270C90023CEEF0A3EFD1
:10466300F0E47B107A27F9F890022FE0FCA3E0FD39
:10467300A3E0FEA3E0FF12270CAF0390023EEAF093
:10468300A3EFF07B017A0079DA123BC3900234E0A6
:10469300C4333354C02470FD7B017A0079DAE4908B
:1046A300023CF0A3F0D208D2097F28FE12583A90B8
:1046B3000234E075F019A4245DF97400125D0390CF
:1046C300022F1227EA90023974FFF0A37476F0A345
:1046D3007482F0E47B107A27F9F890022FE0FCA3B0
:1046E300E0FDA3E0FEA3E0FF12270C90023CEEF0F6
:1046F300A3EFF0E47B107A27F9F890022FE0FCA3F4
:10470300E0FDA3E0FEA3E0FF12270CAF0390023EFF
:10471300EAF0A3EFF07B017A0079DA123BC390024F
:1047230034E0C4333354C02480FD7B017A0079DA4A
:10473300E490023CF0A3F0D208D2097F28FE12587D
:0A4743003A900234E004F00244262C
:01474D002249
:10613B009000CDE070099000FFF09000CE04F07B52
:10614B00017A00793FE4900244F0A37402F0E4FF7B
:10615B00128446C21490003FE0FEA3E0FF4E700491
:10616B007D0180027D00EFF44E70047F0180027F81
:10617B0000EF4D6002D21490023B74B8F0E4A3F030
:10618B00A3F0D2087B407A017D20FFFE1276D07BF4
:10619B00FF7A767995E490023CF0A3F0D208D2090D
:1061AB007D327F48FE12583A7BFF7A7679A1E490D4
:1061BB00023CF0A3F0D208D2097DC87F087E011201
:1061CB00583A3014030262807BFF7A7679A6E4900A
:1061DB000239F0A3F0D2067D287F147E01126A4E9D
:1061EB007BFF7A7679A9E4900239F0A3F0D2067D91
:1061FB00507F147E01126A4E7BFF7A7679ACE49065
:10620B00023CF0A3F0D208D2097DA07F087E0112D8
:10621B00583A7BFF7A7679B1E490023CF0A3F0D246
:10622B0008D2097D787F087E0112583A9000FFE072
:10623B00C4333354C02450FD7BFF7A7679B6E49097
:10624B00023CF0A3F0D208D2097F08FE12583A1292
:10625B0043E9127FC59000FFE0C4333354C0245090
:10626B00FDE4900233F0A3F0C206D2077B40FA7F25
:10627B00E9FE127BDE90023574B8F0E4A3F0A3F0D4
:10628B00D2087BF0FA7D20FFFE12506D9000CD748A
:03629B0050F0229E
:103FE100C206EF24FE605114604E1470030243BCFC
:103FF100240360030243E690004DE0FCA3E0FDA32F
:10400100E0FEA3E0FF9000151227EA900085E0FC96
:10401100A3E0FDA3E0FEA3E0FF9000191227EA90C0
:10402100008EE0FCA3E0FDA3E0FEA3E0FF90001DF5
:104031001227EAD2060243E67B017A00793FE49037
:104041000244F0A37402F0E4FF1284467B017A007B
:104051007951E4900244F0A37407F0E4FF1284461E
:1040610090003FE07002A3E0702E900051F0A3F0A9
:10407100A304F0E4A3F0A3F0A3F0A3F0A374FFF072
:10408100E4A3F0A3F0A304F0E4A3F090022AF0A3C8
:10409100F0A3F0A3F00242B790003FE0FFA3E0904D
:1040A100022ECFF0A3EFF0900057803690022AA3A2
:1040B100E0FF7B017A0079589002447407F0A37401
:1040C10002F0128446900058E0F46022900059E01A
:1040D100FFC390022FE09FF090022EE09400F09039
:1040E1000058E0FF90022AE4F0A3EFF080BE9002B6
:1040F100297402F0900059E0640B60030241B7900B
:104101000228F0900228E0FF64166039EF5407FDA1
:1041110074017E00A805088005C333CE33CED8F9DB
:10412100FF900229E02451F582E43400F583E0FB9D
:10413100EF5B6011BD0706900229E004F0900228B0
:10414100E004F080BE900228E0FF64167003024391
:10415100E6900229E02451F582E43400F583C0831E
:10416100C082E0FEEF5407FF7401A807088002C374
:1041710033D8FC4ED082D083F090022AA3E0FF7B9B
:10418100017A0279289002347407F0A3E4F0A304C1
:10419100F01280B590005874FFF0E4A3F0A3F0A3EF
:1041A10004F0E4A3F090022CF0A3F0900228E0FFC9
:1041B10090022A0242B290022AA3E0FF7B017A0018
:1041C100795A9002447409F0A37403F01284469062
:1041D100005A804090022CE0FEA3E0FF7C007D1994
:1041E1001225C3EF2424FFE43EFE90022CF0A3EF3E
:1041F100F0FD90022AA3E0FF7B017A00796A900228
:1042010044EDF0A37401F012844690006AE0F4607A
:104211000F90006AE0FF90022CE4F0A3EFF080B46D
:10422100E4900228F0A3740AF0900228E05407FFFA
:1042310074017E00A807088005C333CE33CED8F9B8
:10424100FF900229E02451F582E43400F583E0FD7A
:10425100EF5D6010900228E004F0E0B408CBA3E029
:1042610004F080C590022AA3E0FF7B017A0279283D
:10427100A3A3E0900234F0A3E4F0A304F01280B50C
:10428100900229E02451F582E43400F583C083C013
:1042910082E0FF900228E0FE5407FD7401A80508A2
:1042A1008002C333D8FC4FD082D083F0EEFF90025E
:1042B1002CE4F0A3EFF07B017A007936900270E0F4
:1042C10090006AF090027004F09002287401F0905E
:1042D1000228E0FFC39405501F122549FE746A2F7E
:1042E100F582E43400F583EEF0740129F9E43AFA39
:1042F100900228E004F080D77B017A007942900295
:10430100287405F0900228E0FFC39414501F122571
:1043110049FE746A2FF582E43400F583EEF07401EE
:1043210029F9E43AFA900228E004F080D790007F5E
:1043310074FFF0900059E004F0900052E0B4FF06E1
:10434100900051E004F0900052E004F090022CE063
:10435100FEA3E0FF7C007D191225C3EF240CFFE4CE
:104361003E90022CF0A3EFF07B017A007951E490AA
:104371000234F0A3F0A37407F0E4FF1280B59002B9
:104381002AA3E0FF7B017A0079589002347407F088
:10439100A3E4F0A37405F01280B590022AA3E0FF14
:1043A1007B017A00796AA3A3E0900234F0A3E4F0E0
:1043B100A37419F01280B5D206802A900085E0FC22
:1043C100A3E0FDA3E0FEA3E0FFE41221C1A804A93C
:1043D10005AA06AB07E4FFFE7D7A7C451220B79063
:0743E100002D1227EAA206DD
:0143E80022B2
:05857800900227EFF066
:10857D00123FE19205300508900227E0FF02874C7B
:10858D0090023B7410F0E4A3F0A3F0D2087B20FA24
:10859D007DA07F087E011276D07BFF7A7679B8E4D4
:1085AD0090023CF0A3F0D208D2097DC47F64FE1284
:0285BD00583A2A
:0185BF002299
:1052920090022774FFF0E4A3F0A374FFF0EF14254B
:1052A200E02D04FF900223E4F0A3EFF07B017A00EB
:1052B2007951E4900244F0A37407F0E4FF128446AB
:1052C2009000578048900228E0FF7B017A007958CD
:1052D2009002447407F0A37402F0128446900059BD
:1052E200E0F9FF900223E0FCA3E0FDD39FEC9400E1
:1052F20050028020E9FFC3ED9FFEEC940090022350
:10530200F0A3CEF0900228E0A3F0900058E09002C3
:1053120028F080B1900228E0FF7B017A00795A9050
:1053220002447409F0A37403F0128446900059E019
:1053320064017073900057E0FF900228E0900058DB
:10534200B50707E0900057F08023E0900228F0A311
:10535200E0FF7B017A0079589002447407F0A3744D
:1053620005F0128446900228E0900058F09002283E
:10537200E0FF131313541F2453F582E43400F58322
:10538200C083C082E0FEEF5407FF7401A8070880C3
:1053920002C333D8FCF45ED082D083F0900229E0BD
:1053A200900228F002545B90005A8046900226E058
:1053B20075F019A42424900225F0FE900228E0FF43
:1053C2007B017A00796A900244EEF0A37401F01234
:1053D2008446900224E024FFF0900223E034FFF0A0
:1053E200E07002A3E06012900225E0900227F090A4
:1053F200006AE0900226F080B3900227E0FEB4FF3C
:105402000A90006AE090005AF08019900228E0FFAA
:105412007B017A00796A900234EEF0A3E4F0A304EF
:10542200F01280B5900059E014F0900226E0FF13CC
:105432001313541F245BF582E43400F583C083C048
:1054420082E0FEEF5407FF7401A807088002C3330D
:10545200D8FCF45ED082D083F0900052E0700690C7
:105462000051E014F0900052E014F07B017A0079D0
:1054720051E4900234F0A3F0A37407F0E4FF128029
:10548200B5900228E0FF7B017A00795890023474CB
:0C54920007F0A3E4F0A37405F00280B55D
:107DA000EF24FB7003027E2924026003027E2E90E2
:107DB00000CD7450F0AF05AE03AD061252927B01B8
:107DC0007A00793FE4900244F0A37402F0E4FF12D9
:107DD00084469000CEE01425E0FF9000FFE0042FE1
:107DE000FFD3900040E09F7480F890003FE06480F3
:107DF000985036E0FAA3E0FB24FFFFEA34FFFE7C54
:107E0000007D021225D59000FFEDF07C007D02AFD1
:107E100003AE021225D59000CEEFF09000FFE07087
:0F7E2000089000CEE004F080007F0512874C220E
:104AA800EF24FE7003024BD3147003024D2224FE40
:104AB8007003024D9024046003024D9330140302E6
:104AC8004D939000FFE0FF6003024B7BEFC433334C
:104AD80054C02450FD90023B7410F0E4A3F0A3F0FE
:104AE800D2087B08FA7F08FE1276D09000FFE0C457
:104AF800333354C02450FD90023B7440F0E4A3F0DB
:104B0800A3F0D2087B08FA7FE8FE1276D09000CE98
:104B1800E0FF7401C39F404A90003FE0FAA3E0FB26
:104B280024FFFFEA34FFFE7C007D021225D59000A9
:104B3800FFEDF0D3EB9402EA64809480403B900050
:104B48003FE0FEA3E0FF7C007D021225D59000CE59
:104B5800EFF09000FFE0640160149000CEE004F0F4
:104B6800800C9000CEE014F09000FF7401F0124326
:104B7800E980069000FFE014F0127FC59000FFE086
:104B8800FF64016043EF04C4333354C02450FD90E4
:104B9800023B7410F0E4A3F0A3F0D2087B08FA7F7C
:104BA80008FE1276D09000FFE004C4333354C024CA
:104BB80050FD90023B7440F0E4A3F0A3F0D2087BD0
:104BC80008FA7FE8FE1276D0024CDF301403024D5B
:104BD800939000CEE01425E0FF9000FFE0FE2F0444
:104BE800FDD3900040E09D7480F890003FE0648021
:104BF8009850047F0180027F00EEB401047E01809A
:104C0800027E00EF4E607A9000FFE0C4333354C058
:104C18002450FD90023B7410F0E4A3F0A3F0D208F6
:104C28007B08FA7F08FE1276D09000FFE0C4333389
:104C380054C02450FD90023B7440F0E4A3F0A3F06C
:104C4800D2087B08FA7FE8FE1276D09000CEE014F6
:104C580025E0FF9000FFE02F04FFD3900040E09F85
:104C68007480F890003FE06480989000CE500574FE
:104C780001F08003E004F01243E9E49000FFF080C3
:104C8800069000FFE004F0127FC59000FFE0FFE40B
:104C9800C39F5043EF14C4333354C02450FD9002D3
:104CA8003B7410F0E4A3F0A3F0D2087B08FA7F0865
:104CB800FE1276D09000FFE014C4333354C0245061
:104CC800FD90023B7440F0E4A3F0A3F0D2087B0807
:104CD800FA7FE8FE1276D09000FFE0C4333354C068
:104CE8002450FD7BFF7A7679B6E490023CF0A3F07D
:104CF800D208D2097F08FE12583A9000FFE0C43368
:104D08003354C02450FDE4900233F0A3F0C206D21D
:104D1800077B40FA7FE8FE027BDE20146E9000CD10
:104D28007451F090023B743CF0E4A3F0A3F0D20875
:104D38007B40FA7D287FF8FE1276D07BFF7A767961
:104D4800C2E490023CF0A3F0D208D2097D787F0833
:104D58007E0112583A7BFF7A7679A1E490023CF002
:104D6800A3F0D208D2097DC87F087E0112583A7B89
:104D7800FF7A7679C7E490023CF0A3F0C208C20932
:0C4D88007D807F58FE02583A125E6D22BA
:0A8964002573B2E2C1BF00543A00CF
:106E9C00C11AC11B410136004101350041010B00F3
:046EAC004101380068
:0E7EBB00900217EBF0A3EAF0A3E9F0A3EDF0BC
:107EC90074FFA3F0A3F0E4A3F090021AE0FF90027C
:107ED9001DE0C39F5058900217E0FBA3E475F00121
:107EE900122621A9F0FA122549FF90021BE0F0A3FE
:107EF900E06FF0E4FD90021BE0FEA3E0FF5401FCFB
:107F0900EEC313FEEF13FF90021BEEF0A3EFF0AFE9
:107F190004EFB4010C90021BE064A0F0A3E064013B
:107F2900F00DEDB408CF90021DE004F0809B9002A3
:067F39001BE0FEA3E0FFC7
:017F3F00221F
:0E7F4000900225EBF0A3EAF0A3E9F0A3EDF028
:107F4E0074FFA3F0A3F0E4A3F0900228E0FF9002E8
:107F5E002BE0C39F5058900225E0FBA3E475F0017F
:107F6E00122621A9F0FA122549FF900229E0F0A36A
:107F7E00E06FF0E4FD900229E0FEA3E0FF5401FC67
:107F8E00EEC313FEEF13FF900229EEF0A3EFF0AF56
:107F9E0004EFB4010C900229E064A0F0A3E06401A8
:107FAE00F00DEDB408CF90022BE004F0809B900210
:067FBE0029E0FEA3E0FF34
:017FC400229A
:10782200900118E07E007B012411F9EE3400FA90F9
:107832000137E024064480900112F0E4900114F034
:10784200FF740D2FF582E43401F583E0FE900114FC
:10785200E02EF00FEFB407E97F0C900137E0240C23
:10786200FEEFC39E501A122549FE740D2FF582E4D5
:107872003401F583EEF0740129F9E43AFA0F80DA63
:107882007B017A017915900137E02404FD127F40D3
:10789200900137E0FC241AF582E43401F583EFF01D
:1078A200EEFF74192CF582E43401F583EFF0E490D5
:1078B2000135F0900137E0240E9001B3F090010DF4
:0378C200E0F59955
:0178C50022A0
:1088F500C219C21A90013674FFF0E4900135F09068
:0789050001B304F0C29C2243
:105B8900C29CC219E4900136F0C21A900118E07E55
:105B9900002411F9EE3400FA90021E7401F0A3EA10
:105BA900F0A3E9F0201D05127822804390022174A8
:105BB9000CF09001B2E0240CFF900221E0FEC39F9B
:105BC900502D740D2EF582E43401F583E0FF900227
:105BD9001EE0FBA3E0FAA3E0F9EF1225B190021F42
:105BE900E475F00112260B900221E004F080C390C5
:105BF9000115E0334003025CFD900028E024CF70DA
:105C090003025CD4147003025CF22421B405004041
:105C190003025CFD905C2B75F003A4C58325F0C5D8
:105C29008373025C3A025CA5025CA9025CAD025C6A
:105C3900B690023974FFF0A37489F0A37464F090EC
:105C49000041E0540375F005A42422F9745835F095
:105C5900FA90023C74FFF0A3EAF0A3E9F07B017A21
:105C6900007903123BC37BFF7A89796BE490023C8C
:105C7900F0A3F0D208D2097DDC7FE8FE12583A7B06
:105C8900017A007903E490023CF0A3F0D208D2092A
:105C99007DDCFFFE12583A12868E8058C21380545A
:105CA900D2138050900041E054BFF08047900041EA
:105CB900E0540304FF123FE19201900041E03001FA
:105CC900054420F0802E54DFF08029900083E0FF06
:105CD90090023A7401F0A37402F0A37422F07B01DC
:105CE9007A0279211259E5800B900083E0FFA3E045
:095CF900FD125292301D02D29CF2
:015D0200227E
:106EB1009002167441F0E5996402600620190302FC
:106EC1006FA8D219900136E0FF240DF582E4340158
:106ED100F583E599F0740D2FF582E43401F583E033
:106EE100B4031DE4900215F0FF740D2FF582E43414
:106EF10001F583E0FE900215E02EF00FEFB407E9F3
:106F0100900136E0B40712900215E0FF900114E001
:106F11006F60061288F5759941900136E0FF6409AA
:106F2100703E740D2FF582E43401F583E0FF90018A
:106F310015E0FE540F8FF0A49001B2F0EE5470FFF3
:106F4100BF300CC21DE0900137F0E49001B2F0BFF8
:106F51006002D21D9001B2E0240D90010BF0D21A13
:106F6100900136E0FF90010BE0D39F50047F018038
:106F7100027F00301A047E0180027E00EF5E6021F4
:106F81007B017A0179159001B2E02406FD127EBBE6
:106F9100EF4E7004D21B80091288F5900216E0F5BD
:076FA10099900136E004F0B5
:016FA80022C6
:0300230002826BEB
:10826B00C0E0C0F0C083C082C0D075D000C000C0D9
:10827B0001C002C003C004C005C006C0073098058A
:10828B00C298126EB1309923C299900135E004F077
:10829B00E0FF9001B3E0D39F5004D29C800D740D8E
:1082AB002FF582E43401F583E0F599D007D006D0A1
:1082BB0005D004D003D002D001D000D0D0D082D0D2
:0682CB0083D0F0D0E03288
:0B78C6009001B4EBF0A3EAF0A3E9F09E
:1078D100E4900214F07B019001DF04F0A37401F045
:1078E100A374B7F09001B4E0F9A3E0FAA3E0900229
:1078F10066C9F0A3EAF0A3E9F09001DFE0F9A3E0A3
:10790100FAA3E0900269C9F0A3EAF0A3E9F07A01D1
:1079110079E212852E900214E024E2F582E434012A
:10792100F583E0603F900214E0FF04F074E22FF56C
:1079310082E43401F583E0FF9001B1E0FE04F074CC
:10794100392EF582E43401F583EFF09001B1E07551
:10795100F07884AFF0EFF090010CE0B507B790013B
:06796100B1E014F0D29920
:0179670022FD
:04893000D2CB7F0A1D
:0A893400AE071FEE60030080F7227B
:10000300D207D2CA7F01128934D2CBA2CA92077F08
:0C00130001128934C2CB200702D322C3A3
:01001F0022BE
:1088C10030CB047F0180027F0030CA047E01800228
:0A88D1007E00EE5F6002C322D32296
:10892000D2CA00128930C2CA7F0A128934C2CB224D
:0D893E00C2CA00128930D2CA7F0A028934F1
:108836007D07E4FC7F0A128934D2CBEC25E0FC7F6D
:108846000A12893430CA010CC2CBED700280031DB6
:0488560080E2AF0409
:01885A0022FB
:0C864C00E0FBA3E0FAA3E0F9122549FFCF
:02865800AD076C
:10865A007C0774017E00A804088005C333CE33CE9C
:10866A00D8F9FFEDFBEF5B6004D2CA8002C2CA7F71
:10867A0005128934128930C2CBEC700280031C8047
:04868A00D102000316
:1085C000900247EFF0A3EBF0A3EAF0A3E9F01288E2
:1085D000C140FB1289207FA2128658900247E0FF1B
:1085E00012865890024BE0FF1286581289207FA312
:1085F000128658128836900248E0FBA3E0FAA3E006
:08860000F9EF1225B102893ED9
:0E844600900240EFF0A3EBF0A3EAF0A3E9F000
:10845400E4900246F0900240E0FFA3E0FBA3E0FAC0
:10846400A3E0F9A3E090024BF01285C0900246E02D
:1084740004F0900242E475F00112260B900244E0ED
:1084840004F0900246E0FF900245E0B507C7028978
:018494003EA9
:0E833600900239EFF0A3EBF0A3EAF0A3E9F018
:10834400E490023EF01288C140FB1289207FA21201
:108354008658900239E0FF12865890023DE0FF12E1
:10836400865890023A12864C12893EE490023EF0FE
:1083740090023EE0FFC3941450187B017A02793FC7
:1083840090024BEFF0E4FF1285C090023EE004F04F
:0283940080DE89
:0183960022C4
:0E80B500900230EFF0A3EBF0A3EAF0A3E9F0A5
:1080C300E4900237F0A3F0900230E0FFA3E0FBA3BB
:1080D300E0FAA3E0F9A3E090023DF01283369002A8
:1080E30038E004F07006900237E004F0900232E4C6
:1080F30075F00112260B900234E0B4FF06900230B3
:10810300E004F07F14128934900234E004F090020A
:1081130037E0FEA3E0FF900235E0B506AAA3E0B581
:0581230007A502893EE2
:0E84E20090022DEBF0A3EAF0A3E9F0A3EDF079
:1084F000E4A3F01288C140FB1289207FD012865875
:108500007F018010900230E0FF14F0EF601DE0B4B6
:108510000307E4FF12865880EB90022D12864C90E0
:0E852000022E74FFF5F012260B80D902893E60
:0E82D100900225EBF0A3EAF0A3E9F0A3EDF094
:1082DF00E4A3F01288C140FB1289207FD012865888
:1082EF00900229E0FF1286581289207FD1128658FA
:1082FF00E0B40305128836801C128836900225E000
:10830F00FBA3E0FAA3E0F9EF1225B190022674FF68
:10831F00F5F012260B900229E004F0E0FF900228FE
:07832F00E0B507B402893E2E
:0D894B005392EE5391EE53B27F53B17F2251
:08629E0090022DEEF0A3EFF0D9
:1062A600E4A3F0A3F0EF8EF012288D62D100006215
:1062B600DA040062ED080062F4100062FB18006365
:1062C600051C00631020000000631FE490022FF0FD
:1062D600A3F08045122637FFE5F0540344049002EC
:1062E6002FF0A3EFF0803290022F740880169002F0
:1062F6002F7410800F1226375406FE7418801390E0
:10630600022F741CF0A3E4F0800F1226375401FE0E
:10631600742090022FF0A3CEF0D2C300D2CC00306E
:10632600EEFDC2C300C2CC00E4FD90022FE0FEA346
:10633600E0FFEE30E704D2C08002C2C000D2C30044
:10634600C2C300EF25E0FFEE3390022FF0A3EFF07B
:106356000DEDB410D5D2CC0020EEFD30EEFD90024E
:106366002DE0FEA3E0FF7003EE64086008EF700303
:10637600EE641C7036E490022FF0A3F0C2CC00FD50
:10638600900230E025E0F090022FE033F0D2C30017
:1063960030C10CA3E004F0700690022FE004F00078
:1063A600C2C3000DEDB410D8D2CC0090022DE0B4DB
:1063B6000818A3E0B40013A3E05403FEA3E0FF9083
:1063C600022FEEF0A3EFF0FF801D90022DE0B41C2B
:1063D6001CA3E0B400177E00900230E05406FF9044
:0D63E600022FEEF0A3EFF0EE8FF012266212
:0163F3002287
:0863F40090022DEEF0A3EFF082
:1063FC00E4A3F0A3F0EF8EF012288D642700006464
:10640C0030040064430800644A10006451180064AE
:10641C005B1C006466200000006475E490022FF0A1
:10642C00A3F08045122637FFE5F054034404900294
:10643C002FF0A3EFF0803290022F74088016900298
:10644C002F7410800F1226375406FE741880139088
:10645C00022F741CF0A3E4F0800F1226375401FEB7
:10646C00742090022FF0A3CEF0D29500D29200307F
:10647C00ECFDC29500C29200E4FD90022FE0FEA359
:10648C00E0FFEE30E704D2938002C29300D2950075
:10649C00C29500EF25E0FFEE3390022FF0A3EFF052
:1064AC000DEDB410D5D2920020ECFD30ECFD900235
:1064BC002DE0FEA3E0FF7003EE64086008EF7003AC
:1064CC00EE641C7036E490022FF0A3F0C29200FD33
:1064DC00900230E025E0F090022FE033F0D29500EE
:1064EC0030940CA3E004F0700690022FE004F0004E
:1064FC00C295000DEDB410D8D2920090022DE0B4EC
:10650C000818A3E0B40013A3E05403FEA3E0FF902B
:10651C00022FEEF0A3EFF0FF801D90022DE0B41CD3
:10652C001CA3E0B400177E00900230E05406FF90EC
:0D653C00022FEEF0A3EFF0EE8FF0122662BA
:01654900222F
:10003E007B007D00D2BBB0B4B0DCB1A3B1A8B1B827
:10004E00B1BEB1D5B1E3B2BBB2CEB2E0B2E2B3C98A
:10005E00B3D8B3F6B3FDB4BFB4CEB4E6B5B9B5BC40
:10006E00B5C4B5D7B5E7B5F7B6AFB6C8B6CCB7B564
:10007E00B7C5B8C4B8FCB9A6B9A9B9CCB9D8B9FD39
:10008E00BAC3BAF3BBBBBBD8BBEEBBF2BBFDBCC79E
:10009E00BCE4BCECBCFCBDABBDBBBDF8BEABBEAFE7
:1000AE00BEBBBFAAC0FAC1BFC1F7C2BCC3A6C3E6DE
:1000BE00C4DAC5E4C6B7C6E4C6F4C6F7C7EBC8B71C
:1000CE00C8CFC8DDC8EBC9BEC9E4C9E8CAA7CAB162
:1000DE00CAB3CAB7CAB9CABCCABDCACACAFDCBAEB0
:1000EE00CBFBCCA8CCE5CDB3CFB5CFC2CFE0D0A162
:1000FE00D0A3D0AFD0D0D0D4D0DED2B3D2BAD2C764
:10010E00D3A6D3C3D3D2D3DAD4CBD5FBD6B5D6B9F7
:10011E00D6C3D6CAD6D0D6D8D7BCD7E3E3D0BBB6D3
:10012E00CDEACFA2D0C5D1A1D1F9D3ADD4F1B7D6F6
:10013E00D6D3C7E9CFEAD7DC0000000000000FF8E5
:10014E0000800080008000800080008000800080A1
:10015E0000800FF80000000010401020102013FE49
:10016E00FA02144410401BFE3088D088110810D0BB
:10017E00102010505088230400407C40444054808E
:10018E0054FE5508568854885488545054501020A4
:10019E00285024884504820208000BF80A08120829
:1001AE00120833F83040504097FC10E011501248BE
:1001BE001444184210401040100011FC1104110498
:1001CE00FD141108110015FC19443144D1281128D1
:1001DE001110112851442182040004000FF0182040
:1001EE00644003801C70E00E1FF0111011101FF000
:1001FE00111011101FF0101001000100010001007C
:10020E007FFC0380054005400920111021084FE4B2
:10021E008102010001000100200017FC000440844F
:10022E0040845FF4408441844284448448845084F2
:10023E004284410440144008100017FE104027FC71
:10024E002444644467FCA444244427FC22402140F7
:10025E002080214022302C0E00007FFC0080008088
:10026E00010001000340052009101108210441047A
:10027E0081000100010001000200044008201FF06F
:10028E0002007FFC082010902308CC460180061047
:10029E00182000C007007800100417C4144424541A
:1002AE00255465546554A5542554255425542104CC
:1002BE002284224424142808000427C4144414540D
:1002CE00855445544554155415542554E55421046C
:1002DE0022842244241408080050004800403FFEA7
:1002EE002040204020443E4422442228222822122C
:1002FE002A32444A40868102004020401240125861
:10030E00826842C853481E4812482248E258224288
:10031E002202220221FE0000010001002108210814
:10032E00210821083FF801080100010041044104A1
:10033E00410441047FFC00040040784048A0511065
:10034E00520865F6504048404FFC48406A505248AB
:10035E00444448444140408010401040204023FC1B
:10036E004840FA48124822484248FBF840480040AC
:10037E001842E042403E000000804080208020FC79
:10038E00010409080A4014401040E0A020A02110EA
:10039E00211022082404080204000400FFFE0800B5
:1003AE00080013F810103020504097FE10401040F7
:1003BE001040104011401080100410041FC422146D
:1003CE002214649467D4A114211427D42114211467
:1003DE0021C42E042414200800003FF02010201009
:1003EE003FF0200420041FFC00200020FFFE082008
:1003FE000420042000A000401040104020407E7CCD
:10040E0042844284430442447E24422442044204F1
:10041E0042047E0442280010010000803FFE2000AE
:10042E00203C27C024402440244027FE24202420A2
:10043E002412450A464684220100010001003FF8BD
:10044E002108210821083FF82108210821083FF83A
:10045E00210A0102010200FE000047FC244424444C
:10046E0005F40444E44427FC240425E425242D2427
:10047E0035E4240404140808004000407C40004089
:10048E0001FC0044FE4420442044208448844484DB
:10049E00FD04450402280410010000803FFE2220C6
:1004AE0022203FFC2220222023E020002FF02410C7
:1004BE00422041C08630380E200021FE3C00500004
:1004CE0090FC10841084FE8410FC100010842844CC
:1004DE002448440041FE80000008203C13C0120056
:1004EE00020003FCF20412881250122012501488DB
:1004FE001504280047FE0000204010400040FE80FA
:10050E0020FE21083E88248824882450245024204C
:10051E00445054888904020200400040FC8004FECE
:10052E000508050806887C884088405040504420C5
:10053E0058506088410402020000FFFE01000100D5
:10054E003FF8210821083FF8210821083FF8110043
:10055E000A00060019C0E03E004000400040FE4088
:10056E0011FC1044104410441044108410841E8456
:10057E00F104410402280410091009100910111089
:10058E0013FC311031105110911017FE1000111084
:10059E00110812081404180400007FFC41044104E1
:1005AE005FF4410441044FE44824482448244FE4B6
:1005BE00482440047FFC400410100810082000005E
:1005CE003FF8010001000100FFFE010002800280E1
:1005DE00044008203018C00600102010101017FE1E
:1005EE0000100010F21011101110101010101050F9
:1005FE001020280047FE0000100010FC1004100808
:10060E00FC102420242025FE242048202820102001
:10061E002820442084A00040001000F81F00100085
:10062E0010001FFE10001000100017F81408240808
:10063E002408440887F804081080108010F8110868
:10064E00FA1015FC112419243124D12417FE105050
:10065E00105010885104260200003FF82008200890
:10066E0027C82448244824482448244827C820085A
:10067E0020083FF8200800000010207813C010401A
:10068E00804047FE40401040104023F8E208220808
:10069E002208220823F80208004800440040FFFE0A
:1006AE00004000403E442244224422283E280012AC
:1006BE000732784A2086030204000E0078FC088474
:1006CE000884FF84088418841CFC2A842A00484865
:1006DE0088440884088209020000200011F81008DE
:1006EE0000080008F00811F811081100110011009F
:1006FE001502190210FE0000200013FC1004400425
:10070E0047C444444444444447C444444444444495
:10071E0047C44004401440081040104010A010A0E0
:10072E00FD10120835F63800548850489248115082
:10073E001110102017FE1000201020103B7C2114E9
:10074E0041FE7A14A27C2710F97C251025FE22107A
:10075E002A10350028FE0000088008F809084A1003
:10076E0028A0284008900B1018102BFEC810091056
:10077E000890081008500820020001000100FFFE3A
:10078E0000001010100820244824044002800100AC
:10079E0002800C403030C00E00902090109013FC60
:1007AE0000900090F09017FE109010901110111004
:1007BE001210280047FE00001020102095FE542035
:1007CE0058FC1020FDFE300038FC548454FC9084FC
:1007DE0010FC1084109410882420FF20247E7EC4E8
:1007EE0082287A104A287AC60500FFFE00003FF8DC
:1007FE0000003FF820083FF80100410023F02410CC
:10080E00002017FC104410442FFE2044E04427FC27
:10081E00204420402140008000007FFC082008205A
:10082E00082008200820FFFE0820082008200820A5
:10083E00102010202020402000003FFE20002080AD
:10084E00208020802FFC2084208421042104220477
:10085E00220444044828901000001FF010101FF0CE
:10086E001010FFFE00001FF011101FF011101FF0EE
:10087E0001001FF001007FFC0080204017FE108059
:10088E008110420847FC100410002248E24822481A
:10089E002248224A244A084600003FF00010001069
:1008AE001FF000100010FFFE0100210811900560DE
:1008BE0009203118C506020010201010101010006B
:1008CE001BFE5480508050809080108010801080CD
:1008DE001080108010FE10000000FFFE02000200CB
:1008EE0004003FF82448244827C82448244827C831
:1008FE00244824483FF820080100010001007FFC35
:10090E004104410441044284424444244814501496
:10091E0040044004401440080000FE0028F8280857
:10092E00FE08AA08AA08AAF8AE88C2808280FE80B5
:10093E0082828282FE7E820000001FF01010101054
:10094E00101010101FF0000000007C7C4444444442
:10095E00444444447C7C4444082008207FFC082006
:10096E0008200FE0082008200FE008200820FFFED6
:10097E000000082010102008010000801FFC100449
:10098E00100410041FFC10001000100017FC2404AB
:10099E002404440487FC040400003E7C22442244C8
:1009AE003E7C01200110FFFE02800C603018C00654
:1009BE003E7C224422443E7C0040404027FC2040A6
:1009CE0003F80040E7FE200023F8220823F822084F
:1009DE002BF832082228021000400040FC7C1084C4
:1009EE00110822FE3C92649264FEA492249224FE8C
:1009FE003C922512210A0204004020401040104073
:100A0E0000400040F040104010A010A010A01510A3
:100A1E001910120804040802020001007FFE4002B1
:100A2E00882411102288044008203018DFF6101098
:100A3E00101010101FF01010040002000100010031
:100A4E000100028002800280044004400820082039
:100A5E00101020104008800600027BC24A424A4A0B
:100A6E004A4A4A4A4A4AFFEA4A4A4A4A4A4A4A4A83
:100A7E004A425A42854A0884080810083E0822084D
:100A8E003EFE22083E0822082248FE2806280A08B2
:100A9E00120822084A280410000021F0111011102B
:100AAE000110020EF40013F811081110109014A08A
:100ABE00184010A003180C060100110011001100BF
:100ACE003FF8210041000100FFFE02800440044077
:100ADE00082010102008C006000800087C084408F2
:100AEE0045FE440844087C08448844484448440869
:100AFE007C084408002800100100028004400A20EF
:100B0E003118DFF610101FF010101FF010081190A2
:100B1E0010601210140818040100010001003FF8C3
:100B2E002108210821083FF82108010011000900C1
:100B3E00060005801870E00E104010401FFE204089
:100B4E00204067FC6444A44427FC204022402140FE
:100B5E002080214022302C0E10201020102010401A
:100B6E00FC48248425FE2482240048FC288410841A
:100B7E002884448480FC00840048004400440040E3
:100B8E00FFFE004000403E4008400840082008227A
:100B9E000F12780A20060002007823C01040104081
:100BAE0007FE0040F04013F812081208120813F85E
:100BBE001208280047FE0000082049202A20083E7F
:100BCE00FF442A44494488A41028FE2822104210CB
:100BDE00642818283444C282010001000100010873
:100BEE0001087D9005A0094009401120111021082F
:100BFE004106810005000200084008400A401258D4
:100C0E00126832C833485E4892481248125812424F
:100C1E001202120211FE100002000200040008204F
:100C2E00101020087FFC200400001FF01010101080
:100C3E00101010101FF0101008400840084010400F
:100C4E0017FC304030E050E091501150124815F42E
:100C5E00184210401040104010401020202023FE5B
:100C6E004840F888110423FE4092F890409000907E
:100C7E001912E112420E040000F83F000400082091
