:1073F100534D4D552D522DD2BBB7C5C9E4D0D4BB89
:10740100EEB6C8BCECB2E2D2C7004300BBB620D393
:10741100AD20CAB920D3C300B1E3D0AFCABDCAB34E
:10742100C6B726CBAE00B7C5C9E4D0D4BBEEB6C84B
:10743100BCECB2E2D2C700B1BEB5D7B2E2C1BF0067
:10744100D2BACCE5B2E2C1BF00B9CCCCE5B2E2C15F
:10745100BF00B2CECAFDC9E8D6C300C0FACAB7BCE4
:10746100C7C2BC00B2CE20CAFD20B5F720D5FB00B3
:1074710025346400253032643A253032643A2530AF
:107481003264003230253032782F253032782F2582
:1074910030327800253032783A253032783A25304A
:1074A10032780025642530346400253035646370FA
:1074B100730025643A253032642F25303264000A86
:0374C1001E466EF6
:1069DD004400C4000000004400D4000000006070BA
:1069ED00001211111111000000000005000003E854
:1069FD00E878000A04B03F7AE1483F7AE148160191
:106A0D002213150001FF01FF00000000000000002F
:106A1D000000000000000000000000000000000069
:106A2D000000000000000000000000000000000059
:106A3D000000000000000000000000000000000049
:106A4D000000000000000000000000000000000039
:106A5D000001603200850000000000000000000011
:106A6D000000000000000000000000000000000019
:106A7D000000000000000000000000000000000009
:106A8D000000000000000000C11CC1274100820071
:106A9D00410084004100B900420100000041001195
:106AAD000041000200C1244100FD004100C200C1AF
:106ABD001FC122C11D4100C1004100BB00C12341C6
:106ACD000010004A00C80000000000000000000097
:0E6ADD004100D2004200BD0000420000000156
:1087790090003BE030E0054404F0800790003BE0C6
:1087890054FBF090003BE030E1044408F0229000F3
:068799003BE054F7F02262
:10879F0090003BE030E2054401F0800790003BE0A1
:1087AF0054FEF090003BE030E3044402F0229000CE
:0687BF003BE054FDF02236
:107CF9009000BC7401F020FC16900104F09000BCC7
:107D0900E0FF900104E0FEEF8EF0A49000BCF020AB
:107D1900FD189001047402F09000BCE0FF9001048A
:107D2900E0FEEF8EF0A49000BCF020FE1890010454
:107D39007403F09000BCE0FF900104E0FEEF8EF0C8
:107D4900A49000BCF020FF189001047404F0900086
:107D5900BCE0FF900104E0FEEF8EF0A49000BCF0BF
:107D690020C5189001047405F09000BCE0FF900153
:107D790004E0FEEF8EF0A49000BCF0900104E0FF57
:017D890022D7
:105F340090003BE054EFF0E49000C2F0D2259000D2
:105F44003BE020E6189001617418F0E4A3F0A3F09C
:105F5400D2127B407A017DD8FFFE126F4690016118
:105F640074D8F0E4A3F0A3F0D2127B407A01FDFFD1
:105F7400FE126F46E4900156F0D20FFBFA7D087FC3
:105F8400E0FE126B027BFF7A7379F1E4900162F018
:105F9400A3F0D212D2137D087F10FE1254BC9000DD
:105FA4003BE030E7197BFF7A74790BE4900162F0EF
:105FB400A3F0D212D2137D087FD8FE1254BC7BFF0B
:105FC4007A74790DE4900162F0A3F0D212D2137DB9
:105FD4003C7F48FE1254BC7BFF7A747919E490012B
:105FE40062F0A3F0D212D2137D707F41FE1254BC32
:105FF4007BFF7A747927E4900162F0A3F0D212D285
:10600400137D807F39FE1254BC7BFF7A747938E4A7
:10601400900162F0A3F0D212D2137D287FF8FE1211
:1060240054BC7BFF7A747941E4900162F0A3F0D20E
:1060340012D2137D507FF8FE1254BC7BFF7A747920
:106044004AE4900162F0A3F0D212D2137D787FF873
:10605400FE1254BC7BFF7A747953E4900162F0A37E
:10606400F0D212D2137DA07FF8FE1254BC7BFF7ACB
:1060740074795CE4900162F0A3F0D212D2137DC86B
:106084007FF8FE1254BC90015974B8F0E4A3F0A355
:0E609400F0D2127BF0FA7D20FFFE124DC622E4
:10867800900151EFF0E0121DE98694018698028678
:10868800980386A10486A505000086A8126C172207
:10869800900151E0FF127BBE221268A122125DBA3E
:0186A80022AF
:10722200900143EFF0A3EDF0E0121DE97238017214
:1072320078040000730A900143E0121DE9724C01C8
:10724200730A047262050000730A90003BE030E4A6
:1072520004127C5D221286D7D2107F01123A52228A
:1072620090003BE030E40A12879F90003BE054EF2D
:10727200F0125F342222900143E0121DE9730A01E9
:1072820072920272920372D20472EF050000730AC4
:1072920090016174B8F0E4A3F0A3F0D2127B407ABB
:1072A200017D20FFFE126F467BFF7A747965E490C0
:1072B2000162F0A3F0D212D2137D3C7F60FE125421
:1072C200BC900143E0049000B7F0E0FF122C0322CF
:1072D20090003BE030E404127C5D2290003BE02011
:1072E200E6031286D7D2107F01123A522290003B57
:1072F200E030E61190003BE030E40A12879F9000F4
:097302003BE054EFF0125F34226D
:107B1E009000C2E0121DE97B44007B6C107B781153
:107B2E007B82147B8E157B9F417BAE437B4E507BBD
:107B3E00585100007BB89000FDE0FF128678806AF5
:107B4E009000FDE0FF123E4880609000FDE0FF9047
:107B5E0000C3E0FD9000FEE0FB12792D804C9000FA
:107B6E00FDE0FF7D0112722280409000FDE0FF12C9
:107B7E00864580369000FDE0FF7D01125A73802A03
:107B8E009000FDE0FFA221E433FB7D01128188808D
:107B9E00199000FDE0FF9000B7E0FD121E54800A20
:107BAE009000FDE0FF7D0112860FE49000FDF022B3
:10258500C20BC20CC20D9000C1E0640F706AF090DE
:1025950000BBE004F0E075F00AA4FF900000E5F050
:1025A500F0A3EFF07B017A00790390015F74FFF0EF
:1025B500A37474F0A37471F0900000E0FEA3E0FF33
:1025C500900162EEF0A3EFF01231BF7B017A007942
:1025D50003E4900162F0A3F0D212D2137DDC7F50A8
:1025E500FE1254BC900000E0FEA3E0B4F10AEEB484
:1025F5003F069000BB74FFF090003BE033920EE085
:1026050020E60302278A90003AE004F0E0B43C1982
:10261500900039E004F0E4A3F0900039E0B43C09FF
:10262500900038E004F0E4A3F07B017A0079039090
:10263500015F74FFF0A37474F0A37475F090003813
:10264500E0FF900162E4F0A3EFF0900039E0FF9025
:102655000164E4F0A3EFF090003AE0FF900166E436
:10266500F0A3EFF01231BF7B017A007903E490010A
:1026750062F0A3F0D212D2137DDC7FF8FE1254BCB7
:10268500200E0302270F90003BE030E42C540CFF92
:102695001313543F04B403047F0180027F009000AC
:1026A5003BE0540CFE1313543F04B402047E018036
:1026B500027E00EE4F6002D20D900038E075F03CCE
:1026C500A4FFA3E02FFF90001EE0FCA3E0FDC3EFF5
:1026D5009DE49C40047F0180027F00300D047E0153
:1026E50080027E00EF5E602290003BE030E4031242
:1026F500879F90003BE054EFF0D20C9000C2E0645D
:10270500146007D2107F01123A52900038E075F03C
:102715003CA4FFA3E02FC39468E4940140229000F9
:102725003BE030E40312879F90003BE054EFF0D28A
:102735000B9000C2E064146007D2107F01123A5278
:10274500300E31300C2EC2107F01123A527D017FBE
:1027550003125A737B017D017F04128188C28CE4C8
:10276500F58CF58A1286D790003BE0A2E692107FA1
:1027750001123A52300B0EC2107F01123A527D01FE
:102785007F03125A73301D03127046C2257B017AEE
:102795000079337D071281FB7B017A007903900173
:1027A5005F74FFF0A37474F0A37484F090002EE0BE
:1027B500FF900162E4F0A3EFF090002FE0541FFFBB
:1027C500900164E4F0A3EFF0900030E0543FFF90F7
:1027D5000166E4F0A3EFF01231BF7B017A007903C3
:1027E500E4900162F0A3F0D212D213FD7FF0FE1245
:1027F50054BC7B017A00790390015F74FFF0A374E8
:1028050074F0A37495F0900031E0543FFF9001629D
:10281500E4F0A3EFF0900032E0FF900164E4F0A350
:10282500EFF0900033E0FF900166E4F0A3EFF012C3
:1028350031BF7B017A007903E4900162F0A3F0D205
:1028450012D2137D107FF8FE1254BC9000C2E0B482
:1028550043047F0180027F009000C2E0B414047E2F
:102865000180027E00EE4F7003022C02127FA7E466
:102875007B3CFAF9F890003EE0FCA3E0FDA3E0FE06
:10288500A3E0FF121CB2900143121D6C9000C2E040
:1028950064146003022B067B017A007903C003C030
:1028A50002C00190015F74FFF0A37474F0A374A4D7
:1028B500F0E47B107A27F9F890003EE0FCA3E0FDF8
:1028C500A3E0FEA3E0FF121CB2900162EEF0A3EFBD
:1028D500F0E47B107A27F9F890003EE0FCA3E0FDD8
:1028E500A3E0FEA3E0FF121CB2AF03900164EAF07F
:1028F500A3EFF0D001D002D0031231BF90014BEF0E
:10290500F00229A0900016E0F8A3E0F9A3E0FAA3ED
:10291500E0FB90003EE0FCA3E0FDA3E0FEA3E0C3E6
:102925009BFFEE9AFEED99FDEC98FC900147121D78
:102935006C7B017A007903C003C002C00190015F7E
:1029450074FFF0A37474F0A374A4F0E47B107A27E9
:10295500F9F8900046E0FCA3E0FDA3E0FEA3E0FF4C
:10296500121CB2900162EEF0A3EFF0E47B107A271F
:10297500F9F8900046E0FCA3E0FDA3E0FEA3E0FF2C
:10298500121CB2AF03900164EAF0A3EFF0D001D0BE
:1029950002D0031231BF90014BEFF0740175F000C6
:1029A500121E0F29BC00012AB400022AB400032A12
:1029B500B4000400002C0290014BE0FFC454F0FF6A
:1029C500C3749C9FFF7E007B017A007903E490012C
:1029D50062F0A3F0D212D2137D8C1254BC7B017A23
:1029E500007903C003C002C00190015F74FFF0A32A
:1029F5007474F0A374A4F0E47B107A27F9F89000BE
:102A0500C4E0FCA3E0FDA3E0FEA3E0FF121CB2902E
:102A15000162EEF0A3EFF0E47B107A27F9F890005D
:102A2500C4E0FCA3E0FDA3E0FEA3E0FF121CB2AFEF
:102A350003900164EAF0A3EFF0D001D002D00312B5
:102A450031BF90014CEFF0E0FFC454F0FFC374A414
:102A55009FFF7E007B017A007903E4900162F0A379
:102A6500F0D212D2137D741254BC7B017A00790323
:102A750090015F74FFF0A37474F0A374ABF0900140
:102A850043E0A3E0A3E0FEA3E0FF900162EEF0A324
:102A9500EFF01231BF7B017A007903E4900162F017
:102AA500A3F0D212D2137DB47F60FE1254BC222053
:102AB500262790014BE0FFC454F0FFC374B29FFF7B
:102AC5007E007B017A007903E4900162F0A3F0D2E5
:102AD50012D2137D681254BC2290014BE0FFC454FE
:102AE500F0FFC374B29FFF7E007B017A007903E497
:102AF500900162F0A3F0D212D2137D9E1254BC2233
:102B0500227B017A007903C003C002C00190015FF6
:102B150074FFF0A37474F0A374A4F0E47B107A2717
:102B2500F9F89000C4E0FCA3E0FDA3E0FEA3E0FFFC
:102B3500121CB2900162EEF0A3EFF0E47B107A274D
:102B4500F9F89000C4E0FCA3E0FDA3E0FEA3E0FFDC
:102B5500121CB2AF03900164EAF0A3EFF0D001D0EC
:102B650002D0031231BF7B017A007903E490016240
:102B7500F0A3F0D212D2137D507F68FE1254BC7BB5
:102B8500017A007903C003C002C00190015F74FFA0
:102B9500F0A37474F0A374A4F0E47B107A27F9F819
:102BA50090003EE0FCA3E0FDA3E0FEA3E0FF121CC5
:102BB500B2900162EEF0A3EFF0E47B107A27F9F80A
:102BC50090003EE0FCA3E0FDA3E0FEA3E0FF121CA5
:102BD500B2AF03900164EAF0A3EFF0D001D002D0C8
:102BE500031231BF7B017A007903E4900162F0A3FF
:0D2BF500F0D212D2137DAA7F90FE1254BCC4
:012C020022AF
:107EA20090003BE054BFF0E4F5F9F5E943DA49907C
:107EB2000102744EF0A37420F0900102E0FEA3E0F0
:107EC200EEF5EA900102E0A3E0F5FAD2DEC28CC23E
:107ED200B9C28DD2A9E58954FC4401F589438904CC
:107EE200538FFEE4F58CF58AC28EE589540F444027
:107EF200F589E4F58BF58DD28ED2AB53D1F743AF32
:107F02002043D104F5D4F5D5759850438E40538E55
:107F1200FE53890F758B8F758DFDC2ABD28ED2AC9D
:037F2200D2AF22B9
:106E3C00C20A127EA27B017A007912E490016AF0F8
:106E4C00A37426F07F1712840A1279D81288F6C21E
:106E5C00F890013FE4F0A37406F07B017A01793FCE
:106E6C007F007E181256B29001417401F0A3749702
:106E7C00F07B017A0179417F007E041256B2125FD9
:106E8C00349000FDE06003127B1E302553122585E3
:106E9C007B017A00790390015F74FFF0A37474F0A6
:106EAC00A374B3F09000C2E0FF900162E4F0A3EF92
:106EBC00F09000C7E0FF900164E4F0A3EFF0A3E4CE
:106ECC00F0A304F01231BF7B017A007903E4900146
:106EDC0062F0A3F0D212D2137DDC7F8CFE1254BC74
:106EEC0090003BE020E607C28CE4F58CF58A30225A
:106EFC001A9001617410F0E4A3F0A3F0D2127B4E4F
:106F0C00FA7DC07FA4FE126F46C222300A03026EC5
:106F1C008D90003BE020E703026E8D7BFF7A747945
:106F2C000BE4900162F0A3F0D212D2137D087FD84B
:096F3C00FE1254BCD20A026E8D53
:016F45002229
:03000B000287C5A4
:1087C500C0E0C083C082C0D09000C5E004F0E0C323
:1087D50094FF40099000C4E004F0A3E4F0D0D0D0A9
:0687E50082D083D0E032D7
:03009B000287EBEE
:1087EB00C0E0C083C082C0D09000D5E004F0E0C3ED
:1087FB0094FF40099000D4E004F0A3E4F0D0D0D073
:06880B0082D083D0E032B0
:03003B0002713619
:10713600C0E0C0F0C083C082C0D075D000C006C019
:017146000741
:10714700C2DF20D803027213C2D8900103E02420C3
:10715700F0900102E0344EF0E0A3E0F5EA9001027E
:10716700E0FEA3E0EEF5FA900011E004F0900101D3
:10717700E004F07006900100E004F0900002E004E3
:10718700F0900100E0FEA3E0FFD374649FE49E50FB
:1071970010D225900100E4F0A3F0301F04D222C2E0
:1071A7001F900002E0B40508D2F8D2C9D2B6D2C8FF
:1071B700900011E064027054F0A2FD82FC82FE820E
:1071C700FF82C54043301B3C900000E0FEA3E02552
:1071D700E0FFEE33900000F0A3EFF030202E127C9A
:1071E700F99000FDEFF0C2F8900002E4F09000BCC7
:1071F700E0B4060C90003BE04480F09000FDE4F022
:0C720700C2208008D21B8004D220C21BD1
:0F721300D007D006D0D0D082D083D0F0D0E032D8
:1058A100B2E220C1BF20C3A600C6E4CBFBB2E2C175
:1058B100BFBDF8D0D0D6D02100B7B5BBD800B2E279
:1058C100C1BFD6D00043503AD7DC3A2564253034E5
:1058D100640043732D3133373A2D2D2D00492D317D
:1058E10033313A2D2D2D00C6E4CBFB3A2D2D2D0061
:1058F10043504D3A43732D3133373A2D2D2D00B29C
:10590100E220C1BF20D6D000D6D0D6B900CFEAC799
:10591100E900424B473A25642530346400563A2564
:10592100646D6C004D3A253034646720563A256425
:105931006D6C0043732D3133373A00BEABB6C83AB4
:105941002D2D2500492D3133313A00B1A3B4E600A4
:10595100D6D8B2E200543A00CDEA20B3C900CAA7B2
:1059610020B0DC202100B2E2C1BFCAA7B0DC210017
:10597100B1BE20B5D720B2E220C1BF00BFAACABCC8
:10598100B2E2C1BF003120C7EBBDABD7BCB1B8BAE1
:10599100C3B5C4B4BFBEBBCBAEB5B9C8EBC8DDC6D9
:1059A100F700C4DA2E003220B0B4BFAACABCBCFCD6
:1059B100C6F4B6AFB1BEB5D7B2E2C1BF2E0020CC9E
:1059C100E520D1F920C6B720D0C520CFA200CAB1A9
:1059D100BCE4B9FDB6CC21000000000000000000CD
:1059E1000000B1BEB5D7B9FDB4F32100000000003D
:1059F100000000000000D0A3D7BCB2E2C1BFB4CE0A
:105A0100CAFDB9FDC9D9210000005858585858207D
:105A11004300000058585858582043504D005858DA
:105A2100582042712F4C00005858582042712F4C79
:105A310000005858582042712F4B67005858582081
:105A410042712F4B67005858582043504D000000B9
:105A51005858582043504D000000B1BE20B5D70022
:105A6100D2BA20CCE500B9CC20CCE500D0A320D718
:025A7100BC0077
:1086D70090003BE04440F0D28C9000C4121D78001B
:1086E7000000009000D4121D7800000000E4900004
:0986F70038F0A3F0A3F0D2252213
:107C5D0090016174B8F0E4A3F0A3F0D2127B407AE6
:107C6D00017D20FFFE126F467BFF7A5879A1E490CB
:107C7D000162F0A3F0D212D2137D3C7F50FE12545C
:107C8D00BC7BFF7A5879AAE4900162F0A3F0D2127E
:107C9D00D2137D807F3CFE1254BC7BFF7A5879BA9B
:107CAD00E4900162F0A3F0D212D2137DC87F087E5A
:107CBD00011254BC7BFF7A5879BFE4900162F0A3A6
:107CCD00F0D212D2137D787F087E011254BC900140
:107CDD005974B8F0E4A3F0A3F0D2127BF0FA7D2032
:0C7CED00FFFE124DC69000C27411F02280
:10864500900143EFF0E0121DE9865B03867704860F
:1086550072050000867790003BE030E40312879FA7
:1086650090003BE054EFF07F01128678227F0112E3
:03867500867822E2
:1060A200900150EFF09000C27443F0900161747857
:1060B200F0E4A3F0A3F0D2127B407A017D50FFFE00
:1060C200126F467BFF7A5879BAE4900162F0A3F02E
:1060D200D212D2137DC87F087E011254BC9001599E
:1060E20074B8F0E4A3F0A3F0D2127BF0FA7D20FFA3
:1060F200FE124DC67B017A007903C003C002C001C3
:1061020090015F74FFF0A37458F0A374C6F0E47BAF
:10611200107A27F9F89000C4E0FCA3E0FDA3E0FEAA
:10612200A3E0FF121CB2900162EEF0A3EFF0E47B59
:10613200107A27F9F89000C4E0FCA3E0FDA3E0FE8A
:10614200A3E0FF121CB2AF03900164EAF0A3EFF0E8
:10615200D001D002D0031231BF7B017A007903E46F
:10616200900162F0A3F0D212D2137D507F38FE125A
:1061720054BC7BFF7A5879D3E4900162F0A3F0D249
:1061820012D2137D647F50FE1254BC7BFF7A587981
:10619200DEE4900162F0A3F0D212D2137D787F5038
:1061A200FE1254BC7BFF7A5879E8E4900162F0A3B6
:1061B200F0D212D2137D8C7F50FE1254BC9001504B
:1061C200E0B403047F0180027F00900150E0B4023A
:1061D200047E0180027E00EE4F60327BFF7A5879A6
:1061E200F1E4900162F0A3F0D212D2137DAA7F38BB
:1061F200FE1254BC7BFF7A5879DEE4900162F0A370
:0E620200F0D212D2137DBE7F58FE1254BC2281
:053A5200900153EFF0AC
:103A5700201003023D71D28C9000C27414F0C21C76
:103A670090016174B8F0E4A3F0A3F0D2127B407A1E
:103A7700017D20FFFE126F467BFF7A597900E490A3
:103A87000162F0A3F0D212D2137D3C7F6CFE125478
:103A9700BC7BFF7A597909E4900162F0A3F0D21256
:103AA700D2137D787F087E011254BC900153E064E5
:103AB70001601A7BFF7A59790EE4900162F0A3F056
:103AC700D212D2137D507F087E011254BC7BFF7A3D
:103AD7005879BAE4900162F0A3F0D212D2137DC8EC
:103AE7007F087E011254BC7B017A007903C003C0B2
:103AF70002C00190015F74FFF0A37459F0A374131F
:103B0700F0E47B107A27F9F8900016E0FCA3E0FDBB
:103B1700A3E0FEA3E0FF121CB2900162EEF0A3EF58
:103B2700F0E47B107A27F9F8900016E0FCA3E0FD9B
:103B3700A3E0FEA3E0FF121CB2AF03900164EAF01A
:103B4700A3EFF0D001D002D0031231BF7B017A007E
:103B57007903E4900162F0A3F0D212D2137DDCFF67
:103B6700FE1254BCD211900153E0121DE93B8401AF
:103B77003BA0023BE2033C360400003C347BFF7A67
:103B87005879BFE4900162F0A3F0D212D2137DDC22
:103B97007F20FE1254BC023C367B017A00790390E9
:103BA700015F74FFF0A37459F0A3741EF090001C1A
:103BB700E0FEA3E0FF900162EEF0A3EFF01231BF49
:103BC7007B017A007903E4900162F0A3F0D212D26C
:103BD700137DDC7F82FE1254BC80547B017A00790E
:103BE700D890015F74FFF0A37459F0A37425F09087
:103BF700001AE0FEA3E0FF900162EEF0A3EFF09061
:103C0700001CE0FEA3E0FF900164EEF0A3EFF012CA
:103C170031BF7B017A0079D8E4900162F0A3F0D23A
:103C270012D2137DDC7F60FE1254BC8002C21130B9
:103C37001125900153E075F006A42455F9745A35FF
:103C4700F0FA7BFFE4900162F0A3F0D212D2137D69
:103C57003C7F3CFE1254BC900153E064017052E07B
:103C670014FF25E075F00AA4240BF9745A35F0FA0D
:103C77007BFFE4900162F0A3F0D212D2137D747F30
:103C870054FE1254BC900153E014FF25E075F00A6E
:103C9700A42415F9745A35F0FA7BFFE4900162F019
:103CA700A3F0D212D2137D8C7F4CFE1254BC023E7D
:103CB70017900153E014FF25E075F00AA4240BF9CF
:103CC700745A35F0FA7BFFE4900162F0A3F0D21248
:103CD700D2137D687F74FE1254BC900153E014FF29
:103CE70025E075F00AA42415F9745A35F0FA7BFF1C
:103CF700E4900162F0A3F0D212D2137D9E7F74FE8E
:103D07001254BC7BFF7A597934E4900162F0A3F036
:103D1700D212D2137D567F24FE1254BC7BFF7A59F0
:103D2700793CE4900162F0A3F0D212D2137D787F40
:103D370050FE1254BC7BFF7A597945E4900162F03A
:103D4700A3F0D212D2137D907F2CFE1254BC7BFFBE
:103D57007A59793CE4900162F0A3F0D212D2137D34
:103D6700B47F50FE1254BC023E179000C27415F087
:103D77007BFF7A59794CE4900162F0A3F0D212D21A
:103D8700137DA07F087E011254BC7BFF7A597951BD
:103D9700E4900162F0A3F0D212D2137D787F087EFF
:103DA700011254BC900153E0B401179001617410E3
:103DB700F0E4A3F0A3F0D2127B50FA7DDCFFFE12F1
:103DC7006F46900153E0B404479000FFE004F09081
:103DD70001C7E0FCA3E0FDA3E0FEA3E0FFC004C031
:103DE70005C006C00790003EE0FCA3E0FDA3E0FE8F
:103DF700A3E0FFE4121712A804A905AA06AB07D08F
:103E070007D006D005D0041215819001C7121D6C8A
:103E17007BFF7A597956E4900162F0A3F0D212D26F
:103E2700137DDC7FE8FE1254BC90015974B8F0E4AE
:103E3700A3F0A3F0D2127BF0FA7D20FFFE124DC64D
:013E47002258
:085A730090014DEFF0A3EDF0EE
:105A7B0090014DE0121DE95A8F025AA3035C0405F5
:105A8B0000005C2E90014EE064017003025C2E90CE
:105A9B00014EE0FF1260A22290003BE054BFF07B6E
:105AAB00FF7A597959E4900162F0A3F0D212D21324
:105ABB007D3C7F9CFE1254BC90014EE06401601A49
:105ACB007BFF7A59790EE4900162F0A3F0D212D2E7
:105ADB00137D507F087E011254BC900038E075F0A6
:105AEB003CA4FFA3E02FFF90001EE0FCA3E0D39F9C
:105AFB00EC94005003025BF4C221E490014FF09050
:105B0B0000C27415F09001617478F0E4A3F0A3F077
:105B1B00D2127B407A017D50FFFE126F4690014FEF
:105B2B00E075F014A424CFF9745935F0FA7BFFE437
:105B3B00900162F0A3F0D212D2137D907F50FE122F
:105B4B0054BC7BFF7A59795FE4900162F0A3F0D2E9
:105B5B0012D2137D607F60FE1254BC7BFF7A5979A1
:105B6B0051E4900162F0A3F0D212D2137D787F083A
:105B7B007E011254BC7BFF7A5879BAE4900162F033
:105B8B00A3F0D212D2137DC87F087E011254BC90B1
:105B9B00014EE06401601A7BFF7A59790EE49001A3
:105BAB0062F0A3F0D212D2137D507F087E01125403
:105BBB00BC90014EE0B401197BFF7A597967E490F0
:105BCB000162F0A3F0D212D2137DDC7F20FE1254BF
:105BDB00BC90015974B8F0E4A3F0A3F0D2127BF09F
:105BEB00FA7D20FFFE124DC622D22190003BE0A28F
:105BFB00E692107F01123A522290003BE020E6041D
:105C0B007F0180027F0090014EE0B404047E01808E
:105C1B00027E00EE4F600990014EE0FF1286782263
:035C2B00125F34D1
:015C2E002253
:1081880090014DEFF0A3EDF0A3EBF090014DE0125C
:108198001DE981AA0281BB0381DE0481ED0500008F
:1081A80081FA90014EE06401604890014EE0FF12B0
:1081B80060A2221286D79001617418F0E4A3F0A39C
:1081C800F0D2127B407A017DD8FFFE126F46D210A2
:1081D8007F01123A522290014FE0601690014EE062
:1081E800FF1284B122E49000FFF090014EE0FF12EC
:0381F80086782264
:10860F00900143EFF0A3EDF0900143E0121DE986D6
:10861F0025050000864490003BE030E611900144B0
:10862F00E0FF90003BE0A2E69210123A52227D0149
:06863F007F03125A7322B2
:106C170090003BE030E60A90003BE020E403026D81
:106C2700229000C27410F090003BE020E40790002F
:106C37003BE054FCF090016174B8F0E4A3F0A3F0DA
:106C4700D2127B407A017D20FFFE126F4690003BF7
:106C5700E020E6189001617418F0E4A3F0A3F0D2E5
:106C6700127B407A017DD8FFFE126F467BFF7A596F
:106C77007971E4900162F0A3F0D212D2137D3C7FC8
:106C870048FE1254BC7BFF7A59797DE4900162F08B
:106C9700A3F0D212D2137D287FF8FE1254BC7BFFDB
:106CA7007A5879BAE4900162F0A3F0D212D2137D38
:106CB700C87F087E011254BC7BFF7A597986E4901D
:106CC7000162F0A3F0D212D2137D707F08FE125436
:106CD700BC7BFF7A5979A3E4900162F0A3F0D2124A
:106CE700D2137D827F18FE1254BC7BFF7A5979A795
:106CF700E4900162F0A3F0D212D2137D947F08FED4
:106D07001254BC90015974B8F0E4A3F0A3F0D21266
:106D17007BF0FA7D20FFFE124DC622D2107F0112B2
:036D27003A5222BB
:107BBE00900152EFF090003BE030E61130E6079076
:107BCE000152E0B4010790003BE030E47A90003BB4
:107BDE00E020E43930E612900152E06401600A9030
:107BEE00003BE04410F0128779900152E0B4020B92
:107BFE0090003BE054FD4401F0800990003BE054BE
:107C0E00FE4402F0900152E0149000B7F090016132
:107C1E0074B8F0E4A3F0A3F0D2127B407A017D2079
:107C2E00FFFE126F467BFF7A5979BFE4900162F036
:107C3E00A3F0D212D2137D3C7F46FE1254BC9000AC
:0F7C4E00B7E0FF122C0322D2107F01123A52220C
:107FA7009000C6E58CF0A3E58AF0900038E0FF7EEC
:107FB700007C0E7D10121B14AC06AD07A3E075F014
:107FC7003CA42DFFEC35F0FEA3E07C002FFFEC3E38
:107FD70090014DF0A3EFF090014DE0FEA3E0FFFB11
:107FE700AA06E4F9F89000C4E0FCA3E0FDA3E0FED4
:107FF700A3E0FF121CB290014F121D6CE47F3CFE00
:10800700FDFC90014FE0F8A3E0F9A3E0FAA3E0FB41
:09801700121C2790003E121D6CA2
:01802000223D
:1064BE00D2BA00CCE5BBFD3A006D6C0025303464D9
:1064CE0000B9CC00D6CAC1BF3A006700253034648B
:1064DE0025632530346400B2E220C1BF00B2E2C1B0
:1064EE00BFCAB1BCE43A00B2E2C1BFBEABB6C83A55
:1064FE0000B1A8BEAFE3D0D6B53A00B7D6D6D3001A
:10650E00250042712F4C0042712F4B67002530340D
:10651E006425632530326425632530346425632574
:10652E0030346400CFB520CDB30043732D313337F3
:10653E003A0020492D3133313A00CAB12020BCE453
:10654E003A20002020202048563A200020202041CA
:10655E004D503A2000252E32662563252E326625B3
:10656E0063253032782F253032782F25303278253A
:10657E0063253032783A25303278256325303464FD
:10658E00256325303464002B0023002D00B7B5BBE6
:10659E00D800C8B7C8CF00252E3266002564002566
:1065AE007800D0DEB8C4B3C9B9A62100B2E2C1BF2B
:1065BE00B2CECAFD00CFB5CDB3B2CECAFD00B2E2A7
:1065CE00C1BFD6D000D2C7C6F7D0A3D7BC00B2CEBB
:1065DE0020CAFD20C9E820D6C320D1A120D4F100C5
:1065EE00B0B4CFC2D3D2B2E0B0B4BCFCBDF8C8EBED
:1065FE00CFE000D3A6B2CECAFDB5F7D5FBD2B3C35A
:02660E00E600A4
:10833D009000C27441F0900082E024D8F582E434BC
:10834D0000F583E0900003F0E4A3F09000B8E0FFA7
:10835D007E009000B9E0FD7B017A0079D8E49001B0
:10836D0062F0A3F0D212D2131254BC900083E0FF3E
:10837D009000B8E02FFF7E00900084E0FD9000B9E2
:10838D00E02DFD7B017A007903E4900162F0A3F00A
:08839D00C212C2131254BC22EB
:102C0300900153EFF0E4900082F0900084F0900084
:102C130083F090003BE020E6189001617418F0E423
:102C2300A3F0A3F0D2127B407A017DD8FFFE126F8E
:102C330046900153E0121DE92C4B012CEA022DCFE3
:102C4300032F3704000030C37BFF7A6479BEE4901E
:102C53000162F0A3F0D212D2137D3C7F30FE1254F6
:102C6300BC7BFF7A6479C1E4900162F0A3F0D212D5
:102C7300D2137D707F40FE1254BC7BFF7A6479C708
:102C8300E4900162F0A3F0D212D2137D707F88FE2C
:102C93001254BC7B017A0079D890015F74FFF0A3D2
:102CA3007464F0A374CAF090001CE0FEA3E0FF90EC
:102CB3000162EEF0A3EFF01231BF90000FEFF07B53
:102CC300017A0079D8E4900162F0A3F0D212D21312
:102CD3007D707F68FE1254BC9000B87468F0900059
:102CE300B97470F00230C37BFF7A6479CFE490014A
:102CF30062F0A3F0D212D2137D3C7F30FE1254BC9B
:102D03007BFF7A6479D2E4900162F0A3F0D212D20D
:102D1300137D707F40FE1254BC7BFF7A6479C1E45B
:102D2300900162F0A3F0D212D2137D847F40FE1291
:102D330054BC7BFF7A6479D8E4900162F0A3F0D2AB
:102D430012D2137D707F88FE1254BC7BFF7A6479A4
:102D5300C7E4900162F0A3F0D212D2137D847F887E
:102D6300FE1254BC7B017A0079D890015F74FFF0A6
:102D7300A37464F0A374DAF090001AE0FEA3E0FFFA
:102D8300900162EEF0A3EFF0A3740DF090001CE04D
:102D9300FEA3E0FF900165EEF0A3EFF01231BF90C8
:102DA300000FEFF07B017A0079D8E4900162F0A381
:102DB300F0D212D2137D707F68FE1254BC9000B81B
:102DC3007468F09000B97470F00230C37BFF7A64CA
:102DD30079E5E4900162F0A3F0D212D2137D3C7F37
:102DE30030FE1254BC7BFF7A6479EBE4900162F00D
:102DF300A3F0D212D2137D607F30FE1254BC7BFF4E
:102E03007A6479F5E4900162F0A3F0D212D2137DD3
:102E1300747F30FE1254BC7BFF7A6479FFE4900127
:102E230062F0A3F0D212D2137D887F30FE1254BC1D
:102E33007BFF7A657909E4900162F0A3F0D212D2A4
:102E4300137D607FACFE1254BC7BFF7A65790EE480
:102E5300900162F0A3F0D212D2137D747FA4FE120C
:102E630054BC7BFF7A657910E4900162F0A3F0D241
:102E730012D2137D887FB4FE1254BC7BFF7A65792E
:102E830015E4900162F0A3F0D212D2137D9C7FB4BB
:102E9300FE1254BC7B017A0079D8C003C002C00182
:102EA30090015F74FFF0A37465F0A3741BF09000AE
:102EB3001EE0FEA3E0FF7C007D64121B26900162EE
:102EC300ECF0A3EDF0A3740DF0900020E0FF90016F
:102ED30065E4F0A3EFF0A3740DF0900022E0FEA3ED
:102EE300E0FF900168EEF0A3EFF0A3740DF0900003
:102EF30024E0FEA3E0FF90016BEEF0A3EFF0D0011E
:102F0300D002D0031231BF90000FEFF07B017A00A3
:102F130079D8E4900162F0A3F0D212D2137D607FDE
:102F230084FE1254BC9000B87484F09000B97460AD
:102F3300F00230C37BFF7A657932E4900162F0A33B
:102F4300F0D212D2137D3C7F30FE1254BC7BFF7A49
:102F5300657938E4900162F0A3F0D212D2137D6058
:102F63007F38FE1254BC7BFF7A657940E49001629E
:102F7300F0A3F0D212D2137D747F38FE1254BC7BBF
:102F8300FF7A657948E4900162F0A3F0D212D2137C
:102F93007D887F38FE1254BC7BFF7A657951E490BB
:102FA3000162F0A3F0D212D2137DB07F38FE125427
:102FB300BC7BFF7A65795AE4900162F0A3F0D212E8
:102FC300D2137DC47F38FE1254BC7B017A0079D8BA
:102FD300C003C002C00190015F74FFF0A37465F0E9
:102FE300A37463F0900026E0FCA3E0FDA3E0FEA33E
:102FF300E0FF900162121D6C900166740DF0900069
:103003002AE0FCA3E0FDA3E0FEA3E0FF900167122A
:103013001D6C90016B740DF090002EE0FF90016C1D
:10302300E4F0A3EFF090002FE0541FFF90016EE453
:10303300F0A3EFF0900030E0543FFF900170E4F014
:10304300A3EFF0A3740DF0900031E0543FFF900123
:1030530073E4F0A3EFF0900032E0547FFF9001752A
:10306300E4F0A3EFF0A3740DF0900034E0FEA3E0CE
:10307300FF900178EEF0A3EFF0A3740DF09000360B
:10308300E0FEA3E0FF90017BEEF0A3EFF0D001D0D0
:1030930002D0031231BF90000FEFF07B017A007969
:1030A300D8E4900162F0A3F0D212D2137D607F8442
:1030B300FE1254BC9000B87484F09000B97460F0B0
:1030C3007BFF7A657995E490015DF0A3F0D2107DE2
:1030D300287F147E011263677BFF7A657997E490FA
:1030E300015DF0A3F0D2107D507F147E011263675F
:1030F3007BFF7A657999E490015DF0A3F0D2107DAE
:10310300787F147E011263677BFF7A65799BE49075
:103113000162F0A3F0D212D2137DC87F087E0112A0
:1031230054BC7BFF7A6579A0E4900162F0A3F0D2EE
:1031330012D2137DA07F087E011254BC90015974F2
:10314300B8F0E4A3F0A3F0D2127BF0FA7D20FFFEE7
:07315300124DC612833D225C
:081E5400900143EFF0A3EDF053
:101E5C00900143E0121DE91E76011EE8021EAF033D
:101E6C001FB50425430500002584900082E024D88A
:101E7C00F582E43400F583E004F0900082E024D88D
:101E8C00F582E43400F583E0FF7439D39F50109051
:101E9C000082E024D8F582E43400F5837430F0122B
:101EAC00833D22900082E024D8F582E43400F5834F
:101EBC00E014F0900082E024D8F582E43400F5833D
:101ECC00E0FF7430C39F4010900082E024D8F5826C
:101EDC00E43400F5837439F012833D22900082E0E3
:101EEC0004F0900083E02408F090000FE0FF9000D5
:101EFC0082E0C39F400AE4F0900083F0900084F0ED
:101F0C00900082E024D8F582E43400F583E0B42F0D
:101F1C00047F0180027F00900082E024D8F582E4E7
:101F2C003400F583E0B40D047E0180027E00EE4F98
:101F3C00FF900082E024D8F582E43400F583E0B40D
:101F4C002E047E0180027E00EE4FFF900082E02482
:101F5C00D8F582E43400F583E0B43A047E018002C3
:101F6C007E00EE4F603F900082E024D8F582E4348E
:101F7C0000F583E0B40D21900084E02414F090016E
:101F8C0044E09074BF93FF900084E0C39F4002E450
:101F9C00F0E4900083F08007900083E02408F09038
:101FAC000082E004F012833D22900144E0121DE90E
:101FBC001FCC011FCC0220F60320F6040000258460
:101FCC0090003BE030E4030220F21286D7900144EB
:101FDC00E0B4021090014C7401F0A37400F0A374EF
:101FEC001AF0800E90014C7401F0A37400F0A374ED
:101FFC001CF0E4900145F0A3F090000FE0FF90017D
:10200C0045E0C39F4003022099E024D8F582E434D4
:10201C0000F583E0B40D4B7B017A007903C003C05B
:10202C0002C00190015474FFF0A37464F0A374CA4D
:10203C00F090014CE0FBA3E0FAA3E0F9900157EB20
:10204C00F0A3EAF0A3E9F0D001D002D0031242458C
:10205C0090014DE475F002121BB190014674FFF033
:10206C00801E900145E024D8F582E43400F583E02D
:10207C00FF900146E02403F582E43400F583EFF091
:10208C00900145E004F0A3E004F00220057B017A06
:10209C00007903C003C002C00190015474FFF0A387
:1020AC007464F0A374CAF090014CE0FBA3E0FAA3B3
:1020BC00E0F9900157EBF0A3EAF0A3E9F0D001D0DE
:1020CC0002D0031242457B017A00791A90016174A7
:1020DC0008F0A3E4F0A37404F07F17128021D2104F
:1020EC007F01123A5222127C5D22900144E0B4032B
:1020FC001090014C7401F0A37400F0A3741EF080D6
:10210C001090014C7401F0A37400F0A37426F0D26B
:10211C002490014CE0FBA3E0FAA3E0F9900147EB1B
:10212C00F0A3EAF0A3E9F0E4900145F0A3F09000ED
:10213C000FE0FF900145E0C39F4003022427E024F9
:10214C00D8F582E43400F583E0B42F047F018002DB
:10215C007F00900145E024D8F582E43400F583E05B
:10216C00B40D047E0180027E00EE4FFF900145E02D
:10217C0024D8F582E43400F583E0B43A047E01807F
:10218C00027E00EE4F70030223FC90014CE0FBA397
:10219C00E0FAA3E0F9EB8A8389827B017A00792645
:1021AC006401700A7426658270047400658370047F
:1021BC007F0180027F0090014CE0FBA3E0FAA3E0DA
:1021CC00F9EB8A8389827B017A00792A6401700A8F
:1021DC00742A658270047400658370047E01800229
:1021EC007E00EE4F60467B017A007903C003C0028B
:1021FC00C00190015474FFF0A37465F0A374A5F0B2
:10220C0090014CE0FBA3E0FAA3E0F9900157EBF04E
:10221C00A3EAF0A3E9F0D001D002D003124245901A
:10222C00014DE475F004121BB10223F490014CE053
:10223C00FBA3E0FAA3E0F9EB8A8389827B017A00A5
:10224C0079246401700A74246582700474006583B7
:10225C00607290014CE0FBA3E0FAA3E0F9EB8A83F7
:10226C0089827B017A0079226401700A742265826A
:10227C00700474006583604C90014CE0FBA3E0FAA1
:10228C00A3E0F9EB8A8389827B017A00791E6401D1
:10229C00700A741E65827004740065836026900158
:1022AC004CE0FBA3E0FAA3E0F9EB8A8389827B0183
:1022BC007A0079346401700A743465827004740095
:1022CC0065837063900146E0C394085014E02403C6
:1022DC00F582E43400F583E4F0900146E004F080EC
:1022EC00E37B017A007903C003C002C00190015462
:1022FC0074FFF0A37464F0A374CAF090014CE0FB7B
:10230C00A3E0FAA3E0F9900157EBF0A3EAF0A3E9FC
:10231C00F0D001D002D00312424590014DE475F08B
:10232C0002121BB10223F4900146E0C3940850142E
:10233C00E02403F582E43400F583E4F0900146E0F8
:10234C0004F080E3900144E0B403287B017A007927
:10235C0003C00390015474FFF0A37465F0A374AA36
:10236C00F0A3EBF0A37401F0A3744FF0D00312426E
:10237C004580267B017A007903C00390015474FFD9
:10238C00F0A37465F0A374ADF0A3EBF0A37401F0AB
:10239C00A3744FF0D00312424590014FE0A3E0FF2D
:1023AC0090014CE0FBA3E0FAA3E0F9EF121B0290C2
:1023BC00014DE475F001121BB190014CE0FBA3E060
:1023CC00FAA3E0F9EB8A8389827B017A0079336482
:1023DC0001700A743365827004740065837009900F
:1023EC00014D75F001121BB190014674FFF0801E77
:1023FC00900145E024D8F582E43400F583E0FF90A9
:10240C000146E02403F582E43400F583EFF09001FB
:10241C0045E004F0A3E004F002213A7B017A007954
:10242C0003C003C002C00190015474FFF0A3746494
:10243C00F0A374CAF090014CE0FBA3E0FAA3E0F91E
:10244C00900157EBF0A3EAF0A3E9F0D001D002D051
:10245C0003124245900144E0B4030D90014A740C00
:10246C00F0A37408F00224FB90002FE0D3941140E9
:10247C00037412F0900030E0D3943040037431F0C8
:10248C00900031E0D3942240037423F0900032E0AA
:10249C00D3945840037459F07B017A0079327D064D
:1024AC0012003E900034E0FCA3E0FDE4121717A8E4
:1024BC0004A905AA06AB077F667E967D9C7C441218
:1024CC00157D7BE57AD0799A783F121675121750E4
:1024DC00900000EEF0A3EFF07B017A0079007F0012
:1024EC007E041256B290014A7414F0A37412F09048
:1024FC000147E0FBA3E0FAA3E0F9A3E0900161F04F
:10250C0090014BE0FF900162E4F0A3EFF07F171213
:10251C0080217BFF7A6579B0E4900162F0A3F0D260
:10252C0012D2137DC07FA4FE1254BC900144E0FF74
:10253C00122C03D21F2222900144E0121DE9255ACD
:10254C0001255A02257F03257F0400002584900075
:10255C003BE070047F0180027F00EF20E60A9000D0
:10256C003BE030E40312879F90003BE054EFF01205
:08257C005F34227F041286780F
:012584002234
:1068A1009000C27410F090003BE030E6064410F016
:1068B10012877990003BE04403F090016174B8F0D5
:1068C100E4A3F0A3F0D2127B407A017D20FFFE12F7
:1068D1006F4690003BE070047F0180027F00EF3043
:1068E100E6189001617418F0E4A3F0A3F0D2127BD2
:1068F100407A017DD8FFFE126F4690015974B8F0BD
:10690100E4A3F0A3F0D2127BF0FA7D20FFFE124D3A
:10691100C67BFF7A6579BAE4900158F0A3F0D210F2
:106921007D507FF8FE1267607BFF7A6579C3E49042
:106931000158F0A3F0D2107D787FF8FE12676090C5
:10694100003BE030E61D20E41A7BFF7A6579CCE458
:10695100900158F0A3F0D2107DA07F047E01126750
:106961006080177BFF7A6579D3E4900158F0A3F03A
:10697100D2107DA07FF8FE1267607BFF7A65799B5C
:10698100E4900162F0A3F0D212D2137DC87F087E99
:10699100011254BC7BFF7A6579DCE4900162F0A3BB
:1069A100F0D212D2137D3C7F30FE1254BC7BFF7AB1
:1069B1006579EEE4900158F0A3F0D2107D707F105C
:1069C100FE1267607BFF7A667901E4900158F0A3BB
:0C69D100F0D2107D887F10FE126760225B
:107D8A002532642F2532640025326420253032647E
:107D9A002F253032782F25303278202020202020BD
:107DAA00202020253032783A253032780043504D51
:107DBA003A25640043732D3133373A256442672FDD
:107DCA004B6700492D3133313A256442672F4B679F
:107DDA0000C0FA20CAB720BCC720C2BC00B7B5BBD6
:107DEA00D8003C5F003D3E00B5BCB3F600C9BEB347
:107DFA00FD002300B1A3B4E6CAA7B0DC2100C8B7CE
:0C7E0A00C8CF0020C9BEB3FD203F2000FF
:046AEB004101CD0098
:10811400900152EFF0A3EDF07B017A007980E490B6
:10812400016AF0A37402F0E4FF12840A7B017A006E
:10813400790390015F74FFF0A3747DF0A3748AF057
:10814400900153E0FF25E0FF900152E02F04FF90DF
:108154000162E4F0A3EFF0900080E0FEA3E0FF9062
:108164000164EEF0A3EFF01231BF7B017A007903D2
:10817400E4900162F0A3F0D212D2137D287FC8FEEE
:048184001254BC22B3
:0E52820090015CEFF0A3EBF0A3EAF0A3E9F0DB
:10529000E4900164F090015CE014FF25E0FF9001D0
:1052A00060E0FBA3E0FAA3E0F9EF121B02900164B7
:1052B000E0FF7B017A00794EE490016AF0A3740864
:1052C000F012840A90004EE0FF900080E4F0A3EF1B
:1052D000F0900054E0900164F0900164E0FF7B01E5
:1052E0007A00795590016A7407F0A37402F0128471
:1052F0000A900160E0FBA3E0FAA3E0F9121A9AFF1A
:10530000900056E0FEEFC39E50048026801A900164
:1053100060E0FBA3E0FAA3E0F9121A9AFF900056AE
:10532000E0FEC3EF9E121B02900055E0900164F076
:1053300080A7900055E0900165F0900164E0FF7B4C
:10534000017A01796390016A7409F0A37401F01283
:10535000840A900163E075F019A42424F090015DA3
:10536000E0FBA3E0FAA3E0F9E4121B029000D2F004
:10537000900164E0FF9000D2E024C8F582E434009C
:10538000F583EFF09000D2E004F090015DE0FBA324
:10539000E0FAA3E0F9121A9A640270030254BB9077
:1053A0000160E0FBA3E0FAA3E0F9121A9A6003029D
:1053B000547B90015DE0FBA3E0FAA3E0F9121A9A96
:1053C00075F019A4244EF9740035F0FA7B019001B0
:1053D00064E0FF900163E024E890016AF0A374198F
:1053E000F012840A90015DE0FBA3E0FAA3E0F91259
:1053F0001A9A75F019A42466F582E43400F583E066
:10540000900163F090015DE0A3E0A3E07401121A43
:10541000E0900163E0F460030254AD900165E0F4B4
:1054200070030254BB900165E0FF9000D2E024C8F5
:10543000F582E43400F583EFF09000D2E004F090C0
:105440000165E0FF7B017A01796390016A7409F0DC
:10545000A37401F012840A900165E0900164F09059
:105460000163E0FF9000D2E024C8F582E43400F547
:1054700083EFF09000D2E004F08032900160E0FB16
:10548000A3E0FAA3E0F974FF121AE0900164E0FFD0
:105490007B017A00794E900163E090016AF0A37479
:1054A00001F012840A90004EE0900163F0900163D5
:0B54B000E075F019A42424F002538AD8
:0154BB0022CE
:054B0900900152EFF0E5
:104B0E00E490015AF0900152E0FF7B017A01795B4B
:104B1E00C003900160EBF0A37401F0A37459F0D0C0
:104B2E00031252829001617470F0E4A3F0A3F0D2EC
:104B3E00127BC8FA7D607F10FE126F4690015AE01C
:104B4E00FFA3E06F7003024DC57B017A0079D8C0D8
:104B5E0003C002C00190015F74FFF0A3747DF0A347
:104B6E007492F0900152E014FF25E0FF90015AE09C
:104B7E002F04FF900162E4F0A3EFF090015AE0756C
:104B8E00F019A4244EF582E43400F583E0FF900181
:104B9E0064E4F0A3EFF090015AE075F019A4244FED
:104BAE00F582E43400F583E0FF900166E4F0A3EFB4
:104BBE00F090015AE075F019A42450F582E4340007
:104BCE00F583E0FF900168E4F0A3EFF090015AE066
:104BDE0075F019A42451F582E43400F583E0FF90BA
:104BEE00016AE4F0A3EFF090015AE075F019A424E5
:104BFE0052F582E43400F583E0FF90016CE4F0A3FB
:104C0E00EFF0D001D002D0031231BF90015AE0FF75
:104C1E00C4333354C02450FD7B017A0079D8E4901C
:104C2E000162F0A3F0D212D2137F10FE1254BC9088
:104C3E00015AE075F019A42457F582E43400F58387
:104C4E00E0FF90015AE075F019A42458F582E4347F
:104C5E0000F583E0FF900157E4F0A3EFF07B017ABB
:104C6E000079D890015F74FFF0A3747DF0A374B740
:104C7E00F0900157E0FEA3E0FF900162EEF0A3EF8B
:104C8E00F01231BF90015AE0FFC4333354C0246098
:104C9E00FD7B017A0079D8E4900162F0A3F0D21284
:104CAE00D2137F60FE1254BC90015AE075F019A425
:104CBE002453F582E43400F583E0FF90015AE07549
:104CCE00F019A42454F582E43400F583E0FF90013A
:104CDE0053E4F0A3EFF0900153E0FEA3E04E604BDF
:104CEE007B017A0079D890015F74FFF0A3747DF098
:104CFE00A374BEF0900153E0FEA3E0FF900162EEBC
:104D0E00F0A3EFF01231BF90015AE0FFC4333354D9
:104D1E00C02470FD7B017A0079D8E4900162F0A383
:104D2E00F0D212D2137F60FE1254BC90015AE0757D
:104D3E00F019A42455F582E43400F583E0FF9001C8
:104D4E005AE075F019A42456F582E43400F583E098
:104D5E00FF900155E4F0A3EFF0900155E0FEA3E0C3
:104D6E004E604B7B017A0079D890015F74FFF0A3FF
:104D7E00747DF0A374CDF0900155E0FEA3E0FF909A
:104D8E000162EEF0A3EFF01231BF90015AE0FFC4C2
:104D9E00333354C02480FD7B017A0079D8E490012E
:104DAE0062F0A3F0D212D2137F60FE1254BC9001B7
:074DBE005AE004F0024B4A29
:014DC50022CB
:105DBA009000C2E070099000FEF09000C304F07BEE
:105DCA00017A007980E490016AF0A37402F0E4FF9A
:105DDA0012840AC21E900080E0FEA3E04E70047F87
:105DEA000180027F00900080E0FCA3E0F44C700484
:105DFA007E0180027E00EE4F6002D21E9001617425
:105E0A00B8F0E4A3F0A3F0D2127B407A017D20FF20
:105E1A00FE126F467BFF7A7D79DBE4900162F0A384
:105E2A00F0D212D2137D327F48FE1254BC7BFF7A25
:105E3A007D79E7E4900162F0A3F0D212D2137DC813
:105E4A007F087E011254BC301E03025F167BFF7A64
:105E5A007D79ECE490015DF0A3F0D2107D287F14E7
:105E6A007E011263677BFF7A7D79EFE490015DF032
:105E7A00A3F0D2107D507F147E011263677BFF7AF4
:105E8A007D79F2E4900162F0A3F0D212D2137DA0E0
:105E9A007F087E011254BC7BFF7A7D79F7E490017A
:105EAA0062F0A3F0D212D2137D787F087E011254D9
:105EBA00BC9000FEE0FFC4333354C02450FD7BFF86
:105ECA007A7D79FCE4900162F0A3F0D212D2137FBA
:105EDA0008FE1254BC9000C3E0FF124B099000FE6A
:105EEA00E0FF9000C3E014FD1281149000FEE0FF71
:105EFA00C4333354C02450FDE4900157F0A3F0C2D8
:105F0A0010D2117B40FA7FE9FE1277CE90015974C4
:105F1A00B8F0E4A3F0A3F0D2127BF0FA7D20FFFEE2
:0A5F2A00124DC69000C27450F02220
:0535DD00900151EFF028
:1035E200C210E0121DE935F8013611023611033915
:1035F200FD0400003A4F90003EE0FCA3E0FDA3E092
:10360200FEA3E0FF900016121D6CD210023A4F7B0F
:10361200017A007980E490016AF0A37402F0E4FF79
:1036220012840A7B017A00794EE490016AF0A37455
:1036320007F0E4FF12840A900080E0FEA3E04E70DF
:103642002E90004EF0A3F0A304F0E4A3F0A3F0A3A5
:10365200F0A3F0A374FFF0E4A3F0A3F0A304F0E45A
:10366200A3F0900157F0A3F0A3F0A3F00238C790A3
:103672000080E0FEA3E0FF90015BEEF0A3EFF0908C
:103682000054E0FF900157E4F0A3EFF0900157E0FF
:10369200A3E0FF7B017A00795590016A7407F0A3D9
:1036A2007402F012840A900055E0F4602A90015BE3
:1036B200E0FEA3E0FF900056E0FDC3EF9DFFEE9415
:1036C2000090015BF0A3EFF0900055E0FF900157EE
:1036D200E4F0A3EFF080B59001567402F090015B24
:1036E200E0A3E09000D3F0900056E064096003028A
:1036F20037B7900155F0900155E06416603EE054F2
:1037020007FF74017E00A807088005C333CE33CEBD
:10371200D8F9FF900156E0244EF582E43400F58397
:10372200E0FDE4EF5D6015900155E05407B4070435
:10373200A3E004F0900155E004F080BA900155E056
:1037420064167003023A4F900156E0244EF582E46B
:103752003400F583C083C082E0FF900155E0540736
:10376200FE7401A806088002C333D8FC4FD082D071
:1037720083F0900157E0A3E0FF7B017A0179559035
:1037820001617407F0A3E4F0A304F0128021900019
:103792005574FFF0E4A3F0A3F0A304F0E4A3F090C7
:1037A2000159F0A3F0900155E0FF900157E4F0A316
:1037B200EFF00238C7900157E0A3E0FF7B017A00E7
:1037C200795790016A7409F0A37403F012840A9085
:1037D2000057E0FF900159E4F0A3EFF0900159E0A7
:1037E200FEA3E0FF7C007D19121B14EF2424FFE4EA
:1037F2003E900159F0A3EFF0900157E0A3E0FF7B68
:10380200017A007967A3E0A3E090016AF0A3740152
:10381200F012840A900067E0F4600F900067E0FF06
:10382200900159E4F0A3EFF080B2E4900155F0A3C7
:10383200740AF0900155E05407FF74017E00A80756
:10384200088005C333CE33CED8F9FF900156E02469
:103852004EF582E43400F583E0FDE4EF5D60109004
:103862000155E004F0E0B408CAA3E004F080C4907B
:103872000157E0A3E0FF7B017A017955A3E0A3E0C1
:10388200900161F0A3E4F0A304F0128021900156AC
:10389200E0244EF582E43400F583C083C082E0FF69
:1038A200900155E05407FE7401A806088002C33354
:1038B200D8FC4FD082D083F0900155E0FF9001599F
:1038C200E4F0A3EFF09001527401F0A37400F0A3AE
:1038D200742FF09001CDE0900067F09001CD04F0DC
:1038E2009001557401F0900155E0C3940950309055
:1038F2000152E0FBA3E0FAA3E0F9121A9AFF900149
:1039020055E02467F582E43400F583EFF09001532B
:10391200E475F001121BB1900155E004F080C790EC
:1039220001527401F0A37400F0A3743EF0A3740971
:10393200F0900155E0C394195030900152E0FBA37E
:10394200E0FAA3E0F9121A9AFF900155E02467F514
:1039520082E43400F583EFF0900153E475F0011234
:103962001BB1900155E004F080C790007F74FFF016
:10397200900056E004F090004FE0B4FF0690004E35
:10398200E004F090004FE004F0900159E0FEA3E063
:10399200FF7C007D19121B14EF240CFFE43E900102
:1039A20059F0A3EFF07B017A00794EE4900161F0C7
:1039B200A3F0A37407F0E4FF128021900157E0A363
:1039C200E0FF7B017A0079559001617407F0A3E46E
:1039D200F0A37405F0128021900157E0A3E0FF7B71
:1039E200017A007967A3E0A3E0900161F0A3E4F01B
:1039F200A37419F0128021D21080529000FFE0FFD0
:103A02007402D39F50479001C7E0FCA3E0FDA3E0FE
:103A1200FEA3E0FFE4FBFA794078401216759001AC
:103A2200C7121D6CE49000FFF090003EE0F8A3E0A6
:103A3200F9A3E0FAA3E0FBE47FA07E0FFDFC121CD9
:0F3A4200B2E4121712900026121D6CD210A210BF
:013A51002252
:0584B100900150EFF006
:1084B600E0FF1235DD920F300F09900150E0FF12F8
:1084C6008678229001617410F0E4A3F0A3F0D21232
:1084D6007B20FA7DA07F087E01126F467BFF7A7DA6
:1084E60079FEE4900162F0A3F0D212D2137DC47F2C
:0584F60064FE1254BCFD
:0184FB00225E
:08504700900146EFF0A3EDF02B
:10504F0090014C74FFF0E4A3F0A374FFF0900146BD
:10505F00E014FF25E0FFA3E02F04FFA3E4F0A3EF8C
:10506F00F090014DE0FF7B017A00794EE490016AE8
:10507F00F0A37407F012840A900054E090014DF0F1
:10508F0090014DE0FF7B017A00795590016A74071A
:10509F00F0A37402F012840A900056E0FF900148CA
:1050AF00E0FCA3E0D39FEC94005004802D801B9074
:1050BF000148E0FEA3E0FF900056E0FDC3EF9DFF27
:1050CF00EE9400900148F0A3EFF090014DE0A3F0B3
:1050DF00900055E090014DF080A690014DE0FF7BD0
:1050EF00017A00795790016A7409F0A37403F012E2
:1050FF00840A900056E064017079900054E0FF90AC
:10510F00014DE0B5070A900055E0900054F080265D
:10511F00900055E090014DF0A3E0FF7B017A0079FC
:10512F005590016A7407F0A37405F012840A900178
:10513F004DE0900055F090014DE0FF131313541FF5
:10514F002450F582E43400F583C083C082E0FF90E1
:10515F00014DE05407FE7401A806088002C333D83E
:10516F00FCF45FD082D083F090014EE090014DF0BF
:10517F0002523E900057E090014BF090014BE075CA
:10518F00F019A4242490014AF090014DE0FF7B0117
:10519F007A00796790014AE090016AF0A37401F0F8
:1051AF0012840A900149E024FFF0900148E034FF97
:1051BF00F0E0FEA3E04E601290014AE090014CF047
:1051CF00900067E090014BF080B190014CE0B4FF8C
:1051DF000A900067E0900057F0801C90014DE0FFAF
:1051EF007B017A00796790014CE0900161F0A3E4B4
:1051FF00F0A304F0128021900056E014F090014BC0
:10520F00E0FF131313541F2458F582E43400F58381
:10521F00C083C082E0FF90014BE05407FE7401A8E9
:10522F0006088002C333D8FCF45FD082D083F0909D
:10523F00004FE0700690004EE014F090004FE01425
:10524F00F07B017A00794EE4900161F0A3F0A37432
:10525F0007F0E4FF12802190014DE0FF7B017A00FF
:10526F0079559001617407F0A3E4F0A37405F0126F
:02527F0080218C
:01528100220A
:10792D00900143EFF0A3EDF0A3EBF0900143E012D3
:10793D001DE979490379D205000079D79000C27409
:10794D0050F0900144E0FFA3E0FD1250477B017A17
:10795D00007980E490016AF0A37402F0E4FF1284D0
:10796D000A9000C3E014FF25E0FF9000FEE0042F15
:10797D00FF900080E0FCA3E0FDC3EF9DEC6480F878
:10798D00748098403A900080E0FEA3E024FFFFEE63
:10799D0034FFFE7C007D02121B7B9000FEEDF0900B
:1079AD000080E0FEA3E0FF7C007D02121B7B9000B7
:1079BD00C3EFF09000FEE070069000C3E004F07F8E
:0B79CD0005128678227F0512867822C2
:103E4800900143EFF0E0121DE93E64013FD70241C3
:103E5800490341BB0441B805000041BB301E0302C1
:103E680041BB9000FEE06003023F30E0FFC4333303
:103E780054C02450FD9001617410F0E4A3F0A3F045
:103E8800D2127B08FA7F08FE126F469000FEE0FF10
:103E9800C4333354C02450FD9001617440F0E4A34E
:103EA800F0A3F0D2127B08FA7FE8FE126F4690006A
:103EB800C3E0FF7401C39F4059900080E0FEA3E077
:103EC80024FFFFEE34FFFE7C007D02121B7B900076
:103ED800FEEDF0900080E0FEA3E0FFC374029FEEC9
:103EE8006480F87480985046900080E0A3E07C00DD
:103EF8007D02121B7B9000C3EFF09000FEE064018E
:103F080060069000C3E004F09000C3E0FF124B0984
:103F1800801C9000C3E014F09000FE7401F0900043
:103F2800C3E0FF124B0980069000FEE014F09000F9
:103F3800FEE0FF9000C3E014FD1281149000FEE043
:103F480064016045E004FFC4333354C02450FD903D
:103F580001617410F0E4A3F0A3F0D2127B08FA7F99
:103F680008FE126F469000FEE004FFC4333354C0CD
:103F78002450FD9001617440F0E4A3F0A3F0D21244
:103F88007B08FA7FE8FE126F469000FEE0FFC4331C
:103F98003354C02450FD7BFF7A7D79FCE4900162A4
:103FA800F0A3F0D212D2137F08FE1254BC9000FE88
:103FB800E0FFC4333354C02450FDE4900157F0A30C
:103FC800F0C210D2117B40FA7FE8FE1277CE223081
:103FD8001E030241BB9000C3E014FF25E0FF9000E0
:103FE800FEE02F04FF900080E0FCA3E0FDC3EF9DFE
:103FF800EC6480F874809840047F0180027F009010
:1040080000FEE0B401047E0180027E00EF4E7003E2
:104018000240A09000FEE0FFC4333354C02450FD9A
:104028009001617410F0E4A3F0A3F0D2127B08FAB7
:104038007F08FE126F469000FEE0FFC4333354C081
:104048002450FD9001617440F0E4A3F0A3F0D21273
:104058007B08FA7FE8FE126F469000C3E014FF2544
:10406800E0FF9000FEE02F04FF900080E0FCA3E05A
:10407800D39F7480F8EC64809850089000C3740152
:10408800F080069000C3E004F09000C3E0FF124BFC
:1040980009E49000FEF080069000FEE004F0900035
:1040A800FEE0FF9000C3E014FD1281149000FEE0D2
:1040B800FFE4C39F5045E014FFC4333354C0245079
:1040C800FD9001617410F0E4A3F0A3F0D2127B0814
:1040D800FA7F08FE126F469000FEE014FFC43333E7
:1040E80054C02450FD9001617440F0E4A3F0A3F0A3
:1040F800D2127B08FA7FE8FE126F469000FEE0FFBE
:10410800C4333354C02450FD7BFF7A7D79FCE4909E
:104118000162F0A3F0D212D2137F08FE1254BC90B1
:1041280000FEE0FFC4333354C02450FDE49001572F
:10413800F0A3F0C210D2117B40FA7FE8FE1277CECE
:1041480022201E6F9000C27451F0900161743CF0FF
:10415800E4A3F0A3F0D2127B40FA7D287FF8FE1288
:104168006F467BFF7A7E7908E4900162F0A3F0D273
:1041780012D2137D787F087E011254BC7BFF7A7DB2
:1041880079E7E4900162F0A3F0D212D2137DC87FE0
:10419800087E011254BC7BFF7A7E790DE49001629F
:1041A800F0A3F0C212C2137D807F58FE1254BC22C5
:0441B800125F34223C
:0A8903002573B2E2C1BF00543A0030
:106AEF00C1294101B8004101B70041018E004101A8
:026AFF00BA00DB
:1088A600C228C2299001B874FFF0E49001B7F09095
:0788B60001BC04F0C29C228A
:0E766000900153EBF0A3EAF0A3E9F0A3EDF0E4
:10766E0074FFA3F0A3F0E490015AF0900156E0FFEE
:10767E0090015AE0C39F400302770E900157E0FE3F
:10768E00A3E0FF900153E0FBA3E475F001121BC7CA
:10769E00A9F0FA121A9AFDEEEF6DFF900157EEF077
:1076AE00A3EFF0E490015BF090015BE0D394075000
:1076BE0046900157E0A3E05401A3F0900157E0FE7D
:1076CE00A3E0FFEEC313FEEF13FF900157EEF0A3FE
:1076DE00EFF0A3E0B40118900157E0FEA3E0FFEE37
:1076EE0064A0FEEF6401FF900157EEF0A3EFF0905F
:1076FE00015BE004F080B190015AE004F00276796B
:08770E00900157E0FEA3E0FF2B
:017716002250
:1070460090019AE07E002412F9EE3400FA90014E87
:107056007401F0A3EAF0A3E9F09001B9E024064434
:1070660080900194F0E4900196F090014DF090012B
:107076004DE0C39407501AE0248FF582E43401F5FD
:1070860083E0FF900196E02FF090014DE004F08040
:10709600DD90014D740CF09001B9E0240CFF9001D5
:1070A6004DE0C39F502EA3E0FBA3E0FAA3E0F91244
:1070B6001A9AFF90014DE0248FF582E43401F5839E
:1070C600EFF090014FE475F001121BB190014DE015
:1070D60004F080C37B017A0179979001B9E024041A
:1070E600FD127660900151EEF0A3EFF0900151E0B1
:1070F600A3E0FF9001B9E0249CF582E43401F58316
:10710600EFF0900151E0FEA3E0EEFF9001B9E0241C
:107116009BF582E43401F583EFF0E49001B7F0903B
:0F71260001B9E0240E9001BCF090018FE0F599C3
:017135002237
:10621000C29CC2289001B874FFF0C22990019AE094
:106220007E002412F9EE3400FA9001087401F0A304
:10623000EAF0A3E9F0202B05127046804290010B92
:10624000740CF09001BBE0240CFF90010BE0C39FA5
:10625000502DE0248FF582E43401F583E0FF9001B6
:1062600008E0FBA3E0FAA3E0F9EF121B029001099A
:10627000E475F001121BB190010BE004F080C490B2
:106280000197E0334003026361C2F8900021E012FD
:106290001DE962AB11630412630813630C146315E8
:1062A00015633131635632000063617B017A0079F6
:1062B0000390015F74FFF0A37489F0A37403F0A34B
:1062C00074FFF0A3745AF0A3745BF01231BF7BFF2C
:1062D0007A89790AE4900162F0A3F0D212D2137D98
:1062E000DC7FE8FE1254BC7B017A007903E4900164
:1062F00062F0A3F0D212D2137DDCFFFE1254BC1266
:1063000086D7805DC21D8059D21D805590003BE02C
:1063100054BFF0804C7F011235DD920030000990AF
:10632000003BE04420F0803990003BE054DFF080F7
:106330003090003CE0FF7B017A01790BC003C00183
:1063400009900160EBF0A37401F0A3E9F0D001D053
:1063500003125282800B90003CE0FFA3E0FD12503C
:0663600047302B02D29C25
:016366002214
:106D2A009001077441F0E599640260062028030285
:106D3A006E3BD2289001B8E0248FF582E43401F545
:106D4A0083E599F09001B8E0248FF582E43401F5E7
:106D5A0083E0B40328E4900105F0A3F0900106E073
:106D6A00C394075018E0248FF582E43401F583E0D8
:106D7A00FF900105E02FF0A3E004F080DF9001B856
:106D8A00E0B40715900105E0FF900196E06F6009F5
:106D9A001288A6900105E0F5999001B8E06409709F
:106DAA0048E0248FF582E43401F583E0FF900197EF
:106DBA00E0540F8FF0A49001BBF0900197E054705B
:106DCA00B4300FC22B9001BBE09001B9F0E49001FE
:106DDA00BBF0900197E05470B46002D22B9001BBD3
:106DEA00E0240D90018EF0D2299001B8E0FF9001C5
:106DFA008EE0D39F50047F0180027F003029047EF9
:106E0A000180027E00EF5E60227B017A0179979011
:106E1A0001BBE02406FD127660EF4E700512621087
:106E2A0080091288A6900107E0F5999001B8E0045C
:016E3A00F067
:016E3B002234
:1083A500E59964127048C22A7B017A01799090019F
:1083B500BAE014FD1276609001CBEEF0A3EFF090D9
:1083C50001CBE0A3E090018FF09001CBE0FEA3E0AC
:1083D500EE900190F0E49001B7F09001BC7402F0CA
:1083E500C29CE49001BAF090018FE0F599229001CA
:1083F500BAE0248FF582E43401F583E599F0900124
:04840500BAE004F0E5
:018409002250
:030023000282D482
:1082D400C0E0C0F0C083C082C0D075D000C000C070
:1082E40001C002C003C004C005C006C00730980521
:1082F400C298126D2A309926C2999001B7E004F011
:10830400E0FF9001BCE0D39F5004D29C8010900108
:10831400B7E0248FF582E43401F583E0F599D007C2
:10832400D006D005D004D003D002D001D000D0D0E4
:09833400D082D083D0F0D0E032F9
:1088D100900174EFF0900174E0FF14F0EF60030079
:0388E10080F322FF
:10885400D211D2CA7F011288D1D2CBA2CA92117F7F
:0C886400011288D1C2CB201102D322C324
:0188700022E5
:10888C0030CB047F0180027F0030CA047E0180025D
:0A889C007E00EE5F6002C322D322CB
:10000E00D2CA00D2CB7F0A1288D1C2CA7F0A128806
:04001E00D1C2CB225E
:1088E400C2CA00D2CB7F0A1288D1D2CA7F0A1288A8
:0288F400D1228F
:1085CF009001727407F0E4A3F07F0A1288D1D2CB26
:1085DF00900173E0FF25E0F07F0A1288D130CA06C0
:1085EF00900173E004F0C2CB900172E07004800A36
:0F85FF0080D7900172E014F080CF900173E0FFFD
:01860E002249
:05845E00900172EFF037
:10846300A37407F0900173E0FF74017E00A807086E
:108473008005C333CE33CED8F9FF900172E0FDE41B
:10848300EF5D6004D2CA8002C2CA7F051288D1D2CE
:10849300CB7F0A1288D1C2CB900173E07004800AAB
:0D84A30080C2900173E014F080BA1288547A
:0184B00022A9
:1084FC0090016DEFF0A3EBF0A3EAF0A3E9F0128882
:10850C008C40FB12000E7FA212845E90016DE0FF86
:10851C0012845E900171E0FF12845E12000E7FA344
:10852C0012845E1285CF90016EE0FBA3E0FAA3E00B
:09853C00F9EF121B021288E4227F
:0E840A00900166EFF0A3EBF0A3EAF0A3E9F017
:10841800E490016CF0900166E0FFA3E0FBA3E0FAB2
:10842800A3E0F9A3E0900171F01284FC90016CE0E4
:1084380004F0900168E475F001121BB190016AE044
:1084480004F090016CE0FF90016BE0B507C7800273
:0584580080C31288E45E
:01845D0022FC
:0E826800900166EFF0A3EBF0A3EAF0A3E9F0BB
:10827600E490016BF012888C40FB12000E7FA21274
:10828600845E900166E0FF12845E90016AE0FF1250
:10829600845E900167E0FBA3E0FAA3E0F9121A9A64
:1082A600FF12845E1288E4E490016BF090016BE0AB
:1082B600C3941450187B017A01796CE0900171F037
:0D82C600E4FF1284FC90016BE004F080DF07
:0182D3002288
:0E80210090015DEFF0A3EBF0A3EAF0A3E9F00D
:10802F00E4900164F0A3F090015DE0FFA3E0FBA3F7
:10803F00E0FAA3E0F9A3E090016AF01282689001E0
:10804F0065E004F07006900164E004F090015FE4D5
:10805F0075F001121BB1900161E0B4FF0690015D54
:10806F00E004F07F141288D1900161E004F09001D8
:10807F0064E0FEA3E0FF900162E0FCA3E0B507A778
:0B808F00ECB506A38002809F1288E47D
:01809A0022C3
:0E003E00900151EBF0A3EAF0A3E9F0A3EDF07E
:10004C00E4A3F012888C40FB12000E7FD012845E69
:10005C007F0112845E900154E0FF14F0EF6029E000
:10006C00B40307E4FF12845E80EB900151E0FBA324
:10007C00E0FAA3E0F9121A9AFF12845E900152740E
:0B008C00FFF5F0121BB180CD1288E4DC
:010097002246
:0E81FB0090014DEBF0A3EAF0A3E9F0A3EDF044
:10820900E4A3F012888C40FB12000E7FD012845E2A
:10821900900151E0FF12845E12000E7FD112845E3C
:10822900900151E0B403051285CF801C1285CF90CF
:10823900014DE0FBA3E0FAA3E0F9EF121B02900164
:108249004E74FFF5F0121BB1900151E004F0E0FF0C
:0E825900900150E0B507B1800280AD1288E4BC
:0182670022F4
:0D88F6005392EE5391EE53B27F53B17F22A7
:07891700C2ED00D2ED0022C9
:1056B200900151EEF0A3EFF0A3EBF0A3EAF0A3E91F
:0156C200F0F7
:1056C300E4900157F0A3F0900151E0FEA3E08EF0C7
:1056D300121E0F56F6000056FF0400571D08005710
:1056E30028100057331800574F1C00575A2000004A
:1056F300005774E4900157F0A3F08075900153E0D4
:10570300FBA3E0FAA3E0F9121BDDFFE5F054034429
:1057130004900157F0A3EFF080579001577408F0FD
:10572300A3E4F0804C9001577410F0A3E4F080419F
:10573300900153E0FBA3E0FAA3E0F9121BDD54064A
:10574300FF7418900157F0A3EFF080259001577470
:105753001CF0A3E4F0801A900153E0FBA3E0FAA34A
:10576300E0F9121BDD5401FF7420900157F0A3EF01
:10577300F0D29500D2920030ECFDC29500C29200A7
:10578300E4900156F0900156E0C394105031A3E029
:10579300FEA3E0EE30E704D2938002C29300D295D9
:1057A30000C29500900157E0FEA3E025E0FFEE3331
:1057B300900157F0A3EFF0900156E004F080C6D2B9
:1057C300920020ECFD30ECFD900151E0FEA3E0706F
:1057D30003EE6408600D900151E0A3E07003EE64F2
:1057E3001C7048E4900157F0A3F0C2920090015658
:1057F300F0900156E0C39410502EA3E0FEA3E025E1
:10580300E0FFEE33900157F0A3EFF0D29500309410
:105813000BE004F07006900157E004F000C295001D
:10582300900156E004F080C9D29200900151E0FE4D
:10583300A3E0B40030EEB4082C900157E0FEA3E0DF
:10584300FFEE5403900157F0A3EFF0900157E0FEF1
:10585300A3E0FF900153E0FBA3E0FAA3E0F9EE8F8E
:10586300F0121C0822900151E0FEA3E0B4002EEEDA
:10587300B41C2A900157E0A3E05406FF900157E4BB
:10588300F0A3EFF0900157E0FEA3E0FF900153E097
:0D589300FBA3E0FAA3E0F9EE8FF0121C0871
:0158A00022E5
:10009E007B007D00D2BBB0B4B0DCB1A3B1A8B1B8C7
:1000AE00B1BEB1D5B1E3B2BBB2CEB2E0B2E2B3C92A
:1000BE00B3D8B3F6B3FDB4BFB4CEB4E6B5B9B5BCE0
:1000CE00B5C4B5D7B5E7B5F7B6AFB6C8B6CCB7B504
:1000DE00B7C5B8C4B8FCB9A6B9A9B9CCB9D8B9FDD9
:1000EE00BAC3BAF3BBBBBBD8BBEEBBF2BBFDBCC73E
:1000FE00BCE4BCECBCFCBDABBDBBBDF8BEABBEAF87
:10010E00BEBBBFAAC0FAC1BFC1F7C2BCC3A6C3E67D
:10011E00C4DAC5E4C6B7C6E4C6F4C6F7C7EBC8B7BB
:10012E00C8CFC8DDC8EBC9BEC9E4C9E8CAA7CAB101
:10013E00CAB3CAB7CAB9CABCCABDCACACAFDCBAE4F
:10014E00CBFBCCA8CCE5CDB3CFB5CFC2CFE0D0A101
:10015E00D0A3D0AFD0D0D0D4D0DED2B3D2BAD2C703
:10016E00D3A6D3C3D3D2D3DAD4CBD5FBD6B5D6B997
:10017E00D6C3D6CAD6D0D6D8D7BCD7E3E3D0BBB673
:10018E00CDEACFA2D0C5D1A1D1F9D3ADD4F1B7D696
:10019E00D6D3C6E4C7E9CBFBCFEAD7DC000000001C
:1001AE0000000FF80080008000800080008000803A
:1001BE000080008000800FF800000000104010202A
:1001CE00102013FEFA02144410401BFE3088D08813
:1001DE00110810D0102010505088230400407C408D
:1001EE004440548054FE55085688548854885450C0
:1001FE0054501020285024884504820208000BF821
:10020E000A081208120833F83040504097FC10E0EC
:10021E00115012481444184210401040100011FCA6
:10022E0011041104FD141108110015FC1944314478
:10023E00D1281128111011285144218204000400E4
:10024E000FF01820644003801C70E00E1FF0111098
:10025E0011101FF0111011101FF0101001000100ED
:10026E00010001007FFC03800540054009201110AC
:10027E0021084FE48102010001000100200017FC5B
:10028E000004408440845FF440844184428444846A
:10029E00488450844284410440144008100017FEE4
:1002AE00104027FC2444644467FCA444244427FCE7
:1002BE00224021402080214022302C0E00007FFC65
:1002CE000080008001000100034005200910110884
:1002DE0021044104810001000100010002000440DC
:1002EE0008201FF002007FFC082010902308CC4647
:1002FE0001800610182000C007007800100417C4F3
:10030E0014442454255465546554A5542554255439
:10031E00255421042284224424142808000427C4CE
:10032E0014441454855445544554155415542554A9
:10033E00E554210422842244241408080050004865
:10034E0000403FFE2040204020443E4422442228CC
:10035E00222822122A32444A40868102004020403E
:10036E0012401258826842C853481E48124822480A
:10037E00E25822422202220221FE00000100010068
:10038E0021082108210821083FF801080100010079
:10039E0041044104410441047FFC000400407840C4
:1003AE0048A05110520865F6504048404FFC484056
:1003BE006A505248444448444140408010401040E6
:1003CE00204023FC4840FA48124822484248FBF895
:1003DE00404800401842E042403E0000008040800D
:1003EE00208020FC010409080A4014401040E0A0BF
:1003FE0020A0211021102208240408020400040069
:10040E00FFFE0800080013F810103020504097FE31
:10041E001040104010401040114010801004100485
:10042E001FC422142214649467D4A114211427D457
:10043E002114211421C42E042414200800003FF09E
:10044E00201020103FF0200420041FFC002000206C
:10045E00FFFE08200420042000A0004010401040A1
:10046E0020407E7C42844284430442447E244224C3
:10047E004204420442047E0442280010010000801F
:10048E003FFE2000203C27C024402440244027FE6D
:10049E00242024202412450A46468422010001000D
:1004AE0001003FF82108210821083FF82108210802
:1004BE0021083FF8210A0102010200FE000047FC5C
:1004CE002444244405F40444E44427FC240425E491
:1004DE0025242D2435E4240404140808004000408B
:1004EE007C40004001FC0044FE4420442044208413
:1004FE0048844484FD044504022804100100008051
:10050E003FFE222022203FFC2220222023E020003A
:10051E002FF02410422041C08630380E200021FEDC
:10052E003C00500090FC10841084FE8410FC1000DF
:10053E00108428442448440041FE80000008203CDA
:10054E0013C01200020003FCF20412881250122093
:10055E00125014881504280047FE00002040104059
:10056E000040FE8020FE21083E88248824882450E6
:10057E002450242044505488890402020040004034
:10058E00FC8004FE0508050806887C8840884050DB
:10059E004050442058506088410402020000FFFE83
:1005AE00010001003FF8210821083FF82108210829
:1005BE003FF811000A00060019C0E03E004000405E
:1005CE000040FE4011FC10441044104410441084AE
:1005DE0010841E84F104410402280410091009102D
:1005EE000910111013FC311031105110911017FE1B
:1005FE0010001110110812081404180400007FFCDA
:10060E00410441045FF4410441044FE4482448246A
:10061E0048244FE4482440047FFC40041010081086
:10062E00082000003FF8010001000100FFFE01005C
:10063E0002800280044008203018C00600102010EE
:10064E00101017FE00100010F210111011101010E3
:10065E00101010501020280047FE0000100010FC53
:10066E0010041008FC102420242025FE24204820ED
:10067E00282010202820442084A00040001000F8DC
:10068E001F00100010001FFE10001000100017F8C1
:10069E00140824082408440887F8040810801080E1
:1006AE0010F81108FA1015FC112419243124D12444
:1006BE0017FE1050105010885104260200003FF80B
:1006CE002008200827C824482448244824482448C1
:1006DE0027C8200820083FF82008000000102078C6
:1006EE0013C01040804047FE40401040104023F899
:1006FE00E20822082208220823F8020800480044D3
:10070E000040FFFE004000403E4422442244222886
:10071E003E2800120732784A2086030204000E009B
:10072E0078FC08840884FF84088418841CFC2A84BE
:10073E002A004848884408840882090200002000E4
:10074E0011F8100800080008F00811F8110811003F
:10075E00110011001502190210FE0000200013FCFA
:10076E001004400447C444444444444447C44444ED
:10077E004444444447C440044014400810401040D0
:10078E0010A010A0FD10120835F6380054885048FD
:10079E00924811501110102017FE1000201020103A
:1007AE003B7C211441FE7A14A27C2710F97C251083
:1007BE0025FE22102A10350028FE0000088008F8B9
:1007CE0009084A1028A0284008900B1018102BFE7C
:1007DE00C8100910089008100850082002000100E7
:1007EE000100FFFE000010101008202448240440D1
:1007FE000280010002800C403030C00E009020902C
:10080E00109013FC00900090F09017FE1090109036
:10081E00111011101210280047FE00001020102099
:10082E0095FE542058FC1020FDFE300038FC5484F8
:10083E0054FC908410FC1084109410882420FF2007
:10084E00247E7EC482287A104A287AC60500FFFECE
:10085E0000003FF800003FF820083FF8010041007B
:10086E0023F02410002017FC104410442FFE2044C7
:10087E00E04427FC204420402140008000007FFC03
:10088E0008200820082008200820FFFE0820082045
:10089E0008200820102010202020402000003FFEBD
:1008AE0020002080208020802FFC208420842104A2
:1008BE0021042204220444044828901000001FF052
:1008CE0010101FF01010FFFE00001FF011101FF08F
:1008DE0011101FF001001FF001007FFC008020406E
:1008EE0017FE10808110420847FC100410002248A9
:1008FE00E24822482248224A244A084600003FF095
:10090E00001000101FF000100010FFFE0100210863
:10091E001190056009203118C50602001020101034
:10092E00101010001BFE548050805080908010805C
:10093E00108010801080108010FE10000000FFFE4E
:10094E000200020004003FF82448244827C8244827
:10095E00244827C8244824483FF8200801000100F5
:10096E0001007FFC4104410441044284424444247A
:10097E004814501440044004401440080000FE0087
:10098E0028F82808FE08AA08AA08AAF8AE88C28085
:10099E008280FE8082828282FE7E820000001FF0B4
:1009AE0010101010101010101FF0000000007C7CB2
:1009BE0044444444444444447C7C44440820082039
:1009CE007FFC082008200FE0082008200FE00820F8
:1009DE000820FFFE000008201010200801000080F3
:1009EE001FFC1004100410041FFC10001000100057
:1009FE0017FC24042404440487FC040400003E7CF9
:100A0E00224422443E7C01200110FFFE02800C6035
:100A1E003018C0063E7C224422443E7C00404040BA
:100A2E0027FC204003F80040E7FE200023F82208B0
:100A3E0023F822082BF8320822280210004000402A
:100A4E00FC7C1084110822FE3C92649264FEA492F7
:100A5E00249224FE3C922512210A020400402040DA
:100A6E001040104000400040F040104010A010A078
:100A7E0010A015101910120804040802020001003B
:100A8E007FFE40028824111022880440082030186E
:100A9E00DFF61010101010101FF0101004000200DE
:100AAE000100010001000280028002800440044027
:100ABE0008200820101020104008800600027BC27B
:100ACE004A424A4A4A4A4A4A4A4AFFEA4A4A4A4A2B
:100ADE004A4A4A4A4A425A42854A08840808100835
:100AEE003E0822083EFE22083E0822082248FE2822
:100AFE0006280A08120822084A280410000021F0CD
:100B0E00111011100110020EF40013F8110811103B
:100B1E00109014A0184010A003180C06010011002C
:100B2E00110011003FF8210041000100FFFE02807C
:100B3E0004400440082010102008C00600080008D9
:100B4E007C08440845FE440844087C084488444810
:100B5E00444844087C084408002800100100028024
:100B6E0004400A203118DFF610101FF010101FF08D
:100B7E0010081190106012101408180401000100E2
:100B8E0001003FF82108210821083FF82108010043
:100B9E0011000900060005801870E00E104010408C
:100BAE001FFE2040204067FC6444A44427FC2040E4
:100BBE00224021402080214022302C0E1020102077
:100BCE0010201040FC48248425FE2482240048FC7A
:100BDE00288410842884448480FC008400480044C7
:100BEE0000440040FFFE004000403E4008400840E8
:100BFE00082008220F12780A20060002007823C06F
:100C0E001040104007FE0040F04013F81208120882
:100C1E00120813F81208280047FE00000820492089
:100C2E002A20083EFF442A44494488A41028FE285E
:100C3E0022104210642818283444C2820100010098
:100C4E000100010801087D9005A00940094011200E
:100C5E0011102108410681000500020008400840DD
:100C6E000A401258126832C833485E4892481248F9
:100C7E00125812421202120211FE1000020002005D
:100C8E0004000820101020087FFC200400001FF034
:100C9E0010101010101010101FF010100840084007
:100CAE000840104017FC304030E050E09150115099
:100CBE00124815F4184210401040104010401020F9
:100CCE00202023FE4840F888110423FE4092F8901D
:100CDE00409000901912E112420E040000F83F00FD
:100CEE000400082010403F800100061018087FFC09
:100CFE000104092011102108450402000000FFFE26
:100D0E00020002000200020002400220021002084D
:100D1E00020802000200020002000200080008FCA5
:100D2E0008840884FE8408FC18841C842A842AFC07
:100D3E00488488840884088408FC08840100010023
:100D4E0001000100010011101108110421042102FB
:100D5E004102810201000100050002001040102036
:100D6E00102011FEFC00108831043A02548850887D
:100D7E0090501050102010501088130610A0109094
:100D8E0011FE1320FDFC112011FC152019FE31005F
:100D9E00D3FC1088109E1102520A2404080009FC8C
:100DAE00100020004800080013FE30205020902034
:100DBE00102010201020102010A010401020102005
:100DCE001120112019FC552052205020902011FC8A
:100DDE00102010201020102013FE10001080108004
:100DEE0011F821082A906C60A9982E2628C02B1085
:100DFE00282028C82B1020602180260000007FFCB0
:100E0E00020004001FF0101011101110111011101B
:100E1E00111012900240042018106008008020402B
:100E2E0017FE11208120423C42441664129423483E
:100E3E00E2482230222022502288030608800848E9
:100E4E000A481208120831103110511090A010A04B
:100E5E001040104010A0111012081406010000805E
:100E6E003FFE2000200021042884248424482248A8
:100E7E0022102210402040409FFE000000003FF84C
:100E8E002108210821083FF82108210821083FF8F0
:100E9E002108210821084108412880100200020083
:100EAE000200FFFE04000400080008001FF82808D6
:100EBE0048088808080808080FF8080800003FF8D6
:100ECE000100010001000100FFFE01000100010010
:100EDE00010001000100010005000200000023F8DE
:100EEE0010001000000007FCF040108011101208D6
:100EFE0017FC12041000280047FE000008200820EE
:100F0E00FFBE08447FA449247F282A10492888461A
:100F1E0000007FFC010011F81100FFFE08400840A0
:100F2E000FFC1040104033F8320853F8920813F8B3
:100F3E00120813F8120812081FFE1000010001001B
:100F4E00010001001100110011F811001100110033
:100F5E001100110011001100FFFE00007FFC44443F
:100F6E007FFC01007FFC01001FF010101FF010101D
:100F7E001FF010101FF01010FFFE0000007C3FC08D
:100F8E00204020403FFE2040204027FC24042444E3
:100F9E002444244424B4410846049802010001006C
:100FAE00010001003FF8210821082108210821082D
:100FBE003FF821080100010001000100001000F8B7
:100FCE003F000100FFFE01001FF011101FF0111075
:100FDE001FF001003FF80100FFFE0000014041201C
:100FEE00212023FE022016201BFC1220222023FC8F
:100FFE00E2202220222023FE2200020000001FF009
:10100E0010101010101010101FF001000100110030
:10101E0011F811002900250043FE8000200017FC66
:10102E00008440A440945FF440844EA44AA44EA48D
:10103E0040C4465458B441144204400C0080008011
:10104E00FC8004FC050449082A401440104028A0E6
:10105E0024A04510811002080404080202000100B9
:10106E007FFE400280041FF0000000007FFC044061
:10107E0004400440084408441044603C010002004F
:10108E001FF010101FF010101FF010101FF0101096
:10109E00010008844892481287F00000084008209A
:1010AE000BFE1000100031FC3000500091FC1000BF
:1010BE00100011FC1104110411FC11040040224017
:1010CE00124013F804400040F7FC112011201120AB
:1010DE0012241224141C280047FE00001104108450
:1010EE0010881000FBFE1020302039FC54205020B8
:1010FE0093FE1020102010201020102000002080C1
:10110E00133C122402240224F2241224122412B4B8
:10111E00132812201020282047FE0000200027F858
:10112E0022082110F0A0204021B0264E3040E3F8D6
:10113E002040204027FC2040A0404040004004407A
:10114E00042008201010200840049FE204200420F0
:10115E00042008200820102021404080102010205C
:10116E003C20202041FCBD2411241124FD2411FC1F
:10117E0011241020142018201020002008200820F0
:10118E007FFC082008200FE0082008200FE0082030
:10119E000820FFFE0000082010102008104010400C
:1011AE0017FC10401BF8544057FE500093F81208DD
:1011BE0013F8120813F812081228121008400840EB
:1011CE000A401258126832C833485E489248124894
:1011DE00125812421202120211FE100002082108C9
